:020000040000fa
:080000000013040000000000e1
:020000040000fa
:1000080002100000061000000a1000000e10000088
:1000180012100000161000001a1000001e10000038
:1000280022100000261000002a1000002e100000e8
:1000380032100000361000003a1000003e10000098
:1000480042100000461000004a1000004e10000048
:1000580052100000561000005a1000005e100000f8
:1000680062100000661000006a1000006e100000a8
:1000780072100000761000007a1000007e10000058
:1000880082100000861000008a1000008e10000008
:1000980092100000961000009a1000009e100000b8
:1000a800a2100000a6100000aa100000ae10000068
:1000b800b2100000b6100000ba100000be10000018
:1000c800c2100000c6100000ca100000ce100000c8
:1000d800d2100000d6100000da100000de10000078
:1000e800e2100000e6100000ea100000ee10000028
:1000f800f2100000f6100000fa100000fe100000d8
:1001080002110000061100000a1100000e11000083
:1001180012110000161100001a1100001e11000033
:1001280022110000261100002a1100002e110000e3
:1001380032110000361100003a1100003e11000093
:1001480042110000461100004a1100004e11000043
:1001580052110000561100005a1100005e110000f3
:1001680062110000661100006a1100006e110000a3
:1001780072110000761100007a1100007e11000053
:1001880082110000861100008a1100008e11000003
:1001980092110000961100009a1100009e110000b3
:1001a800a2110000a6110000aa110000ae11000063
:1001b800b2110000b6110000ba110000be11000013
:1001c800c2110000c6110000ca110000ce110000c3
:1001d800d2110000d6110000da110000de11000073
:1001e800e2110000e6110000ea110000ee11000023
:1001f800f2110000f6110000fa110000fe110000d3
:1002080002120000061200000a1200000e1200007e
:1002180012120000161200001a1200001e1200002e
:1002280022120000261200002a1200002e120000de
:1002380032120000361200003a1200003e1200008e
:1002480042120000461200004a1200004e1200003e
:1002580052120000561200005a1200005e120000ee
:020000040000fa
:10200000020000000214040000000000021404009a
:10201000000000000214040000000000021404008c
:10202000000000000214040000000000021404007c
:10203000000000000214040000000000021404006c
:10204000000000000214040000000000021404005c
:1020500000000000021404000000000080140400ce
:10206000000000000214040000000000021404003c
:10207000000000000214040000000000021404002c
:10208000000000000214040000000000021404001c
:102090000000000002140400000000005e140400b0
:1020a00000000000321404000000000002140400cc
:1020b00000000000021404000000000002140400ec
:1020c00000000000021404000000000002140400dc
:1020d00000000000021404000000000002140400cc
:1020e00000000000021404000000000002140400bc
:1020f00000000000021404000000000002140400ac
:10210000000000000214040000000000021404009b
:10211000000000000214040000000000021404008b
:10212000000000000214040000000000021404007b
:10213000000000000214040000000000021404006b
:10214000000000000214040000000000021404005b
:10215000000000000214040000000000021404004b
:10216000000000000214040000000000021404003b
:10217000000000000214040000000000021404002b
:10218000000000000214040000000000021404001b
:10219000000000000214040000000000021404000b
:1021a00000000000021404000000000002140400fb
:1021b00000000000021404000000000002140400eb
:1021c00000000000021404000000000002140400db
:1021d00000000000021404000000000002140400cb
:1021e00000000000021404000000000002140400bb
:1021f00000000000021404000000000002140400ab
:10220000000000000214040000000000021404009a
:10221000000000000214040000000000021404008a
:10222000000000000214040000000000021404007a
:10223000000000000214040000000000021404006a
:10224000000000000214040000000000021404005a
:10225000000000000214040000000000021404004a
:10226000000000000214040000000000021404003a
:10227000000000000214040000000000021404002a
:10228000000000000214040000000000021404001a
:10229000000000000214040000000000021404000a
:1022a00000000000021404000000000002140400fa
:1022b00000000000021404000000000002140400ea
:1022c00000000000021404000000000002140400da
:1022d00000000000021404000000000002140400ca
:1022e00000000000021404000000000002140400ba
:1022f00000000000021404000000000002140400aa
:102300000000000002140400000000000214040099
:102310000000000002140400000000000214040089
:102320000000000002140400000000000214040079
:102330000000000002140400000000000214040069
:102340000000000002140400000000000214040059
:102350000000000002140400000000000214040049
:102360000000000002140400000000000214040039
:102370000000000002140400000000000214040029
:102380000000000002140400000000000214040019
:102390000000000002140400000000000214040009
:1023a00000000000021404000000000002140400f9
:1023b00000000000021404000000000002140400e9
:1023c00000000000021404000000000002140400d9
:1023d00000000000021404000000000002140400c9
:1023e00000000000021404000000000002140400b9
:1023f00000000000021404000000000002140400a9
:102400000000000002140400000000000214040098
:102410000000000002140400000000000214040088
:102420000000000002140400000000000214040078
:102430000000000002140400000000000214040068
:102440000000000002140400000000000214040058
:102450000000000002140400000000000214040048
:102460000000000002140400000000000214040038
:102470000000000002140400000000000214040028
:102480000000000002140400000000000214040018
:102490000000000002140400000000000214040008
:1024a00000000000021404000000000002140400f8
:1024b00000000000021404000000000002140400e8
:0424c0000000000018
:020000040000fa
:102600000fe121000eff27000e01880000000000ee
:10261000000020000000e000020032000001200065
:102620002002880014000700c80007000000e00036
:1026300003003a006012260001002000020037006b
:102640000000200001002000810f70000100320016
:102650000f000700000020000000e0000200320030
:1026600000000200000000003e3d020000000000eb
:102670000040da000000fe00603321000000e000ae
:1026800002003200002020009001880000000600b7
:10269000a1028800800478000000eb001f003700d2
:1026a000e284440054a0b4009905ba00e2844400d6
:1026b00054a0b4009906ba00e284440054a0b400c7
:1026c0000006eb00476fde00fd07b200ae01880098
:1026d000636ce10003003a000ad801000000eb003f
:1026e0000e003700606ce10008003a00004deb007e
:1026f0000a05e800020039003420ec000af0a000ce
:102700008b05e900f9ff3e00040037006168e10035
:10271000010032000086eb000b00070019c7ba0069
:102720000e04e0001905ba0003003a000a00e000b8
:10273000dbff3a0000000600fe07b200ae02880090
:102740008a047800f5ff37000cd0a300e20f4d009b
:102750001c00390089027800354dba000a05e800ee
:10276000020039003420ec000af0a0008b05e900db
:102770000f003200254dba000a05e80002003900ba
:102780003420ec000af0a0008b05e90008003200bc
:102790000c00e0000600320015cdba000a05e80082
:1027a000020039003420ec000af0a0008b05e9009b
:1027b0008984e80054a0b4000b00e000e2ff3a0076
:1027c000000006009902ba00055d78008b05e9005b
:1027d000f7ff3200c82ade00055d78008b05e900ae
:1027e000f3ff32000c00e000f1ff320019ddba0007
:1027f000eeff3700be3d040000000000843e0400f0
:10280000000000003600f800809fbe00829fbe00de
:10281000849fbe00869fbe003200f8003400f8009e
:1028200010002000a00188000020200090018800f6
:1028300000000000c808f8008410f9006081290039
:102840004a1c07003400f9003200f9004f03be00b3
:102850004f02be004f01be004f00be003600f9001f
:1028600000400600809fbe00000021009000900004
:1028700020009000808f500002003a002188a900bb
:102880000c0037000430ec00000420000410e300ca
:1028900001003a000430ef000188a9000000210087
:1028a0009000780020009000008040001080fb0025
:1028b000201188004f00be0000400600809fbe002f
:1028c000821f78000168a900311180000a30ec00f5
:1028d000000420000a10e30001003a000a30ef0073
:1028e00080002100100178001000900000004100dd
:1028f000014878004f0178004f00be0000400600fc
:102900003600f800809fbe00829fbe00849fbe00fc
:10291000869fbe006083800071838000610040005c
:10292000e080480060838800718388000068a90007
:102930008d1307004f03be004f02be004f01be00c3
:102940004f00be003600f900004006000000050000
:1029500003f0a200889fbe008a9fbe008c1f7800f3
:10296000060107000d0133006450e1004f00320002
:102970006420e1005200320003826c0007003b003b
:102980000905d0000306d000820f54000c065d003c
:102990000200390002003200890178000306780045
:1029a0008582550004003d000003fd008103fd0009
:1029b0008502ea008b854200840f720002003b0012
:1029c00060001000e08018006011b8000005eb0006
:1029d0007a28e1000a00390006007800c75ddd00b2
:1029e000f707b200878075002d00370082817100e3
:1029f0000a017800610560008180d1000080d30069
:102a00008502e900f9ff3b00060440008784480086
:102a100002003b0060041400e0841c000988a3004d
:102a2000070032008a8171008281710061016400b7
:102a30008904d1000884d3008b05e8001700370013
:102a40000978a30013003a000b00e00013003400e3
:102a50008b05e9000804440089844c000a44740092
:102a60000978a3000d003a000b00e00007003400d5
:102a70008b05e9000804440089844c0001003a00f9
:102a80000b0020000978a300f7ff32000001eb00e3
:102a900002003700828171000a0178007c00070083
:102aa0000cf0a70001f0a000c50037006420e10091
:102ab00002003a00838f6c00c50033000801be009d
:102ac0000200be00be003700889fbe008a9fbe0085
:102ad0008c1f7800a9000700b000330003866c004b
:102ae0006450e1002e0032006420e1003300320027
:102af0006150e1002f0032006120e100310032001e
:102b000085855500eb07b00009002000080420006f
:102b1000050037000804440089844c000a00310095
:102b20000603430087834b000001530081815b0053
:102b3000f8ff33000203be000800a00008044400b0
:102b400089844c00f6ff3900c639dd00830173002b
:102b500001003200130020008904d1000884d30052
:102b60000998a300050032000800a7000300a00098
:102b70008904d1000884d3008b05e8008904d100c2
:102b80000884d3000001eb000281d200400007005e
:102b900001f0a1000cf0a70001f0a00088003700b0
:102ba0006420e1008a0032000801be000200be007d
:102bb000f7ff37006120e100850032006000b800b7
:102bc000f3ff37000000200001f82700f0ff370076
:102bd000839f68000100e00002003d0060001000db
:102be000e08018000300e00002003d0060011100d9
:102bf000e0811900ad0007004f00e00002003b003b
:102c000060001000e08018000000060014002000a2
:102c1000b6003700f4ff2f00b40037000001be00fb
:102c2000410007000470a70003f0a10003f8a3000f
:102c300013003a006509b1001000320009003500a8
:102c40006928e100020035000100280000000500ad
:102c500000004000818048008502e900fcff3a0046
:102c600000000600f88f4200050035008100d10009
:102c70000080d3008502e800fcff3a000000060057
:102c80008000eb00000005006011b800b2003700c2
:102c900081002000618055000b003d000b002000ea
:102ca00061fe2f000100e1001d00340082817100ef
:102cb000610164008904d1000884d3000000e800a9
:102cc000faff3a0071002000610064000300700008
:102cd000020060000900320061044400e0844c00fe
:102ce0000988a500050032008b05e8006808e100ae
:102cf00002003a008904d1000884d300f20f2000ba
:102d00000258e10005003d00c75ddd00f907b20093
:102d10008980750008007800000006000bf8270085
:102d20008b00780000000500c70ade00f107b20042
:102d3000f50fb20008003200e1cf4200020032007d
:102d40000170a00024000500810f70000100320016
:102d50000408050044000500810f700002003a00dd
:102d6000140005008502e9000000400081c0480011
:102d7000fcff3b000170a000240005000004be0021
:102d8000e9ff07000003be000405be000200be000c
:102d9000e5ff0700844f7500000006000200be003a
:102da0006450e100050036006420e10002003600b6
:102db0000968a30001003a000800be000160a000fd
:102dc0004f0678004f05be004f04be00000006000d
:102dd000f0ff2f00f1ff2700f9ff3700889fbe00aa
:102de0008a9fbe008c1f7800e4ff0700ebff3300d2
:102df00003866c006450e100240032006420e1008e
:102e0000270032006150e100220032006120e10021
:102e1000210032008b854200eb07b1000134b8007d
:102e2000003ab8000804420089844a00013ab80018
:102e30000030b8008880400009014a0004003300d7
:102e40000000400081804800020149008b05e90034
:102e5000c909dd0083017000010032001300200069
:102e6000c814de004814dd004709de001200b2007d
:102e7000c808de000884700085ff070001f0a1008b
:102e80000cf0a70001f0a000cdff37006120e100a9
:102e9000cfff32000801be000200be00f7ff37007e
:102ea0006150e100fcff3a00c9ff37006022b80022
:102eb000060220000000d0008180d2000482d200ef
:102ec0008582d2000000a0000202520083825a00d4
:102ed000030031000202420083824a000000a10088
:102ee0000603e900f3ff3a0000000600889fbe00d9
:102ef0008a9fbe00841f7800a0ff07004f00780063
:102f000011003300f0ff2f00838f6c0006003b00a0
:102f1000040565000a00a7000800370009f0a600b4
:102f20001000200008003700820f5400838f5c00df
:102f3000030039001000200001003e0000002000c6
:102f400009f0a7000000ea004f05be004f04be00d4
:102f50000000e00000000600889fbe008a9fbe00bf
:102f600000827000040271000482710026003200a9
:102f70000004be000200be006011b8006b09200012
:102f8000950220000182cf000a0039000541b100fe
:102f90000082cf00070039000541b1000982cf004f
:102fa000040039000541b1000882cf00010039005a
:102fb0000541b10005425200120032000a003b00f8
:102fc00082817100610164008100d1000080d30022
:102fd0008984d3000884d3008b05e8000442e8000c
:102fe000f7ff3a00070037000804440089844c00ca
:102ff00000004800818048008b05e9000442e90098
:10300000f9ff3a0022ff07004f05be004f04be0043
:103010000000060080007800010178003104e00023
:0c302000fdff3a00000051000000060017
:020000040000fa
:10302c00556e0000686100006e6400006c65000065
:10303c0064200000696e000074650000727200006c
:10304c0075700000742c00002000000064730000f8
:10305c005049000043330000334500005035000058
:10306c0031320000475000003830000036000000bc
:10307c00756e00006b6e00006f7700006e00000034
:10308c0042310000004400006576000069630000d6
:10309c006520000049440000203d00002000000095
:1030ac0020280000002900002c2000007265000080
:1030bc0076690000736900006f6e0000200000004c
:1030cc00290a0000000a00000a2a00002a2a00002f
:1030dc002a2a00002a2a00002a2a00002a2a000094
:1030ec002a2a00002a2a00002a2a00002a2a000084
:1030fc002a2a00002a2a00002a2a00002a2a000074
:10310c002a2a00002a2a00002a2a00002a2a000063
:10311c002a2a00002a2a00002a2a00002a2a000053
:10312c002a2a00002a2a00002a2a00002a2a000043
:10313c002a2a00002a0a00002a2000005741000019
:10314c00524e0000494e0000472000002d20000088
:10315c00746800006973000020700000726f00003a
:10316c0067720000616d0000207700006173000041
:10317c00206300006f6d0000706900006c6500003a
:10318c0064200000666f000072200000746800006c
:10319c0065200000777200006f6e00006720000051
:1031ac00202a00000a2a0000206300006869000041
:1031bc00702e00002054000068690000732000008d
:1031cc00707200006f670000726100006d200000db
:1031dc006d61000079200000707200006f640000c7
:1031ec007563000065200000756e000065780000b6
:1031fc0070650000637400006564000020620000cc
:10320c0065680000766900006f72000021200000e4
:10321c002a0a00002a20000045640000697400009e
:10322c0020740000686500002068000065610000e3
:10323c006465000072200000666900006c65000087
:10324c0073200000746f000020700000726f00008b
:10325c0070650000726c000079200000646500004d
:10326c00666900006e65000020740000686900004b
:10327c00732000006368000069700000202a0000c1
:10328c000a2a0000206100006e6400002074000017
:10329c006f200000696e00007375000072650000fd
:1032ac00206300006f720000726500006374000000
:1032bc00206f0000706500007261000074690000ee
:1032cc006f6e00002e200000202000002020000047
:1032dc0020200000202000002020000020200000e2
:1032ec002020000020200000202000002a0a0000de
:1032fc002a200000202000002020000020200000b8
:10330c0020200000202000002020000020200000b1
:10331c0020200000202000002020000020200000a1
:10332c002020000020200000202000002020000091
:10333c002020000020200000202000002020000081
:10334c002020000020200000202000002020000071
:10335c002020000020200000202a00000a2a000063
:10336c00204e00004f540000453a00002049000058
:10337c00662000007468000069730000207700006c
:10338c0061730000206300006f6d00007069000025
:10339c006c65000064200000666f00007220000065
:1033ac007468000065200000636f000072720000fa
:1033bc006563000074200000636800006970000001
:1033cc002c200000202000002a0a00002a200000e7
:1033dc00616e0000642000006f6e00006c790000cc
:1033ec00206f000063630000757200007320000002
:1033fc0061740000207000006f770000657200009f
:10340c002d6f00006e200000286e00006f7400000d
:10341c002064000075720000696e000067200000d7
:10342c00612000004d4300004c52000020200000a1
:10343c0020200000202a00000a2a00002072000030
:10344c006573000065740000292c000020760000d4
:10345c006572000069660000792000007468000045
:10346c00617400002041000056440000442000001c
:10347c00616e0000642000004156000053530000b0
:10348c002061000072650000206300006f6e000078
:10349c006e65000063740000656400002e2000005f
:1034ac00202000002a0a00002a2000004f6e000095
:1034bc0020740000686500002050000049430000a3
:1034cc003234000048330000324700005032000014
:1034dc00303200002c2000006e6f000074200000c1
:1034ec00636f00006e6e000065630000746900007d
:1034fc006e6700002041000056440000442000008c
:10350c0020200000202000002020000020200000af
:10351c00202a00000a2a000020700000726f0000b0
:10352c00647500006365000073200000746800007f
:10353c0069730000206d000065730000736100006a
:10354c0067650000206f00006e6c000079200000a1
:10355c0061740000207000006f770000657200003d
:10356c002d750000702e000020200000202000008f
:10357c00202000002020000020200000202000003f
:10358c002a0a00002a2a00002a2a00002a2a0000ff
:10359c002a2a00002a2a00002a2a00002a2a0000cf
:1035ac002a2a00002a2a00002a2a00002a2a0000bf
:1035bc002a2a00002a2a00002a2a00002a2a0000af
:1035cc002a2a00002a2a00002a2a00002a2a00009f
:1035dc002a2a00002a2a00002a2a00002a2a00008f
:1035ec002a2a00002a2a00002a2a00002a2a00007f
:1035fc000a000000466100007374000020520000b5
:10360c00432000004f730000630a000000460000d6
:10361c00617300007420000052430000204f000032
:10362c0073630000207700006974000068200000bc
:10363c00504c00004c0a0000005000007269000061
:10364c006d61000072790000204f00007363000070
:10365c0020280000585400002c2000004853000083
:10366c002c20000045430000290a000000500000f7
:10367c00726900006d61000072790000204f00003b
:10368c007363000020280000585400002c20000018
:10369c00485300002c200000454300002920000066
:1036ac007769000074680000205000004c4c00004a
:1036bc000a00000053650000636f00006e64000098
:1036cc0061720000792000004f730000630a000053
:1036dc00004c00006f770000205000006f77000056
:1036ec006572000020520000432000004f73000060
:1036fc00630a0000004600006173000074200000a3
:10370c0052430000204f0000736300002f31000073
:10371c00360a0000004600006173000074200000af
:10372c0052430000204f0000736300002f4e000036
:10373c000a000000556e00006b6e00006f770000f1
:10374c006e2000006f730000636900006c6c000059
:10375c00617400006f72000020740000797000002a
:10376c00652e0000000a0000446500007669000028
:10377c006365000020680000617300002062000097
:10378c00656500006e200000696e0000207300006b
:10379c006c65000065700000206d00006f64000017
:1037ac00650a0000000a000044650000766900000c
:1037bc006365000020680000617300002062000057
:1037cc00656500006e200000696e00002069000035
:1037dc00646c0000652000006d6f000064650000e3
:1037ec000a0000000a5200006573000065740000b6
:1037fc002063000061750000736500003a20000032
:10380c00005000006f770000657200002d6f000003
:10381c006e2e00000a000000536f0000667400005a
:10382c007761000072650000205200006573000093
:10383c00657400002e0a000000570000617400003f
:10384c0063680000646f000067200000546900008a
:10385c006d6500006f750000743a000020000000d8
:10386c000a0000004d4300004c5200002061000093
:10387c007373000065720000746900006f6e0000c5
:10388c002e0a000000420000726f0000776e0000ec
:10389c002d6f0000757400002e0a0000005400000b
:1038ac007261000070200000436f00006e66000023
:1038bc006c690000637400002e0a000000490000cf
:1038cc006c6c000065670000616c00002043000018
:1038dc006f6e000064690000746900006f6e000078
:1038ec002e0a0000004300006f6e000066690000a5
:1038fc006775000072610000746900006f6e000053
:10390c00204d0000697300006d61000074630000bd
:10391c00682e00000a000000556e00006b6e00005f
:10392c006f7700006e200000726500007365000068
:10393c00742e00000a00000045720000726f000037
:10394c00722000007472000061700000706500004d
:10395c00643a00002000000050720000696f000003
:10396c0072690000747900003a200000002c0000fd
:10397c002056000065630000746f00007220000088
:10398c006e7500006d620000657200003a20000048
:10399c00000a00000a00000045720000726f00006f
:1039ac0072200000696e0000206200007569000042
:1039bc006c6400002f6500006d62000065640000ff
:1039cc006465000064460000313400005f33000081
:1039dc0033450000503500003132000047500000e4
:1039ec0038300000362f00006c690000622f000098
:1039fc0073720000632f00007069000063320000d6
:103a0c00345f000075740000696c00002e630000c8
:103a1c00206c0000696e0000652000003437000047
:103a2c00383a00002041000053530000455200007a
:103a3c005428000075310000365f000062720000ef
:103a4c0067680000203c00003d2000003129000088
:103a5c0020660000616900006c650000642e0000a7
:103a6c000a00000045720000726f00007220000016
:103a7c00696e000020620000756900006c64000033
:103a8c002f6500006d620000656400006465000035
:103a9c0064460000313400005f3300003345000001
:103aac005035000031320000475000003830000023
:103abc00362f00006c690000622f0000737200004a
:103acc00632f00007069000063320000345f000057
:103adc0075740000696c00002e630000206c0000ff
:103aec00696e00006520000034380000343a000094
:103afc0020410000535300004552000054280000a0
:103b0c00665f000062720000672000003c2000002d
:103b1c003635000035330000352e00003529000005
:103b2c0020660000616900006c650000642e0000d6
:103b3c000a00000045720000726f00007220000045
:103b4c00696e000020620000756900006c64000062
:103b5c002f6500006d620000656400006465000064
:103b6c0064460000313400005f3300003345000030
:103b7c005035000031320000475000003830000052
:103b8c00362f00006c690000622f00007372000079
:103b9c00632f00006461000074610000586600002f
:103bac0065720000496d0000706c00002e6300000f
:103bbc00206c0000696e00006520000039300000a8
:103bcc003a200000415300005345000052540000bd
:103bdc0028460000414c00005345000029200000fd
:103bec0066610000696c0000656400002e0a00002c
:103bfc0000450000727200006f7200002069000026
:103c0c006e20000062750000696c0000642f0000db
:103c1c00656d00006265000064640000656400006e
:103c2c0046310000345f0000333300004550000083
:103c3c0035310000324700005038000030360000ab
:103c4c002f6c0000696200002f730000726300008b
:103c5c002f6400006174000061580000666500006c
:103c6c00724900006d7000006c2e00006320000093
:103c7c006c6900006e6500002034000032380000d2
:103c8c003a200000415300005345000052540000fc
:103c9c0028460000414c000053450000292000003c
:103cac0066610000696c0000656400002e0a00006b
:103cbc0000450000727200006f7200002069000065
:103ccc006e20000062750000696c0000642f00001b
:103cdc00656d0000626500006464000065640000ae
:103cec0046310000345f00003333000045500000c3
:103cfc0035310000324700005038000030360000eb
:103d0c002f6c0000696200002f73000072630000ca
:103d1c002f640000617400006158000066650000ab
:103d2c00724900006d7000006c2e000063200000d2
:103d3c006c6900006e65000020340000343900000e
:103d4c003a2000004153000053450000525400003b
:103d5c0028460000414c000053450000292000007b
:103d6c0066610000696c0000656400002e0a0000aa
:103d7c0000450000727200006f72000020690000a4
:103d8c006e20000062750000696c0000642f00005a
:103d9c00656d0000626500006464000065640000ed
:103dac0046310000345f0000333300004550000002
:103dbc00353100003247000050380000303600002a
:103dcc002f6c0000696200002f730000726300000a
:103ddc002f640000617400006158000066650000eb
:103dec00724900006d7000006c2e00006320000012
:103dfc006c6900006e65000020340000353900004d
:103e0c003a2000004153000053450000525400007a
:103e1c00286300005f6f00007574000043680000a9
:103e2c0061720000203d00003d200000434d000069
:103e3c00445f0000544f00004b4500004e29000029
:103e4c0020660000616900006c650000642e0000b3
:103e5c000a00000045720000726f00007220000022
:103e6c00696e000020620000756900006c6400003f
:103e7c002f6500006d620000656400006465000041
:103e8c0064460000313400005f330000334500000d
:103e9c00503500003132000047500000383000002f
:103eac00362f00006c690000622f00007372000056
:103ebc00632f00006461000074610000586600000c
:103ecc0065720000496d0000706c00002e630000ec
:103edc00206c0000696e0000652000003438000082
:103eec00383a0000204100005353000045520000b6
:103efc0054280000464100004c53000045290000a6
:103f0c0020660000616900006c650000642e0000f2
:103f1c000a00000045720000726f00007220000061
:103f2c00696e000020620000756900006c6400007e
:103f3c002f6500006d620000656400006465000080
:103f4c0064460000313400005f330000334500004c
:103f5c00503500003132000047500000383000006e
:103f6c00362f00006c690000622f00007372000095
:103f7c00632f00006461000074610000586600004b
:103f8c0065720000496d0000706c00002e6300002b
:103f9c00206c0000696e00006520000035310000c7
:103fac00353a0000204100005353000045520000f8
:103fbc0054280000464100004c53000045290000e5
:103fcc0020660000616900006c650000642e000032
:103fdc000a00000045720000726f000072200000a1
:103fec00696e000020620000756900006c640000be
:103ffc002f6500006d6200006564000064650000c0
:10400c0064460000313400005f330000334500008b
:10401c0050350000313200004750000038300000ad
:10402c00362f00006c690000622f000073720000d4
:10403c00632f00006461000074610000586600008a
:10404c0065720000496d0000706c00002e6300006a
:10405c00206c0000696e00006520000035380000ff
:10406c00393a000020410000535300004552000033
:10407c0054280000464100004c5300004529000024
:10408c0020660000616900006c650000642e000071
:10409c000a00000045720000726f000072200000e0
:1040ac00696e000020620000756900006c640000fd
:1040bc002f6500006d6200006564000064650000ff
:1040cc0064460000313400005f33000033450000cb
:1040dc0050350000313200004750000038300000ed
:1040ec00362f00006c690000622f00007372000014
:1040fc00632f0000646100007461000058660000ca
:10410c0065720000496d0000706c00002e630000a9
:10411c00206c0000696e0000652000003631000044
:10412c00333a000020410000535300004552000078
:10413c0054280000287200006563000065690000c7
:10414c007665000045720000726f0000722000005e
:10415c003e20000030290000202600002620000010
:10416c002872000065630000656900007665000038
:10417c0045720000726f0000722000003c200000ad
:10418c004e5500004d5f000045520000524f00009c
:10419c00525f0000434f00004445000053290000cb
:1041ac002920000066610000696c00006564000055
:1041bc002e0a0000006e00006f20000065720000e7
:1041cc00726f0000720000007265000070650000e4
:1041dc006174000065640000206300006f6d0000d6
:1041ec006d6100006e64000000740000696d0000d9
:1041fc00656f000075740000006900006e740000ab
:10420c006572000072750000707400006564000037
:10421c00206300006f6d00006d6100006e64000093
:10422c00007500006e73000070650000636900008b
:10423c006669000065640000206900006e6400007f
:10424c0065780000006900006e640000657800006d
:10425c00207400006f6f0000206800006967000088
:10426c006800000076610000726900006162000065
:10427c006c65000020730000697a00006520000066
:10428c006d690000736d00006174000063680000cc
:10429c000072000065610000642000006f6e000079
:1042ac006c790000207600006172000069610000ea
:1042bc00626c000065000000696c00006c65000019
:1042cc00676100006c2000007661000072690000dc
:1042dc00616200006c6500002073000070650000d6
:1042ec006369000066690000636100007469000086
:1042fc006f6e000000000000e1a00000eaa00000ca
:10430c00fba0000003a1000017a1000029a10000e0
:10431c0038a100004fa1000062a10000554100002f
:10432c0052540000312000007061000072690000de
:10433c007479000020650000727200006f7200003a
:10434c000a000000554100005254000031200000ca
:10435c0066720000616d0000696e0000672000004d
:10436c0065720000726f0000720a000000550000b8
:10437c004152000054310000206f000076650000af
:10438c0072720000756e00002065000072720000f1
:10439c006f7200000a00000045720000726f00008e
:1043ac0072200000696e0000206200007569000038
:1043bc006c6400002f6500006d62000065640000f5
:1043cc006465000064460000313400005f33000077
:1043dc0033450000503500003132000047500000da
:1043ec0038300000362f00006c690000622f00008e
:1043fc0073720000632f00007069000063320000cc
:10440c00345f000075610000727400002e630000c0
:10441c00206c0000696e000065200000333600003f
:10442c00313a000020410000535300004552000077
:10443c005428000075330000325f000062610000f8
:10444c00756400005261000074650000203e00009d
:10445c003d20000031300000303000004c290000bd
:10446c0020660000616900006c650000642e00008d
:10447c000a00000055410000525400003220000098
:10448c007061000072690000747900002065000002
:10449c00727200006f7200000a00000055410000ab
:1044ac00525400003220000066720000616d000062
:1044bc00696e00006720000065720000726f0000da
:1044cc00720a0000005500004152000054320000f6
:1044dc00206f00007665000072720000756e00009f
:1044ec0020650000727200006f7200000a0000006c
:1044fc0045720000726f000072200000696e0000af
:10450c0020620000756900006c6400002f650000db
:10451c006d62000065640000646500006446000084
:10452c00313400005f33000033450000503500008b
:10453c00313200004750000038300000362f0000a8
:10454c006c690000622f000073720000632f000082
:10455c007069000063320000345f00007561000078
:10456c00727400002e630000206c0000696e000065
:10457c006520000037350000313a00002041000072
:10458c0053530000455200005428000075330000be
:10459c00325f00006261000075640000526100002f
:1045ac0074650000203e00003d200000313000000a
:1045bc00303000004c2900002066000061690000ca
:1045cc006c650000642e00000a00000055410000dc
:1045dc00525400003320000070610000726900002a
:1045ec007479000020650000727200006f72000088
:1045fc000a00000055410000525400003320000016
:10460c0066720000616d0000696e0000672000009a
:10461c0065720000726f0000720a00000055000005
:10462c004152000054330000206f000076650000fa
:10463c0072720000756e000020650000727200003e
:10464c006f7200000a00000045720000726f0000db
:10465c0072200000696e0000206200007569000085
:10466c006c6400002f6500006d6200006564000042
:10467c006465000064460000313400005f330000c4
:10468c003345000050350000313200004750000027
:10469c0038300000362f00006c690000622f0000db
:1046ac0073720000632f0000706900006332000019
:1046bc00345f000075610000727400002e6300000e
:1046cc00206c0000696e0000652000003131000094
:1046dc00343100003a2000004153000053450000e3
:1046ec005254000028750000333200005f62000055
:1046fc0061750000645200006174000065200000c8
:10470c003e3d00002031000030300000304c0000f5
:10471c002920000066610000696c000065640000df
:10472c002e0a0000005500004152000054340000d5
:10473c002070000061720000697400007920000094
:10474c0065720000726f0000720a000000550000d4
:10475c0041520000543400002066000072610000d9
:10476c006d6900006e670000206500007272000029
:10477c006f7200000a000000554100005254000006
:10478c00342000006f760000657200007275000026
:10479c006e20000065720000726f0000720a00004b
:1047ac0000450000727200006f720000206900006a
:1047bc006e20000062750000696c0000642f000020
:1047cc00656d0000626500006464000065640000b3
:1047dc0046310000345f00003333000045500000c8
:1047ec0035310000324700005038000030360000f0
:1047fc002f6c0000696200002f73000072630000d0
:10480c002f70000069630000323400005f750000f7
:10481c0061720000742e0000632000006c690000bf
:10482c006e6500002031000035330000313a000085
:10483c002041000053530000455200005428000052
:10484c0075330000325f0000626100007564000087
:10485c005261000074650000203e00003d20000005
:10486c0031300000303000004c2900002066000080
:10487c00616900006c650000642e00000a000000f5
:10488c0045720000726f000072200000696e00001b
:10489c0020620000756900006c6400002f65000048
:1048ac006d620000656400006465000064460000f1
:1048bc00313400005f3300003345000050350000f8
:1048cc00313200004750000038300000362f000015
:1048dc006c690000622f000073720000632f0000ef
:1048ec00646100007461000058660000657200008d
:1048fc002e630000206c0000696e00006520000033
:10490c00343200003a2000004153000053450000af
:10491c0052540000287500005f76000061720000a0
:10492c00496e000064650000782000003c20000007
:10493c00363200002920000066610000696c00001e
:10494c00656400002e0a0000004500007272000031
:10495c006f720000206900006e200000627500007c
:10496c00696c0000642f0000656d0000626500003a
:10497c00646400006564000046310000345f000090
:10498c003333000045500000353100003247000041
:10499c0050380000303600002f6c000069620000b7
:1049ac002f730000726300002f640000617400001c
:1049bc006158000066650000722e00006320000044
:1049cc006c6900006e65000020340000343a000071
:1049dc0020410000535300004552000054280000b1
:1049ec00707600005f6400006174000061200000bc
:1049fc00213d0000203000002920000066610000ed
:104a0c00696c0000656400002e0a0000004500007f
:104a1c00727200006f720000206900006e200000ae
:104a2c0062750000696c0000642f0000656d000069
:104a3c00626500006464000065640000463100009b
:104a4c00345f000033330000455000003531000066
:104a5c003247000050380000303600002f6c000048
:104a6c00696200002f730000726300002f64000065
:104a7c00617400006158000066650000722e000031
:104a8c00632000006c6900006e650000203400009b
:104a9c00363a0000204100005353000045520000fc
:104aac0054280000287500005f730000697a00002c
:104abc00652000003e200000302900002026000068
:104acc0026200000287500005f730000697a000042
:104adc00652000003c3d000020280000283200002a
:104aec0035350000292000002b2000003129000062
:104afc002929000020660000616900006c65000037
:104b0c00642e00000a00000045720000726f000065
:104b1c0072200000696e00002062000075690000c0
:104b2c006c6400002f6500006d620000656400007d
:104b3c006465000064460000313400005f330000ff
:104b4c003345000050350000313200004750000062
:104b5c0038300000362f00006c690000622f000016
:104b6c0073720000632f0000646100007461000028
:104b7c0058660000657200002e630000206c000077
:104b8c00696e000065200000393300003a200000f7
:104b9c00415300005345000052540000287500009a
:104bac005f76000061720000496e000064650000d1
:104bbc00782000003c200000363200002920000044
:104bcc0066610000696c0000656400002e0a00003c
:104bdc0000450000727200006f7200002069000036
:104bec006e20000062750000696c0000642f0000ec
:104bfc00656d00006265000064640000656400007f
:104c0c0046310000345f0000333300004550000093
:104c1c0035310000324700005038000030360000bb
:104c2c002f6c0000696200002f730000726300009b
:104c3c002f6400006174000061580000666500007c
:104c4c00722e0000632000006c6900006e6500008d
:104c5c0020310000303000003a20000041530000a9
:104c6c0053450000525400002870000058660000a4
:104c7c006572000056610000722d00003e7000004d
:104c8c00753800005f640000617400006120000052
:104c9c00213d00002030000029200000666100004a
:104cac00696c0000656400002e0a000000440000de
:104cbc0061740000612000007265000063650000f3
:104ccc00697600006520000065720000726f0000bc
:104cdc00723a00002000000045720000726f000064
:104cec0072200000696e00002062000075690000ef
:104cfc006c6400002f6500006d62000065640000ac
:104d0c006465000064460000313400005f3300002d
:104d1c003345000050350000313200004750000090
:104d2c0038300000362f00006c690000622f000044
:104d3c0073720000632f0000706900006332000082
:104d4c00345f00007365000072690000616c000044
:104d5c002e630000206c0000696e000065200000ce
:104d6c00383100003a200000496e000076610000e6
:104d7c006c69000064200000554100005254000092
:104d8c00003000007800000045720000726f0000d7
:104d9c0072200000696e000020620000756900003e
:104dac006c6400002f6500006d62000065640000fb
:104dbc006465000064460000313400005f3300007d
:104dcc0033450000503500003132000047500000e0
:104ddc0038300000362f00006c690000622f000094
:104dec0073720000632f00007069000063320000d2
:104dfc00345f00007365000072690000616c000094
:104e0c002e630000206c0000696e0000652000001d
:104e1c0032390000363a0000204900006e7600005e
:104e2c00616c0000696400002055000041520000d4
:104e3c005400000045720000726f000072200000e8
:104e4c00696e000020620000756900006c6400004f
:104e5c002f6500006d620000656400006465000051
:104e6c0064460000313400005f330000334500001d
:104e7c00503500003132000047500000383000003f
:104e8c00362f00006c690000622f00007372000066
:104e9c00632f00007069000063320000345f000073
:104eac007365000072690000616c00002e630000e5
:104ebc00206c0000696e0000652000003333000098
:104ecc00353a0000204900006e760000616c00004d
:104edc00696400002055000041520000540000009d
:104eec00050300000201000050c3000030750000f3
:104efc00204e00001027000088130000b80b0000a3
:104f0c00d0070000e8030000f40100002c010000b1
:104f1c00c800000064000000320000001e00000009
:104f2c00140000000a00000005000000030000004f
:104f3c000200000001000000050300000201000057
:104f4c000503000002010000321e0000140a0000dc
:104f5c00050300000201000045720000726f0000a2
:104f6c0072200000696e000020620000756900006c
:104f7c006c6400002f6500006d6200006564000029
:104f8c006465000064460000313400005f330000ab
:104f9c00334500005035000031320000475000000e
:104fac0038300000362f00006c690000622f0000c2
:104fbc0073720000632f0000706900006332000000
:104fcc00345f0000746900006d650000722e0000f3
:104fdc00632000006c6900006e6500002035000045
:104fec00383a0000204100005353000045520000a5
:104ffc0054280000665f000074690000636b0000b9
:10500c00732000003c2000003635000035330000d2
:10501c00352e000035290000206600006169000073
:10502c006c650000642e00000a0000004572000050
:10503c00726f000072200000696e00002062000098
:10504c00756900006c6400002f6500006d62000043
:10505c0065640000646500006446000031340000a3
:10506c005f33000033450000503500003132000042
:10507c004750000038300000362f00006c690000eb
:10508c00622f000073720000632f00007069000033
:10509c0063320000345f0000746900006d6500002d
:1050ac00722e0000632000006c6900006e65000029
:1050bc0020370000363a0000204100005353000016
:1050cc004552000054280000665f0000746900001f
:1050dc00636b0000732000003c200000363500009c
:1050ec0035330000352e0000352900002066000005
:1050fc00616900006c650000642e00000a0000006d
:10510c0045720000726f000072200000696e000092
:10511c0020620000756900006c6400002f650000bf
:10512c006d62000065640000646500006446000068
:10513c00313400005f33000033450000503500006f
:10514c00313200004750000038300000362f00008c
:10515c006c690000622f000073720000632f000066
:10516c007069000063320000345f00007469000055
:10517c006d650000722e0000632000006c69000059
:10518c006e65000020310000363000003a2000002f
:10519c004153000053450000525400002875000094
:1051ac00385f0000544300004b50000053200000b7
:1051bc003c3d000020330000292000006661000007
:1051cc00696c0000656400002e0a000000000000fd
:1051dc000a0a0000596f000075720000206300007d
:1051ec006c6f0000636b000020630000686f0000b0
:1051fc00696300006520000066610000696c0000b6
:10520c0065640000207400006f200000696e0000cf
:10521c0069740000696100006c6900007a65000027
:10522c002e20000053650000652000006275000010
:10523c00696c0000642f0000656d00006265000061
:10524c00646400006564000046310000345f0000b7
:10525c003333000045500000353100003247000068
:10526c0050380000303600002f6c000069620000de
:10527c002f730000726300002f7000006963000040
:10528c00323400005f6300006c6f0000636b000041
:10529c0066720000657100002e630000206c000037
:1052ac00696e0000652000003230000033200000e1
:1052bc00666f0000722000006d6f000072650000c8
:1052cc002064000065740000616900006c730000cc
:1052dc002e0000002e2e00002e2000002d2d000090
:1052ec002d2000002e2e00002e0000004572000024
:1052fc00726f000072200000696e000020620000d6
:10530c00756900006c6400002f6500006d62000080
:10531c0065640000646500006446000031340000e0
:10532c005f3300003345000050350000313200007f
:10533c004750000038300000362f00006c69000028
:10534c00622f000073720000632f00007069000070
:10535c0063320000345f0000636c00006f63000078
:10536c006b66000072650000712e00006320000067
:10537c006c6900006e6500002032000032300000c5
:10538c003a200000415300005345000052540000e5
:10539c0028750000385f0000736f00007572000004
:1053ac0063650000203c000020380000292000002c
:1053bc0066610000696c0000656400002e0a000044
:1053cc000000000045720000726f000072200000a7
:1053dc00696e000020620000756900006c640000ba
:1053ec002f6500006d6200006564000064650000bc
:1053fc0064460000313400005f3300003345000088
:10540c0050350000313200004750000038300000a9
:10541c00362f00006c690000622f000073720000d0
:10542c00632f00007069000063320000345f0000dd
:10543c00666c000061730000682e000063200000a1
:10544c006c6900006e6500002032000030320000f4
:10545c003a20000041530000534500005254000014
:10546c0028750000313600005f6c0000656e00008e
:10547c00203c00003d200000464c00004153000041
:10548c00485f0000504100004745000042590000b1
:10549c00544500005329000020660000616900009b
:1054ac006c650000642e00000a00000045720000cc
:1054bc00726f000072200000696e00002062000014
:1054cc00756900006c6400002f6500006d620000bf
:1054dc00656400006465000064460000313400001f
:1054ec005f330000334500005035000031320000be
:1054fc004750000038300000362f00006c69000067
:10550c00622f000073720000632f000070690000ae
:10551c0063320000345f0000666c000061730000b1
:10552c00682e0000632000006c6900006e650000ae
:10553c0020320000353100003a20000041530000b9
:10554c00534500005254000028750000313600000d
:10555c005f6c0000656e0000203c00003d200000e8
:10556c00464c000041530000485f000050410000d1
:10557c0047450000425900005445000053290000e3
:10558c0020660000616900006c650000642e00005c
:10559c000a0000004932000043500000555400003e
:1055ac00312c0000204e0000414b00002072000006
:1055bc0065740000757200006e650000642e0000ba
:1055cc000049000032430000312000004765000014
:1055dc007400000049320000435000005554000094
:1055ec00322c0000204e0000414b000020720000c5
:1055fc0065740000757200006e650000642e00007a
:10560c0000490000324300003220000047650000d2
:10561c00740000005350000049310000205200007b
:10562c00656300006569000076650000204f00008e
:10563c0076650000726600006c6f0000770a00004f
:10564c000053000050490000322000005265000059
:10565c006365000069760000652000004f7600004d
:10566c0065720000666c00006f7700000a00000095
:10567c00636f00006e7600006572000074410000dc
:0c568c0044430000312800002900000009
:020000040000fa
:105698000343780093018000910188000000000016
:1056a8009003780093018800000000000700a10023
:1056b800a3018000a101880007087800a3018800e1
:1056c8009301800091018800000000009003780099
:1056d80093018800000000000710a100a3018000ca
:1056e800a101880007087800a3018800f37f200043
:1056f80003016100c211dd00920180009101880060
:10570800000000009003780092018800000000006b
:1057180032002e000281630002817100a301800023
:10572800a101880002087800a30188009701800081
:105738000001be00020278002200b00002026a00e6
:105748004260af0002f0a0000482d2000380b000e3
:10575800030278009401880000000000920278009b
:10576800970188000000000003002f008382620078
:10577800a3018000a401880005097800a30188001e
:10578800940180000001be00820278004200b0004f
:1057980082826a004260af0002f0a0008582d200d7
:1057a8000380b000830078009101880000000000a9
:1057b8000200780090017800940188000000000041
:1057c800f33fb200a2018000a1018800030878001d
:1057d800a201880092018000910188000000000069
:1057e8009001780092018800000000000390a10059
:1057f800a2018000a101880003087800a2018800a6
:10580800920180009101880000000000900178005a
:1058180092018800000000000380a100a20180001e
:10582800a101880003087800a20188009201800085
:105838009101880000000000900178009201880022
:10584800000000000340a100a2018000a10188001f
:1058580003087800a20188006f01630093018000ab
:105868009101880000000000100278009301880070
:105878000000000003ff2f00830162008301710014
:10588800a2018000a101880003087800a201880015
:1058980000000600889fbe008a1f780097018000dc
:1058a800910188000000000010047800970188002a
:1058b800000000000800a000a7018000a1018800e6
:1058c80008087800a70188009701800091018800e6
:1058d8000000000010047800970188000000000014
:1058e8000810a100a7018000a1018800080878001d
:1058f800a7018800421cde0009002000f77f200075
:1059080088836300c23bdd00980180009101880014
:105918000000000090047800980188000000000052
:1059280038002e000884640008847300a7018000f2
:10593800a101880008087800a7018800c61bde00be
:10594800ca1add004613de0006837200f8ff200045
:10595800860364009a0180000004be008802780073
:105968002800b00088826a004260af0008f0a000fa
:105978008582d2000980b00009037800960188006a
:105988000000000088027800950478009a018800d9
:105998000000000008002f000884640008847300d9
:1059a800a7018000a6018800880a7800a70188005e
:1059b8004a11dd00950180000003be0086017800d1
:1059c8004600b000868169004260af0006f0a00082
:1059d8008381d2000780b000870078009101880099
:1059e800000000000600780090017800950188000a
:1059f80000000000f33fb20003017100a301800022
:105a0800a101880002087800a301880092018000a3
:105a18009101880000000000900178009201880040
:105a2800000000000390a100a2018000a1018800ed
:105a380003087800a2018800920180009101880083
:105a4800000000009001780092018800000000002a
:105a58000380a100a2018000a1018800030878004a
:105a6800a2018800920180009101880000000000d6
:105a78009001780092018800000000000340a10016
:105a8800a2018000a101880003087800a201880013
:105a98006f016200930180009101880000000000fe
:105aa80010027800930188000000000003ff2f0017
:105ab8000302620004027100a2018000a1018800b3
:105ac80004087800a20188004f0578004f04be0042
:105ad800000006009201800091018800000000008b
:105ae8001002780092018800000000004322dd00c7
:105af8004522de008002eb00c222dd000400200007
:105b0800970180000001be00020378002200b00067
:105b180002036b004260af0002f0a0000683d200cf
:105b28000380b0000303780096018800000000009d
:105b3800120378009701880000000000f2ff20009f
:105b4800020363008003eb004639dd00ca31de0042
:105b5800830171004631dd00020272008382720007
:105b680093018000000178004000b0000001690046
:105b78004260af0000f0a0000281d2000180b000b6
:105b880001017800920188000000000010017800ef
:105b980093018800000000004a11de000281fb002a
:105ba8008001eb0002007200838072000000060092
:105bb8000164a800b05d240090208800100c20002b
:105bc80080208800000006007f406000ef4f5000f2
:105bd80008003600704050000080fb0011002000d3
:105be8000008dd000080ea002204b60010218800c9
:105bf800060037000080fb00110020000008dd00cf
:105c08000080ea002004b600002188000000060099
:105c18007f406000ef4f50000700360011218000e0
:105c2800704050000080fb00120020000010dd00d2
:105c38000140600005003700012180000080fb0062
:105c4800120020000010dd00014060000000060086
:105c58002024ef002224ef002824ef002a24ef005c
:105c68000000060067406000e34f50002f0032003c
:105c780004003e00e14f5000140032001f003e00b7
:105c880006003700e54f500040003200330039006d
:105c9800e64f500055003a0048003700e1806000a8
:105ca800c708dd00802180000070a100008070001e
:105cb8008021880063016100c0ff2f003004b60016
:105cc800000071008021880053003700cf08dd00f4
:105cd8008021800000f0a1000080700080218800f1
:105ce800630161004811dd00f0cf2f003004b600d9
:105cf800000071008021880047003700e1806000c3
:105d0800c708dd00902180000070a10000807000ad
:105d18009021880063016100c0ff2f003204b600a3
:105d280000007100902188003b003700cf08dd009b
:105d38009021800000f0a100008070009021880070
:105d4800630161004811dd00f0cf2f003204b60076
:105d580000007100902188002f003700e18060006a
:105d6800c708dd00a02180000070a100008070003d
:105d7800a021880063016100c0ff2f003404b60031
:105d880000007100a021880023003700cf08dd0043
:105d9800a021800000f0a10000807000a0218800f0
:105da800630161004811dd00f0cf2f003404b60014
:105db80000007100a021880017003700e180600012
:105dc800c708dd00b02180000070a10000807000cd
:105dd800b021880063016100c0ff2f003604b600bf
:105de80000007100b02188000b003700cf08dd00eb
:105df800b021800000f0a10000807000b021880070
:105e0800630161004811dd00f0cf2f003604b600b1
:105e180000007100b02188000000060067406000a3
:105e2800e34f50001100320004003e00e14f5000e3
:105e38000a0032000b003e0006003700e54f500014
:105e48000e0032000b003900e64f50000f003a00f8
:105e58000c0037003064a8000d0037003164a8003a
:105e68000b0037003264a800090037003364a8002b
:105e7800070037003464a800050037003564a8001f
:105e8800030037003664a800010037003764a80013
:105e98000000060067406000e34f50001700320022
:105ea80004003e00e14f50000c0032000f003e009d
:105eb80006003700e54f5000180032001300390083
:105ec800e64f50001d003a0018003700802180007e
:105ed8004300de00614060001b0037008021800025
:105ee8004b00de0061406000170037009021800001
:105ef8004300de00614060001300370090218000fd
:105f08004b00de00614060000f003700a0218000d8
:105f18004300de00614060000b003700a0218000d4
:105f28004b00de006140600007003700b0218000b0
:105f38004300de006140600003003700b0218000ac
:105f48004b00de006140600000000600889fbe0034
:105f58008a9fbe008c9fbe006f4060006f42620047
:105f6800e7c262000083fb00860443008984440082
:105f780007442000878444000985e800c333de0015
:105f88008783430088412000888343004234de0031
:105f9800080444000b4220000b0444000004a8003d
:105fa8000104e00008003200e38561000b30a00026
:105fb800421ede000d002000c560dd00818c7500ea
:105fc800020d7800030037004511dd00820c7800cf
:105fd800000deb0063416000210020008110dd000e
:105fe8008180fb00f20020000111dd000281ea003f
:105ff800180161000482fb008120dd00010c7100a2
:106008000000d0006e0060008580fb008008dd0085
:10601800320020000010dd000080ea001700600058
:10602800808b7000100020000600dd001424b700eb
:106038000004a9004f06be004f05be004f04be0075
:10604800000006004200dd00c03fb200054320000a
:10605800050040008082e8000004a8000104e00078
:106068000f003200421bde0007002000f17f2000f5
:1060780001036300e38061000404e00004003200cf
:106088000130a0004533dd000688700002003700ab
:106098004533dd0001087300820a78000b003700e1
:1060a800f17f2000010161000404e00004003200d7
:1060b8004511dd000230a000020878000200370018
:1060c8004511dd0002087800800aeb000004a900f1
:1060d800000006000165a800b05d24009028880033
:1060e800100c200080288800000006007f40600017
:1060f800ef4f500008003600704050000080fb0051
:10610800110020000008dd000080ea002205b6002a
:1061180010298800060037000080fb0011002000cd
:106128000008dd000080ea002005b600002988008c
:10613800000006007f406000ef4f50000700360067
:1061480011298000704050000080fb0012002000e0
:106158000010dd00014060000500370001298000c3
:106168000080fb00120020000010dd0001406000ec
:10617800000006002025ef002225ef002825ef006b
:106188002a25ef000000060067406000e34f50003a
:106198002f00320004003e00e14f5000140032008e
:1061a8001f003e0006003700e54f50004000320057
:1061b80033003900e64f500055003a0048003700d8
:1061c800e1806000c708dd00802980000070a10020
:1061d800008070008029880063016100c0ff2f00e3
:1061e8003005b60000007100802988005300370090
:1061f800cf08dd008029800000f0a1000080700039
:1062080080298800630161004811dd00f0cf2f006c
:106218003005b6000000710080298800470037006b
:10622800e1806000c708dd00902980000070a100af
:10623800008070009029880063016100c0ff2f0072
:106248003205b60000007100902988003b00370035
:10625800cf08dd009029800000f0a10000807000c8
:1062680090298800630161004811dd00f0cf2f00fc
:106278003205b60000007100902988002f00370011
:10628800e1806000c708dd00a02980000070a1003f
:1062980000807000a029880063016100c0ff2f0002
:1062a8003405b60000007100a029880023003700db
:1062b800cf08dd00a029800000f0a1000080700058
:1062c800a0298800630161004811dd00f0cf2f008c
:1062d8003405b60000007100a029880017003700b7
:1062e800e1806000c708dd00b02980000070a100cf
:1062f80000807000b029880063016100c0ff2f0092
:106308003605b60000007100b02988000b00370080
:10631800cf08dd00b029800000f0a10000807000e7
:10632800b0298800630161004811dd00f0cf2f001b
:106338003605b60000007100b0298800000006008c
:1063480067406000e34f50001100320004003e0037
:10635800e14f50000a0032000b003e0006003700f3
:10636800e54f50000e0032000b003900e64f500098
:106378000f003a000c0037003065a8000d00370008
:106388003165a8000b0037003265a8000900370006
:106398003365a800070037003465a80005003700fa
:1063a8003565a800030037003665a80001003700ee
:1063b8003765a8000000060067406000e34f500002
:1063c8001700320004003e00e14f50000c0032007c
:1063d8000f003e0006003700e54f5000180032005d
:1063e80013003900e64f50001d003a00180037002e
:1063f800802980004300de00614060001b003700f8
:10640800802980004b00de006140600017003700e3
:10641800902980004300de006140600013003700cf
:10642800902980004b00de00614060000f003700bb
:10643800a02980004300de00614060000b003700a7
:10644800a02980004b00de00614060000700370093
:10645800b02980004300de0061406000030037007f
:10646800b02980004b00de0061406000000006009b
:10647800889fbe008a9fbe008c9fbe006f40600050
:106488006f426200e7c262000083fb00860443009b
:106498008984440007542000878444000985e80063
:1064a800c333de008783430088512000888343007c
:1064b8004234de00080444000b5220000b04440060
:1064c8000005a8000104e00008003200e38561002f
:1064d8000b30a000421ede000d002000c560dd006c
:1064e800818c7500020d7800030037004511dd002e
:1064f800820c7800000deb00634160002100200051
:106508008110dd008180fb00f20020000111dd0018
:106518000281ea00180161000482fb008120dd008d
:10652800010c71000000d0006e0060008580fb0047
:106538008008dd00320020000010dd000080ea0045
:1065480017006000808b7000100020000600dd003e
:106558001425b7000005a9004f06be004f05be0070
:106568004f04be00000006004200dd00c03fb2003c
:1065780005532000050040008082e8000005a800bf
:106588000104e0000f003200421bde00070020007b
:10659800f17f200001036300e38061000404e00050
:1065a800040032000130a0004533dd000688700089
:1065b800020037004533dd0001087300820a7800c5
:1065c8000b003700f17f2000010161000404e000a6
:1065d800040032004511dd000230a00002087800f6
:1065e800020037004511dd0002087800800aeb0040
:1065f8000005a900000006000000210081cb210051
:10660800010878008000eb00110098002100980034
:1066180002042000320098008000210083cf21006e
:1066280003087800110098002100980032009800b3
:10663800fa160700000006000080fb004400de0098
:10664800e94f5000020036007043b00001003700e7
:106658000043b000000006006f406000e94f5000a2
:10666800020036007043b000010037000043b0005c
:1066780000000600881f7800000478002840900079
:106688000074a00020449800180178000200e0007f
:106698000400320031052000810f510027003a0024
:1066a8000c00370081417800b202210003497800cc
:1066b800118080008100e8006181880002042000c8
:1066c800828f500001003a002c30ef003105200085
:1066d800010c78000028a3000400320040c0b30079
:1066e8002044980030c0b300180037006181800052
:1066f80022808000810f5100030032000004a100b5
:1067080020449800020037000004a00020449800ac
:10671800284190000040eb000208a3000b003a005b
:106728000000210010814000b3022100934178004d
:1067380003497800110098008f16070080c0b30045
:1067480020449800000ceb0030c0b3004f047800e0
:1067580000000600889fbe0000047800814478008d
:10676800284090000074a000204498001800780089
:106778000000e00004003200a1062000810f500054
:106788003f003a001900370001c3b300c0d621000a
:106798000148780081c7b3000000e800014878008c
:1067a80009407800a4ff0700e1d62100804878005e
:1067b80009407800a8ff0700f1d62100804878003a
:1067c8000100e8000048eb002a70ef000210ec001e
:1067d8004081880001042000810f500001003a0028
:1067e8002830ef00a0062000000c78002840900018
:1067f8000028a3000400320040c0b30020449800e1
:1068080030c0b30022003700418180002280800020
:10681800810f5100030032000004a10020449800b9
:10682800020037000004a00020449800284190008e
:106838000040eb000208a30015003a000000210008
:1068480090814000a2022100124178000282fb00e0
:10685800c5d6210004824200944978000241e8002c
:1068680002427800a30221008449780011009800b0
:10687800411607002ad0bf00e34f5000d3ff36006f
:1068880080c0b30020449800000ceb0030c0b30077
:106898004f04be0000000600881f7800000478003e
:1068a800284090000074a000204498001800780048
:1068b8000000e0000400320041082000810f500071
:1068c80067003a00410037002670ef0030c6b30079
:1068d80080cf50000a0036000181fb004211de0023
:1068e800b04721000011b8000301d10070d6210083
:1068f80003c3b3000348410010c0b30026f0b7003b
:10690800e9cf50001400360026d0bf000081fb00fc
:1069180073d62100828141000181fb00c212de0092
:10692800b4472100042ab8008502d100440620009b
:1069380084aab900040151000281fb00d5cc2c00c7
:106948000512b8004329de0004c3b300844941009e
:106958000040e80026f0b7006202210012417800ea
:106968008281fb0070d62100830140008180fb00fa
:10697800d4cc2c00040ab800432ade00ea22b9006d
:106988008480500004c3b30084c940008240e800fa
:1069980062022100014978008180fb00010040006b
:1069a8000048eb002770ef002a0037000210ec00c7
:1069b8002081880001042000810f500001003a0066
:1069c8002430ef0040082000000c78002840900098
:1069d8000028a3000400320040c0b30020449800ff
:1069e80030c0b3002200370021818000248080005d
:1069f800810f5200030032000004a10020449800d7
:106a0800020037000004a0002044980028419000ac
:106a18000040eb000208a30015003a000000210026
:106a28009081400072022100124178000282fb002e
:106a380075d6210004824200944978000241e8009a
:106a480002427800730221008449780011009800fe
:106a5800c915070027d0bf002650e300d3ff3e002a
:106a680080c0b30020449800000ceb0030c0b30095
:106a78004f04780000000600889fbe008a9fbe0071
:106a88008c1f7800000678000204be002c4090009d
:106a98000074a000204698001c0078000000e00068
:106aa80004003200410a2000810f50005f003a00c4
:106ab8003900370001c3b300c0d521000148780070
:106ac80081c7b3000000e80001487800481dde00d7
:106ad8000b0020000a407800d7fe0700e1d521000e
:106ae800804878000a407800dbfe0700f1d52100d5
:106af80080487800404dde000b0020000a407800f6
:106b0800cdfe070001d62100804878000a407800b1
:106b1800d1fe070011d6210080487800c84dde005c
:106b28004848dd004845de000a0570000a40780044
:106b3800c1fe070021d62100804878000a4078006d
:106b4800c5fe070031d6210080487800084078004b
:106b5800b9fe070041d62100804878000840780037
:106b6800bdfe070051d62100804878000100e800ea
:106b78000048eb002270ef000210ec000081880052
:106b880001042000810f500001003a002030ef007e
:106b9800400a2000000e78002c4090000028a30036
:106ba8000400320040c0b3002046980030c0b30053
:106bb800220037000181800022808000810f51006f
:106bc800030032000004a1002046980002003700ac
:106bd8000004a000204698002c4190000040eb00e3
:106be8000208a30015003a0000002100908140002f
:106bf80022022100124178000282fb00c5d5210043
:106c080004824200944978000241e8000242780078
:106c180023022100844978001100980056150700c6
:106c280022d0bf00e94f5000d3ff360080c0b30028
:106c380020469800000eeb0030c0b3004f067800e5
:106c48004f05be004f04be0000000600881f7800f4
:106c580000047800284090000074a00020449800a8
:106c6800180078000000e00004003200910b2000ba
:106c7800810f500033003a000e003700824178003f
:106c8800c001210003487800d18088001d70ef0002
:106c98002a0037000210ec00f08088000104200070
:106ca800810f500001003a001e30ef00900b2000c9
:106cb800000c7800284090000028a300040032004f
:106cc80040c0b3002044980030c0b3002100370012
:106cd800f180800024808000810f52000300320080
:106ce8000004a10020449800020037000004a0001e
:106cf80020449800284190000040eb000208a300bf
:106d080014003a000200210012824000d301210041
:106d1800934178000380fb001a10b400104a7800f1
:106d28008341e80003427800d0012100044878003c
:106d380011019800101507001c70ed001c50e200ae
:106d4800d4ff3a0080c0b30020449800000ceb0048
:106d580030c0b3004f04780000000600a041900046
:106d68000374a00023409800900178000300e0001d
:106d780004003200d40c2000848f510034003a0003
:106d8800070037005301210082497800b18088004c
:106d98001870ef002a003700d30c20000308780091
:106da800a04190000328a3000400320041c0b300b2
:106db8002140980033c0b300290037008400210027
:106dc8009402900024029000848f52000300320045
:106dd8000304a10023409800020037000304a00028
:106de80023409800204290008041eb000408a30053
:106df8001b003a000c30ec00030420006580800082
:106e0800838f520001003a000c30ef00830121000b
:106e180093417800840021009402780024029000b5
:106e2800848242000382fb0004824000154a7800f5
:106e38008341e8008342780084012100054a7800f4
:106e4800830121009341780082cf5100d2ff39009d
:106e580081c0b300214098000008eb0033c0b300a4
:106e68000340780000000600204190000274a00052
:106e780022409800100178000200e000040032006f
:106e8800e30d2000830f51003a003a000300370059
:106e98001470ef00e20d20000208780020419000f5
:106ea8000228a3000400320041c0b300214098002a
:106eb80032c0b30033003700830021001302900072
:106ec800a3019000830f5200030032000204a100c6
:106ed80022409800020037000204a00022409800d7
:106ee800a04190000041eb000308a30025003a00f0
:106ef8000c30ec000204200063808000828f510077
:106f080001003a000c30ef00430121009341780062
:106f18008200210012027800220190000201420042
:106f2800124178000382fb0004824000024a780084
:106f3800ea4f51000a003200ed4f510008003200bc
:106f48000204e000060032008341e8004401210009
:106f5800034a7800e2c3b30082cf5100cdff360068
:106f680042012100124178000281fb00828040002a
:106f78008048eb0081c0b300214098000008eb0076
:106f880032c0b3000240780000000600881f780075
:106f980000047800284090000074a0002044980065
:106fa800180078000000e00004003200210f2000e3
:106fb800810f500029003a000a00370081808800bc
:106fc800230037000210ec009080880001042000a4
:106fd800810f500001003a001230ef00200f20000e
:106fe800000c7800284090000028a300040032001c
:106ff80040c0b3002044980030c0b3001b003700e5
:107008009180800022808000810f510003003200af
:107018000004a10020449800020037000004a000ea
:1070280020449800284190000040eb000208a3008b
:107038000e003a000200210092814000808080000a
:10704800b049780080808800110198004a14070030
:10705800808080001004e000daff3a0080c0b300ae
:1070680020449800000ceb0030c0b3004f047800b7
:1070780000000600804178000210ec0001042000a6
:10708800810f500001003a000000eb000410e300fb
:10709800feff320001002100110140000349780081
:1070a800900098003414070000000600889fbe0076
:1070b8008a1f7800904078000104e0001100320037
:1070c80000047800090420000005eb000210ec0021
:1070d800890f500001003a000a0078000410e3000c
:1070e800feff320002002100920140008149780031
:1070f8001001980020140700d84078000104e0002f
:10710800f2ff3a004f0578004f04be000000060069
:10711800800021009000900020009000808f500097
:10712800fbff32000c30ec00000420000c10e300e0
:1071380001003a000c30ef00800021009000780038
:1071480020009000008040001040780000000600f9
:107158008000780023042100934178000000eb00b0
:10716800efcf510058003e0065c28000818f520069
:1071780014003200e48521000043eb00064078004b
:107188000641780017c0b300040037009402780065
:1071980072024200818f52000c0032000604e000a7
:1071a80004003a000500e00002003a0002407800be
:1071b800074378000241e800f04f5100f3ff3a001e
:1071c800420037000040eb00004178008280fb005d
:1071d80084842100f20bb900860342008002eb0090
:1071e800850b78008483e80086834300854b78000c
:1071f80006034200060b900016037800250398004a
:107208008382fb008696210085024300824a78002b
:107218008341e80083427800220421000549780070
:107228000080fb00f201b9000202420074019000e4
:107238000200e00007003a00228280000201e80014
:1072480022828800f200b900638521000300400013
:1072580002087800f209b90080842100000041008a
:10726800190037008484210022c1b3000440bc0007
:1072780082024200a10298008000eb00810a780097
:107288000483e80002034300014b780005099000dd
:1072980012017800210198008380fb00829621006a
:1072a80081004100804878008341e80083407800ed
:1072b80020042100014878004410ec002082880056
:1072c800f002980005007800000006000604e000bf
:1072d800e4ff3a000000eb00fbff370000037800f2
:1072e80024042100144278000040eb000404e0006c
:1072f80018003200739621008000eb00878421007b
:107308005340780000c1e800e14f51000d003600fd
:1073180022c1b3000440bc0002804300200090005a
:10732800860f500007003a00809621008102400035
:10733800e0cfb300804a78004010a80010c0b30026
:10734800040037008100e800814f5200ecff3e0046
:107358000040eb000000060000037800250421002f
:10736800954278000000eb000504e00011003200af
:10737800739621008040eb008484210053407800fc
:1073880000c1e800e14f51000600360022c1b300f9
:107398000440bc000400410020019000860f510009
:1073a800040032008140e80085cf5000f3ff390027
:1073b8000000eb000000060000037800250421000f
:1073c800954278000000eb000504e000110032004f
:1073d800739621008040eb0084842100534078009c
:1073e80000c1e800e14f51000600360022c1b30099
:1073f8000440bc000400410070019000860f510059
:10740800040032008140e80085cf5000f3ff3900c6
:107418000000eb0000000600c0cb80000000e00088
:1074280005003200a1982100100020001100e000a2
:1074380006003a00010037000000eb00f200b90036
:107448008197210001004000050037000000e80096
:10745800f2804000f00f5000f4ff3a000000eb000b
:107468000000060050828800618288000000060043
:10747800508280006182800092e52b00828ab900e8
:10748800661a24008683b900060242000201b80089
:1074980083014200400ade0005002000711a240022
:1074a80081abb9000120b80081004300cf0ade009b
:1074b800410bdd004f02de000402730004014100ad
:1074c8008581490000f0a1008000eb00c002dd00ca
:1074d800040020000200420083804a0004003b00b0
:1074e80012002000030028000000410081804900ac
:1074f800508288006182880000000600889fbe00d4
:107508008100400052dc2900c3112800810f50007f
:1075180020003100c812dd000400200002044100f0
:1075280083844900441bdd00cc13de00870373000d
:107538004413dd000804430089844b00080441001b
:1075480089844900471bdd00c913de0087037300e7
:107558004713dd000804430089844b00481bdd0005
:10756800c813de00870373004813dd0008014300d9
:1075780089814b000201420083814a003082fb006e
:107588008002eb000401690085816900808f50004a
:10759800e0ff3e0002816900020078004f04be004f
:1075a8000000060081004000810f500026003100d5
:1075b800d2838000e3838000020341008383490073
:1075c800441add00cc12de00850272004412dd0090
:1075d8000602420087824a0004024100858249006f
:1075e800471bdd00c913de00870373004713dd0066
:1075f8000402430085824b00481bdd00c813de00ef
:10760800870373004813dd000402430085824b00a2
:10761800c811dd00020020000401410085814900f5
:10762800d2838800e38388003082fb008002eb006d
:107638000401690085816900d2838800e38388009a
:10764800808f5000daff3e00d0838000e183800005
:10765800000006001004e00026003200d2838000fb
:10766800e38380000203410083834900441add005c
:10767800cc12de00850272004412dd0006024200d0
:1076880087824a000402410085824900471bdd00c9
:10769800c913de00870373004713dd0004024300ab
:1076a80085824b00481bdd00c813de00870373008a
:1076b8004813dd000402430085824b00c811dd0039
:1076c800020020000401410085814900d28388001e
:1076d800e38388001082fb008002eb00040169004c
:1076e80085816900d2838800e38388005004e00024
:1076f800daff3a00d0838000e183800000000600b2
:10770800008068000000060000c1b3000000060009
:10771800889fbe008a9fbe000004be000205be000e
:10772800521307000801500089815800880f500043
:10773800898f58000200310061015100e081590031
:10774800100020008a0f51008b8f590001003e0065
:107758000000eb004f05be004f04be00000006000d
:10776800889fbe008a9fbe00690421009944780062
:107778000904e000210032000044eb001b00200057
:107788008aa921000880fb008058dd004282800021
:107798008100610015003200ea02b900e6004200eb
:1077a800810045000083eb008083eb00310143003a
:1077b800a1814b0004024500320298004302980060
:1077c800e00f5100e08f590007003a00840078006c
:1077d80011019000a1019000b2009800c300980028
:1077e80011007800000001008944e9000904e00064
:1077f800020032000844e800e2ff37004f05be00ef
:107808004f04be0000000600889fbe008a9fbe008d
:107818000205be00690421009944780080c2eb008b
:10782800efcf540021003e00468280000608a300e6
:10783800090032008000eb00170020008142e800b8
:107848008100e800010478008139dd0006826100ca
:1078580013003a0003003700130020000004eb0077
:107868008042eb00ea44b90081a921000884400065
:1078780088007800801878008a88be003a0498004a
:107888004b0498008944e80089407800600421008e
:10789800014878000303730046828800030037001c
:1078a800ef8f5000e5ff3a0080c2eb0005407800fa
:1078b8004f05be004f04be00000006008081fb009b
:1078c800120020000311dd004182800001026100e6
:1078d8000040eb0009003200ea18b90083a9210032
:1078e800808141008009eb004670ed000281ea00ca
:1078f800010061004082880010c0b300000006004b
:1079080000037800630421009341780000c0eb0075
:107918000304e00012003200458280000040eb00c2
:107928001400200087a921008080fb000121dd00d0
:107938000501610005003200ea09b90082804300b0
:10794800910f1300060032008341e9000304e000b0
:10795800020032000040e800f3ff370000c0eb00ef
:10796800000006000202be008080fb001300200019
:107978008119dd0040828000830160000040eb0037
