:020000040000fa
:080000000013040000000000e1
:020000040000fa
:1000080002100000061000000a1000000e10000088
:1000180012100000161000001a1000001e10000038
:1000280022100000261000002a1000002e100000e8
:1000380032100000361000003a1000003e10000098
:1000480042100000461000004a1000004e10000048
:1000580052100000561000005a1000005e100000f8
:1000680062100000661000006a1000006e100000a8
:1000780072100000761000007a1000007e10000058
:1000880082100000861000008a1000008e10000008
:1000980092100000961000009a1000009e100000b8
:1000a800a2100000a6100000aa100000ae10000068
:1000b800b2100000b6100000ba100000be10000018
:1000c800c2100000c6100000ca100000ce100000c8
:1000d800d2100000d6100000da100000de10000078
:1000e800e2100000e6100000ea100000ee10000028
:1000f800f2100000f6100000fa100000fe100000d8
:1001080002110000061100000a1100000e11000083
:1001180012110000161100001a1100001e11000033
:1001280022110000261100002a1100002e110000e3
:1001380032110000361100003a1100003e11000093
:1001480042110000461100004a1100004e11000043
:1001580052110000561100005a1100005e110000f3
:1001680062110000661100006a1100006e110000a3
:1001780072110000761100007a1100007e11000053
:1001880082110000861100008a1100008e11000003
:1001980092110000961100009a1100009e110000b3
:1001a800a2110000a6110000aa110000ae11000063
:1001b800b2110000b6110000ba110000be11000013
:1001c800c2110000c6110000ca110000ce110000c3
:1001d800d2110000d6110000da110000de11000073
:1001e800e2110000e6110000ea110000ee11000023
:1001f800f2110000f6110000fa110000fe110000d3
:1002080002120000061200000a1200000e1200007e
:1002180012120000161200001a1200001e1200002e
:1002280022120000261200002a1200002e120000de
:1002380032120000361200003a1200003e1200008e
:1002480042120000461200004a1200004e1200003e
:1002580052120000561200005a1200005e120000ee
:020000040000fa
:102000000200000016140400000000001614040072
:102010000000000016140400000000001614040064
:102020000000000016140400000000001614040054
:102030000000000016140400000000001614040044
:102040000000000016140400000000001614040034
:1020500000000000161404000000000094140400a6
:102060000000000016140400000000001614040014
:102070000000000016140400000000001614040004
:1020800000000000161404000000000016140400f4
:102090000000000016140400000000007214040088
:1020a00000000000461404000000000016140400a4
:1020b00000000000161404000000000016140400c4
:1020c00000000000161404000000000016140400b4
:1020d00000000000161404000000000016140400a4
:1020e0000000000016140400000000001614040094
:1020f0000000000016140400000000001614040084
:102100000000000016140400000000001614040073
:102110000000000016140400000000001614040063
:102120000000000016140400000000001614040053
:102130000000000016140400000000001614040043
:102140000000000016140400000000001614040033
:102150000000000016140400000000001614040023
:102160000000000016140400000000001614040013
:102170000000000016140400000000001614040003
:1021800000000000161404000000000016140400f3
:1021900000000000161404000000000016140400e3
:1021a00000000000161404000000000016140400d3
:1021b00000000000161404000000000016140400c3
:1021c00000000000161404000000000016140400b3
:1021d00000000000161404000000000016140400a3
:1021e0000000000016140400000000001614040093
:1021f0000000000016140400000000001614040083
:102200000000000016140400000000001614040072
:102210000000000016140400000000001614040062
:102220000000000016140400000000001614040052
:102230000000000016140400000000001614040042
:102240000000000016140400000000001614040032
:102250000000000016140400000000001614040022
:102260000000000016140400000000001614040012
:102270000000000016140400000000001614040002
:1022800000000000161404000000000016140400f2
:1022900000000000161404000000000016140400e2
:1022a00000000000161404000000000016140400d2
:1022b00000000000161404000000000016140400c2
:1022c00000000000161404000000000016140400b2
:1022d00000000000161404000000000016140400a2
:1022e0000000000016140400000000001614040092
:1022f0000000000016140400000000001614040082
:102300000000000016140400000000001614040071
:102310000000000016140400000000001614040061
:102320000000000016140400000000001614040051
:102330000000000016140400000000001614040041
:102340000000000016140400000000001614040031
:102350000000000016140400000000001614040021
:102360000000000016140400000000001614040011
:102370000000000016140400000000001614040001
:1023800000000000161404000000000016140400f1
:1023900000000000161404000000000016140400e1
:1023a00000000000161404000000000016140400d1
:1023b00000000000161404000000000016140400c1
:1023c00000000000161404000000000016140400b1
:1023d00000000000161404000000000016140400a1
:1023e0000000000016140400000000001614040091
:1023f0000000000016140400000000001614040081
:102400000000000016140400000000001614040070
:102410000000000016140400000000001614040060
:102420000000000016140400000000001614040050
:102430000000000016140400000000001614040040
:102440000000000016140400000000001614040030
:102450000000000016140400000000001614040020
:102460000000000016140400000000001614040010
:102470000000000016140400000000001614040000
:1024800000000000161404000000000016140400f0
:1024900000000000161404000000000016140400e0
:1024a00000000000161404000000000016140400d0
:1024b00000000000161404000000000016140400c0
:0424c0000000000018
:020000040000fa
:102600008fe821000eff27000e0188000000000067
:10261000000020000000e000020032000001200065
:102620002002880014000700470107000000e000b6
:1026300003003a00c04925000100200002003700d5
:102640000000200001002000810f70000100320016
:102650000f000700000020000000e0000200320030
:1026600000000200000000007243020000000000b1
:102670000040da000000fe00407320000000e0008f
:1026800002003200002020009001880000000600b7
:10269000a1028800800478000000eb001f003700d2
:1026a000e284440054a0b4009905ba00e2844400d6
:1026b00054a0b4009906ba00e284440054a0b400c7
:1026c0000006eb00476fde00fd07b200ae01880098
:1026d000636ce10003003a000ad801000000eb003f
:1026e0000e003700606ce10008003a00004deb007e
:1026f0000a05e800020039003420ec000af0a000ce
:102700008b05e900f9ff3e00040037006168e10035
:10271000010032000086eb000b00070019c7ba0069
:102720000e04e0001905ba0003003a000a00e000b8
:10273000dbff3a0000000600fe07b200ae02880090
:102740008a047800f5ff37000cd0a300e20f4d009b
:102750001c00390089027800354dba000a05e800ee
:10276000020039003420ec000af0a0008b05e900db
:102770000f003200254dba000a05e80002003900ba
:102780003420ec000af0a0008b05e90008003200bc
:102790000c00e0000600320015cdba000a05e80082
:1027a000020039003420ec000af0a0008b05e9009b
:1027b0008984e80054a0b4000b00e000e2ff3a0076
:1027c000000006009902ba00055d78008b05e9005b
:1027d000f7ff3200c82ade00055d78008b05e900ae
:1027e000f3ff32000c00e000f1ff320019ddba0007
:1027f000eeff37000444040000000000ae44040073
:1028000000000000cc46040000000000f243040079
:10281000000000009818040000000000c21a040024
:102820000000000000000400000000003600f80076
:10283000809fbe00829fbe00849fbe00869fbe0018
:102840003200f8003400f80010002000a0018800d9
:10285000002020009001880000000000c808f80057
:102860007010f90000202b00221d07003400f90031
:102870003200f9004f03be004f02be004f01be0000
:102880004f00be003600f90000400600809fbe00e9
:10289000000021009000900020009000808f5000e8
:1028a00002003a002188a9000c0037000430ec0037
:1028b000000420000410e30001003a000430ef009f
:1028c0000188a900000021009000780020009000fd
:1028d000008040001080fb00201188004f00be00e7
:1028e00000400600809fbe00821f78000168a9009a
:1028f000311180000a30ec00000420000a10e300cf
:1029000001003a000a30ef00800021001001780039
:102910001000900000004100014878004f0178004d
:102920004f00be00004006003600f800809fbe0049
:10293000829fbe00849fbe00869fbe0010838000e1
:102940002183800061004000e080480010838800ff
:10295000218388000068a9009d1607004f03be0070
:102960004f02be004f01be004f00be003600f9000e
:10297000004006000a00fa0011002000b1bf9f00cd
:10298000c0bf9f006a805700e10a07004fb8970058
:102990000080fa00000006000a00fa00e20f500072
:1029a00034003e00d0f08000e10f50000300320000
:1029b000e20f500011003a000c0037000322200003
:1029c0000300e00001003a000040da002002e200cb
:1029d000020035002822ef0021e2a8002342ab00cc
:1029e0000d003a002342a8000b003700032320000b
:1029f0000300e00001003a000040da003002e2008b
:102a0000020035003822ef0031e2a8003342ab006b
:102a100001003a003342a800820178000b00370021
:102a20003102fb00e10f500004003a002322ab000a
:102a3000feff3a0024118800030037003322ab0068
:102a4000feff3a00a41188008301e9000300e000c2
:102a5000f3ff3a00e10f500003003a002302ab00fd
:102a6000feff32000b0037003302ab00feff3200e6
:102a70000800370033002000b3bf9f00c0bf9f0095
:102a8000d1bf9f00e2bf9f006a805700a20a0700e3
:102a90006fb99700020078000080fa00000006007d
:102aa0000a00fa0051002000b1bf9f00c0bf9f0084
:102ab0006a8057009a0a07005fb897000080fa0002
:102ac00000000600889fbe008004780010f180009e
:102ad0000000e00004003a000e0007000084eb0054
:102ae0000000e0000800350018f180000900e00057
:102af0000500320009004400060007000000e00065
:102b000001003d000084eb00080078004f04be0087
:102b100000000600800078000100e00003003a0099
:102b200040e2210010f18800000005000080eb0069
:102b300082e82100828f500002003e0011f18800df
:102b40000000eb00000006000000050003f0a200fa
:102b5000889fbe008a9fbe008c1f7800c4000700bb
:102b6000cb0033006450e1004f0032006420e100ec
:102b70005200320003826c0007003b000905d000c0
:102b80000306d000820f54000c065d0002003900dd
:102b90000200320089017800030678008582550022
:102ba00004003d000003fd008103fd008502ea00f2
:102bb0008b854200840f720002003b006000100011
:102bc000e08018006011b8000005eb007a28e100f1
:102bd0000a00390006007800c75ddd00f707b20083
:102be000878075002d003700828171000a0178000e
:102bf000610560008180d1000080d3008502e9007a
:102c0000f9ff3b00060440008784480002003b00b7
:102c100060041400e0841c000988a300070032004f
:102c20008a81710082817100610164008904d10090
:102c30000884d3008b05e800170037000978a3004b
:102c400013003a000b00e000130034008b05e9008c
:102c50000804440089844c000a4474000978a300e5
:102c60000d003a000b00e000070034008b05e9007e
:102c70000804440089844c0001003a000b00200045
:102c80000978a300f7ff32000001eb0002003700d3
:102c9000828171000a0178004f0007000cf0a70044
:102ca00001f0a000830037006420e10002003a0038
:102cb000838f6c00830033000801be000200be0059
:102cc0007c003700889fbe008a9fbe008c1f780062
:102cd000670007006e00330003866c006450e1005b
:102ce0002e0032006420e100330032006150e10028
:102cf0002f0032006120e10031003200858555004f
:102d0000eb07b00009002000080420000500370090
:102d10000804440089844c000a0031000603430083
:102d200087834b000001530081815b00f8ff330073
:102d30000203be000800a0000804440089844c007f
:102d4000f6ff3900c639dd0083017300010032004f
:102d5000130020008904d1000884d3000998a3003f
:102d6000050032000800a7000300a0008904d1007c
:102d70000884d3008b05e8008904d1000884d300bf
:102d80000001eb000281d2001300070001f0a10056
:102d90000cf0a70001f0a000460037006420e1001d
:102da000480032000801be000200be00f7ff3700f5
:102db0006120e100430032006000b800f3ff3700fb
:102dc0000000200001f82700f0ff37004f89de00e7
:102dd0008201780082003700810020006180550068
:102de0000b003d000b00200061fe2f000100e10000
:102df0001d00340082817100610164008904d100ea
:102e00000884d3000000e800faff3a0071002000b7
:102e100061006400030070000200600009003200dd
:102e200061044400e0844c000988a50005003200dc
:102e30008b05e8006808e10002003a008904d1002f
:102e40000884d300f20f20000258e10005003d0085
:102e5000c75ddd00f907b2008980750008007800c1
:102e6000000006000bf827008b007800000005002a
:102e70000004be00990007000003be000405be0068
:102e80000200be0095000700844f75000000060098
:102e90000200be006450e100050036006420e1003d
:102ea000020036000968a30001003a000800be00d5
:102eb0000160a0004f0678004f05be004f04be0021
:102ec00000000600f0ff2f00f1ff2700f9ff370098
:102ed000889fbe008a9fbe008c1f7800e4ff070019
:102ee000ebff330003866c006450e10024003200e5
:102ef0006420e100270032006150e100220032002e
:102f00006120e100210032008b854200eb07b10017
:102f10000134b800003ab8000804420089844a002d
:102f2000013ab8000030b8008880400009014a002a
:102f30000400330000004000818048000201490085
:102f40008b05e900c909dd00830170000100320032
:102f500013002000c814de004814dd004709de001d
:102f60001200b200c808de00088470009aff070053
:102f700001f0a1000cf0a70001f0a000cdff370088
:102f80006120e100cfff32000801be000200be0058
:102f9000f7ff37006150e100fcff3a00c9ff37003e
:102fa0006022b800060220000000d0008180d2001c
:102fb0000482d2008582d2000000a00002025200ea
:102fc00083825a00030031000202420083824a00d9
:102fd0000000a1000603e900f3ff3a00000006002c
:102fe000881f7800030478000300e00007003d001c
:102ff00060001000e080180060011900e0811900f5
:1030000002003b0001f02d00030037000400070020
:1030100008f0a70001f0a0004f04780000000600af
:10302000889fbe008a9fbe0000827000040271006b
:1030300004827100260032000004be000200be00bf
:103040006011b8006b092000950220000182cf00ba
:103050000a0039000541b1000082cf0007003900a5
:103060000541b1000982cf00040039000541b100db
:103070000882cf00010039000541b100054252002d
:10308000120032000a003b0082817100610164007d
:103090008100d1000080d3008984d3000884d3004c
:1030a0008b05e8000442e800f7ff3a00070037000c
:1030b0000804440089844c000000480081804800d6
:1030c0008b05e9000442e900f9ff3a0042ff0700de
:1030d0004f05be004f04be0000000600c70ade0018
:1030e000f107b200f50fb20008003200e1cf420054
:1030f000020032000170a00024000500810f700062
:10310000010032000408050044000500810f700032
:1031100002003a00140005008502e90000004000aa
:1031200081c04800fcff3b000170a00024000500a6
:10313000889fbe00000478000100780082047800b7
:103140008801780009017800110020000e000700b6
:10315000890f5000010032000004eb0008007800e5
:103160004f04be00000006000000fa00e88157008e
:103170004fb9970061c82100808921005a010700da
:103180000080fa0000000600889fbe008a9fbe00f3
:103190008c9fbe008e1f7800000678000104780026
:1031a00002007800830478008881b9000207780063
:1031b0000e00e000420032000800e0004100320052
:1031c0008e057800c900900069009000808f500043
:1031d0000400390009007800500007000000e000fa
:1031e0002900350000402000190060000a0032006c
:1031f0000b017800a10020000c00780036000700c9
:10320000800678000d00e00006003200610516001f
:103210000a854600040037000b0578008006eb00a5
:10322000010037000b05780049009000e90090008c
:10323000808050008a8f5000020031000105780024
:103240008006eb000a0178008c0078002c00070053
:103250008a855500490090000a004000c00498008b
:103260000d00e0000400320009007800d6000700dd
:103270000000e00004003a000b00e0000200320011
:103280000a064600cfff37000080200019006000ca
:103290000200320009007800cb00070000c02000c7
:1032a000190060000200320049009000e00498001c
:1032b0008b055700110009008885d80001003700f0
:1032c0000000eb004f0778004f06be004f05be0020
:1032d0004f04be000000060003003700b0cf10000e
:1032e000050032000201e900800178000200e000e0
:1032f000faff3a0000000500030078000000060015
:103300008001780002003700b15978000201e9001d
:103310000200e000fcff3a0000000600889fbe00ab
:103320008a1f780000047800c800900068019000af
:103330000000eb00828f50003c003900180078003c
:103340002200290002016000e20f51000700320054
:10335000012024000000e00001003d0001202000c9
:10336000008c70000080eb00300037000200260067
:1033700002006000820f500009003a0038009000ff
:10338000808f500006003900080078008e0007008a
:10339000800078000080eb000100e00023003a008c
:1033a0001805780000c020000000650018003a00f1
:1033b000a80490006002200008004000808f5400a4
:1033c00013003a0000202000a00507002004980008
:1033d0000000e00005003a00290498004904980024
:1033e0008904e80039049800080037000a60a0004a
:1033f0000a0c7800400498000120200080804000e2
:1034000031049800400c9800500c98000c00070004
:103410002800900050049800380090006004980044
:1034200000002600180c70000000eb004f0578002b
:103430004f04be000000060020ac21009d003700b4
:10344000881f7800c8e121001804e00003003a005a
:10345000f9ff070020c0b300004c78004f0478004b
:1034600000000600889fbe00000478000800780075
:103470005500070080047800000420001800600058
:103480000200320028009000f60407000000eb0064
:1034900020049800384090000004e000050035004a
:1034a0000000fb0033fd07000000e00001003200d7
:1034b0008084eb00181090000000e000080032004b
:1034c00077fd07000000e000010032008084eb007f
:1034d00018109000e30407000000eb00101498009f
:1034e0000008200018006000150032000001eb0009
:1034f0006000b8000202d00063cd21000302420048
:10350000940f140005003a0000004000818048003c
:10351000008041000008eb00060037006100400019
:10352000e08048000201e800e80f5000e08f5800fa
:10353000f0ff3a0008007800ca0407000e003700c8
:10354000000c780000c0eb003044980060022000be
:10355000080040002004980040049800500498009f
:10356000400c980060049800500c9800700498007b
:1035700076004400000c9800090078004f04be005b
:1035800000000600881f78000004eb006140b800ce
:10359000e2ff2f00f3ff2f006409070042ce210055
:1035a00080004100110078000000e00001003200be
:1035b000acff07000804e800e80f5400f3ff3a00ee
:1035c0004f04780000000600889fbe0000047800c9
:1035d0000800e0000f003a008004eb008800d000f3
:1035e00060cd210000804000100078000000e00065
:1035f00004003200f4ff07000000e00001003d007d
:103600008084eb000804e800e80f5400f3ff3a0060
:103610002500370000002200180060008004eb0045
:1036200021003200a80490000f003700090151006a
:10363000384090000000fb0089007800d6fc0700ad
:103640000000e00007003c002800900040049800c3
:1036500060049800500c98001890a0008084eb0043
:10366000110037008084440048019000828f54008c
:10367000eeff390028009000400498009800780080
:1036800002c020000281600001003a003800900072
:1036900001e8a30002003200600498000100370036
:1036a000500c98008004eb00090078004f04be0025
:1036b00000000600010020000100e00009003200c7
:1036c000010080000100e000060032008100e900f6
:1036d000010088008100d00002008000828040004c
:1036e00080087800000006006200fa00889fbe0093
:1036f0008a1f7800000578008104780002047800b1
:103700008300780080f92f000f0040003207070087
:103710009a979f00a9979f000000eb00b09f9f0021
:103720001885fb008a04fb000a05ea004f55de00fd
:1037300050022000808f54000d003200e10f550030
:103740000b003a000a017800880078002f9097005b
:103750009f91970003000100a0979f000000e000e8
:103760008e0032003f9897000000e800b09f9f0055
:103770000a04440050022000808f540004003200ec
:103780000900e000e6ff3a003f9897008400370008
:103790000000eb00909f9f00809f9f00f0979f008c
:1037a000e0979f00d0979f00c0979f0007003700c9
:1037b00081de21000100500000004000c1dd210039
:1037c000808040005f98970011007000d09f9f009c
:1037d0008804780009047800384578008a00fb00e6
:1037e00080de2100c30407000000e000f0ff3a0083
:1037f000a1c2b300814f55000e003a00cf88970058
:103800000180e900c08f9f0010007800c09f9f00da
:103810000000e00005003d000000ea00c09f9f009e
:103820005f9897000020a000d09f9f000904e80047
:103830000f003700c09f9f000000eb00050037001d
:10384000f2ff2700820f500002003200ea00b900a8
:10385000008040000904780088047800b900fb006b
:103860000103b100e98f5000f5ff3600c09f9f00b3
:10387000e0c2b300984f1000020032000080eb005d
:1038800019003700a0c2b300d84f100007003a005b
:10389000cf8897000180e900c08f9f00100078005a
:1038a000a09f9f000804e800100037000000eb0014
:1038b000a09f9f008800780005003700f3ff2700d5
:1038c000830f500002003200ea00b90000004100fe
:1038d00001047800880078003101fb000203b10088
:1038e000e90f5100f5ff3600a09f9f009844780033
:1038f0008900fb0040dd21007e0407000000e0009d
:10390000020032000804e800010037008044eb00a8
:10391000c97f9f0080c6b30080cf540004003a00e6
:1039200098cf14000a003a006640500006003700a5
:10393000c0c6b30080cf540005003a0098cf1400f1
:1039400003003a0065404000c07f9f000804e80083
:103950001801fb00e3fb2f008f81410081f92f004c
:103960008f804000a0f92f000f00400010000700da
:103970000000e00009003a00e1fb2f008f804000ca
:10398000a0f92f000f004000d70507000000e0005d
:10399000020035000804e80061ff37000080eb00fa
:1039a0004f0578004f04be000080fa0000000600ba
:1039b000889fbe008a1f7800000478008244780047
:1039c0000305780070c6b30080cf54001a003c0095
:1039d00000c0e90080cf5400de003d006d40500083
:1039e00080cf5400810032000b003c007140500039
:1039f00080cf54004c013c0000c0e90080cf54004f
:103a0000d4003d0050c2b30080cf540043013200c7
:103a10007c4040000500370030c6b30080cf540022
:103a20001a0032001f003c0000c0e90080cf5400a3
:103a30003d013a00c7003700f0c6b30080cf540004
:103a40006a00320007003c006640500080cf5400fe
:103a5000140032006540400080cf540032013a002b
:103a6000eb00370050c7b30080cf54005f00320036
:103a70006340400080cf54005c00320002c7b300b6
:103a800082cf540028013a00160137001181e90065
:103a9000820878007800900000054500124d7800fb
:103aa0002701370028609000c2c6b300824f500043
:103ab00008003a0011017800640051008008780085
:103ac00090009000100078004f89de00820178009d
:103ad0001600370012c7b300824f500003003a00af
:103ae000110278006800520005003700a2c6b3003a
:103af000824f500008003a0091027800688052001e
:103b0000800878009000900020019000b0019000a3
:103b100010007800050037001180e9008008780067
:103b200010007800cf80de006109b900009cbe0063
:103b30000294be002862900085c6b300854f5200f3
:103b40000d00320025c6b300854f520004003a0034
:103b50000000fb00cf80de006109b90008003700db
:103b600045c7b300854f520003003200e6c2420051
:103b7000854f520004003a00cf80de006109b90091
:103b8000009cbe000294be001802780098029000cb
:103b900028039000b803900078009000e00f5200d6
:103ba000e08f5a00e00f5b00e08f5b0003003d00f8
:103bb00080004500d2c2b3000a0037008810900090
:103bc0000118a3000300320080004500b2c2b30018
:103bd000040037000108a3005900320080004500ae
:103be00002c2b3008248780053003700286090007a
:103bf000c2c6b300824f500009003a00110378009a
:103c00006400530080087800100278009002900051
:103c10006033b8000400be000601be001600370085
:103c200012c7b300824f500003003a00910278009f
:103c30006880520005003700a2c6b300824f5000d2
:103c400008003a00110378006800530080087800eb
:103c50009000900020019000b001900010007800ca
:103c6000050037001180e900800878001000780016
:103c70008000eb006011b800009cbe000294be0002
:103c80002862900085c6b300854f52000d003200b7
:103c900025c6b300854f520004003a000080fb00a7
:103ca0008000eb006011b8000800370045c7b30082
:103cb000854f520003003200e6c24200854f520099
:103cc00004003a008000eb006011b800009cbe00c8
:103cd0000294be00081090000038a30018003200c3
:103ce000180078009800900028019000b80190001a
:103cf000e00f5000e08f5800e00f5900e08f5900ae
:103d00000f00320080c7b30080cf540003003200a0
:103d100080c5b30080cf540009003a0078009000bd
:103d20008000450002c3b300824878000000e8002c
:103d300080004500894878000000e8007004980081
:103d400078009000000545006a04980089407800da
:103d50006f00370028619000c0c4b300804f51004d
:103d600008003a00910378006880530080087800ca
:103d70009000900020019000b001900010007800a9
:103d800006003700110178006400510080087800b7
:103d900090009000100078009b060700009cbe0079
:103da0000294be00b8009000780090000100e0008e
:103db00003003d0080004500d2c2b3000a00370076
:103dc000881090000118a300030032008000450015
:103dd000b2c2b300040037000108a300050032009e
:103de0008000450002c2b300824878000000e8006d
:103df0007004980078009000000545006a0498005f
:103e00008900fb0008007800530007004e003700cf
:103e100028619000c3c6b3001180e900834f5100b0
:103e2000240032000a003c00e4c15100834f5100dd
:103e30002700320083c1e800834f51001500320093
:103e400020c6b300804f510020003a000a0037001e
:103e500043c7b300834f51001d003200e6c141004b
:103e6000834f51001a00320010c7b300804f510039
:103e700016003a00060037001180e900800878003b
:103e800010007800485c9000084878002e00370049
:103e90001180e9008008780010007800680a90001e
:103ea000cfa2de00612bb9000498be000690be00d0
:103eb000250037008008780010007800680990001d
:103ec000cf91de000288be001f0037001180e9009c
:103ed0008008780010007800680c900008087800ce
:103ee000190037001181e900820878001202780079
:103ef000cfa2de00612bb900049cbe000694be0078
:103f0000f8009000010545006a04980080407800a0
:103f100008007800370307000b0037007800900096
:103f200000054500050037007800900000054500b9
:103f30000904e00001003a0059c2b300094d7800bd
:103f40000000e800700498000000eb004f057800c6
:103f50004f04be00000006002f04b000889fbe0082
:103f60008a9fbe008c9fbe008e1f780000077800dd
:103f700081f79f001e0478009e0490002e0590009b
:103f8000be0590005e0890000000e00002003d00c9
:103f900060002000500f98008e00780020fb2f005a
:103fa0000f004000e9020700e20f50000a003a004b
:103fb00030002000100f9800b1c9b3000ff0970037
:103fc00081404000a0ce2100e1cf50000d003e0016
:103fd00060ce21000b0037000000e0000f0034002d
:103fe00030002000100f9800b1c9b3000ff1970006
:103ff0008140410020cf2100e1cf500001003e0070
:10400000e0ce2100ee009000b0487800b068780063
:104010001040780090409800f70037000000e00062
:1040200005003a0022fb2f000f0141000019780023
:104030008001eb00eb0037006022b8006033b8006d
:104040000800be000a01be00370507000000e000be
:1040500001003d000bf0a200705927009f989700c7
:104060000088b900026a28001300200092050700aa
:10407000640650009c9f9f0015003b0063061600dd
:10408000c0ff2f00000666008c01ea00939f9f008e
:104090006dcf21000800be000a01be0009003700f4
:1040a0000c08a300050032001d0278009d0290005c
:1040b0002d039000bd039000210607000c86d1005f
:1040c000e88646000c00e000f5ff3c001a003700cf
:1040d0000c00e0001a003200c0ff2f00000666004e
:1040e0009c9f9f006dcf21006000b800020020005f
:1040f00003ff2300090037000c08a300050032006d
:104100001d0278009d0290002d039000bd039000d9
:104110000b0607000c86d100e88646000c00e00084
:10412000f5ff3c000002be000203be000800be0016
:104130000a01be00060507000004be000205be001d
:10414000de08900060c6b3000ff29700804f520067
:10415000040032006000200062c4b300824f5200ad
:1041600002003a009f9a97006a8042008100400056
:10417000f1b79f0001037800f30f530002003400f1
:1041800037012000f7b79f0000c3b300c0779f003e
:1041900056fb2f000f0343000e007800a0b79f00ce
:1041a000060778003d0037000800be000a01be0087
:1041b000b40507000006be007fb1970068015100fa
:1041c000f2b79f004240a9000c003400d905070057
:1041d0000002be000203be000800be000a01be00cd
:1041e0004d0607006022b80046782d00771924009c
:1041f000d30507000004be000205be00e80047002a
:104200008e0020000802be000a03be00b4b79f0063
:10421000c5b79f00d6b79f00e7b79f000c01be004f
:10422000010478000c003700a400200005002000e5
:10423000c0fd2f000f004000bc0107006fa89700d1
:10424000ffa897000fb197009fb1970005c3b30077
:10425000056441000001be00e00f5100e08f5900ed
:10426000030034000e07e900e10f4700eeff3a00bb
:10427000880078003fb49700cfb497005fb59700ef
:10428000efb597000200370000c3b30080607800ec
:104290000e07e900fcff3b00688740007fb39700f2
:1042a0000600e000070034006022b8006033b80068
:1042b0000800be000a01be00a00407000000e000e4
:1042c000b9ff3c000e0378002fb7970051fb2f0079
:1042d0008f804000010353009f9b9700678043003d
:1042e000909f9f00020037000603e9000000e900ec
:1042f000010178008200780003c3b300b1cf110040
:10430000f9ff3200909f9f00de09900061c6b30064
:104310000ff29700814f52000300320061c4b300d6
:10432000814f520002003a000000e8000a00370006
:104330001000200051c6b3008ff2970081cf5200c9
:10434000050032000540780050c4b2000080fb0038
:104350000000e9004f00de0083014000868f51001d
:1043600001003400860178000300e0001d003500e4
:1043700000c3b300868f510006003d0003024100d8
:104380006940400041c3b30094cf100001003c00dd
:10439000694050008300e9008100410001003700be
:1043a000840178000302e90001037800a14278004b
:1043b00080cf5200faff320091c3b300814f50000a
:1043c00001003a00054be8000400e00005003d0054
:1043d0000201e9008301e8001f9b97000603e80043
:1043e000969f9f008ff397008700fb001f9a97000e
:1043f0000e007800060007004f0778004f06be0049
:104400004f05be004f04be002f04b100000006009f
:10441000f0874700889fbe008a9fbe008c9fbe0029
:104420008e1f780000047800814478000205be00e9
:10443000040678000b00e00002003c001b00200096
:10444000eae1210060c6b30080cf54000e003200c4
:1044500060c4b30080cf54000b00320070c6b300bc
:1044600080cf54000300320070c4b30080cf5400ea
:1044700085003a00e40f460083003500580890009c
:10448000800f560080003d000c06e80060c6b300b7
:1044900080cf54001000320060c4b30080cf5400bd
:1044a0000d003200081090000038a30004003a000c
:1044b00058089000808f550001003d005b0c98006b
:1044c000580890000c005000500c980002003b006f
:1044d0000000eb00500c98009808900068009000d5
:1044e0000c00e00028003c000100400002c3b300c3
:1044f000024878008100e800110c980058089000ec
:104500000000e00003003c00081090000038a30009
:10451000060032006800900001004000e2c2b300d3
:10452000024878008100e800110c980058089000bb
:104530008c00ea00810f500001003d000006ea00f7
:104540008c00ea00210c9800000646005c0c9800e4
:104550008b0f5600010034000b0678003c0c9800cd
:10456000e800900018089000008040000c017800de
:104570008a00780062fb0700580890000c06500083
:104580004c0c9800940037008c8f550019003d00aa
:10459000010040000b0178008a00780058fb0700fa
:1045a0001808900000804500100c98008b055600fc
:1045b0002b0c9800d80890000100e00003003c009c
:1045c000881090000138a30007003200e800900036
:1045d00000804000e1c2b300014878003808900034
:1045e0000000e800300c980058089000400c98003b
:1045f00079003700010040000c0178008a00780043
:104600003ffb07001808900000004600100c9800bf
:104610008c855500d80890000100e00003003c00a4
:10462000881090000138a30006003200e8009000d6
:1046300080804000e2c2b300824878000000e800b9
:10464000100c980058089000808f5500010034002d
:1046500080057800e8009000180890000080400075
:104660008c0045000b01780025fb0700180890001e
:104670000b004000100c9800580890008b0550006b
:104680002b0c98005400370018089000e8009000a8
:10469000808040009a4878000000e800100c9800e4
:1046a000d80890000100e00003003c008810900052
:1046b0000138a30006003200e8009000808040002e
:1046c000e2c2b300824878000000e800100c9800b5
:1046d000580890000000e000100034008b05e9004d
:1046e000808f55000100340080057800e8009000bc
:1046f00018089000008040008a00e8000b01780054
:10470000fffa0700180890000b004000100c9800fa
:10471000580890008b0550002b0c9800e800900082
:104720001808900000804000095878000007e80051
:104730000c00e00004003500b1c2b300014878006d
:104740008e04780004003700d1c2b300014878001d
:104750008e0478000c06ea007d8557008006eb0089
:1047600009003700a20020008c00780072805700fa
:10477000310007007fb097008fb89700016d780077
:10478000000678008d06e8000c00e000f5ff3c0014
:104790000d00e00009003a008e04780000c3b30069
:1047a000805c7800050037008d06e900fc8057002a
:1047b0000d80400001c3b30090dc40000d00e0001c
:1047c000f9ff3c00e80090001808900000804000cd
:1047d00080845400390c9800081090007400600028
:1047e000f00f50000e003a009808900078009000fa
:1047f00000804000a808900001004000b808900028
:1048000001004000c808900001004000f808900036
:10481000810f500002003d0000805000000c980005
:104820004f0778004f06be004f05be004f04be0084
:104830000f01b1000000060080027800010378003b
:10484000110009000203d80080017800830a780073
:104850008299b90082005300910298000500780007
:10486000000006000000e0002f003200c0017800c8
:10487000e38f51002c0036000308a3002a003a0001
:10488000c1f080000100e00002003200810f500002
:104890000400310011009800c0f0880016003700b5
:1048a00082007800110190000200e0000200320056
:1048b000800f5100faff3900110278008482400015
:1048c000850f500018003900808f520003003a0015
:1048d0008308420001007800070037000200e00072
:1048e0000300320083014000830f51000e003900a5
:1048f0001200980090009800900090000100e000e5
:104900000900320010014000828f500006003a007a
:1049100062e121000009eb0010017800110841005c
:10492000910090001100980000000600881f780098
:104930008a9fbe008c9fbe00000478000205be0066
:104940000406be000401be000a00be005a030700b0
:10495000008cbe000c01be00740407000005550069
:1049600081855d002a0498003b04980008007800c7
:104970004f06be004f05be004f0478000000060041
:10498000889fbe0000047800b1f080000100e000c4
:1049900002003200010078000d003700c1f08000f5
:1049a00080e1210004003700910f540025003600fb
:1049b0000180e800910090000100e000faff3a0059
:1049c00010003700920f54001e0036000280e800ed
:1049d000100178000200e000faff3a0011017800af
:1049e000c1f0800080e1210004003700910f5400e5
:1049f000140036000180e80091009000828f500082
:104a0000faff3a0009f18000888f5400010031005c
:104a10008804780009007800420007000000e000e8
:104a200004003a00888f5400050032008904d10048
:104a3000f5ff3700091878008aff0700d2ff37001a
:104a40000000eb004f04be0000000600881f780045
:104a5000630440000800a1008000eb00800f5400b8
:104a600021003600e30f540001003e004800200002
:104a700008007800c2ff07008000eb000000e000a3
:104a80001900320090007800910178006481510093
:104a9000880f5100030031001101900002087800d6
:104aa000070037000881400002087800910190005b
:104ab000130198001001780011091400880878008b
:104ac000100178000000eb000200e000040032005a
:104ad000920190000300e000010032000280e80033
:104ae000b0f088008180e800010078004f04780071
:104af00000000600020037000304e0000600320058
:104b00000001780002007800b041780081cf5100a8
:104b1000f9ff3a00010037000001eb0002007800c5
:104b200000000600800078000000eb000100e000bb
:104b30000500340001007800e2f70700e10f4000b3
:104b400001003a000000eb0000000600889fbe0054
:104b500000047800e68440001900d0004500de0023
:104b6000f27f2000820f500010003a00000ceb0092
:104b7000990478006f816400200020001b003a0037
:104b8000210190000200e00018003a00110190009d
:104b90000200e00015003a00100020001100e000c3
:104ba0001200320020002000100037000000e0005a
:104bb00004003a0001007800090207000000e0004c
:104bc00008003c00f20028001901610001fe2300ea
:104bd000810c710021c02f00010c40000080eb000f
:104be00002003700000ceb000000eb004f04be0099
:104bf00000000600fc874700889fbe008a9fbe0019
:104c00008c9fbe008e1f78000006780080c5b30020
:104c100080cf50000a0032007740400080cf500023
:104c20000a0032006940400080cf50000b00320083
:104c300030dc210080bf9f00ae0020000a0037005a
:104c400022db210082bf9f000600370033dc2100f9
:104c500083bf9f008e0020000300370034dc21005a
:104c600084bf9f000e0120001c0278009c0290006f
:104c70002c039000bc0390000605be000404be0097
:104c800040c6b30080cf50000300320065404000b2
:104c900080cf50000b003a00e00f5200e08f5a0026
:104ca000e00f5b00e08f5b0006003d006000b80095
:104cb0006011b800040450008584580006055900ae
:104cc00087855900e80f570004003200400020009b
:104cd000f00f57003c003a00010037003000200080
:104ce000e00f5400e08f5c00e00f5d00e08f5d009e
:104cf00004003a00dc0890008d0120000100e00073
:104d0000070032008e00e900888060008fba9700ab
:104d10008180420091407800f1ef9f007d012000ea
:104d2000800078008100e900050033008b05d10088
:104d30000a85d3008984d3000884d300f9ff3700a3
:104d4000089ebe000a96be00130037008d06e900db
:104d50008e00e900848060000fb997008100410057
:104d60001141780083fd2f008d81410082f7790089
:104d7000800178008301e900050033008783d100ba
:104d80000683d3008582d3000482d300f9ff370065
:104d9000049ebe000696be001c0278009c02900095
:104da0002c039000bc039000e00f5200e08f5a00eb
:104db000e00f5b00e08f5b00930034000d00e0002b
:104dc000e2ff3c00900037002c60900081c6b300e9
:104dd000814f50000b00320006003c000004e00050
:104de00008003200e6c05000814f500052003a00e7
:104df00004003700c1c6b300814f50004e003a0096
:104e0000230037000800e00004003a005c0890002e
:104e10008d0120000000e0000700320011000900b1
:104e20000e84d8000fba97000100420010407800ad
:104e3000f0ef9f007d012000110009000e84d800d2
:104e40000b003700110009000e04d8008d06e900a0
:104e50008e81b900020454008fb897000884400086
:104e60009841780082fd2f000d0141008377790081
:104e7000000478000800e000020032000d00e000ad
:104e8000f0ff3c00cfc4de00614db90027003700c1
:104e9000e00f5400e08f5c0004003a005c089000d2
:104ea0008d0120000000e000080032006171b900af
:104eb0000800be001a0307000fba970080004200e6
:104ec00091407800f1ef9f007d0120006171b900f1
:104ed0000800be0032f807000c0037006171b9000d
:104ee0000800be00f40107008d06e90080f1b9005a
:104ef000020454008fba9700088442009841780059
:104f000082fd2f000d014100837779000004be006f
:104f1000e00f5000e08f5800020032000d00e0006a
:104f2000eeff3c004fcdde008a057800089ebe00f3
:104f30000a96be0034003700e00f5400e08f5c009a
:104f4000e00f5d00e08f5d0004003a005c08900017
:104f50008d0120000000e0000a0032006172b900fb
:104f6000612bb9000800be000a01be0097030700cc
:104f70000fba97008000420091407800f1ef9f0047
:104f80007d0120006172b900612bb9000800be00ec
:104f90000a01be00860307000e0037006172b900e7
:104fa000612bb9000800be000a01be008b03070098
:104fb0008d06e90080f2b900040454008fba97000e
:104fc000088442009842780084fd2f000d024200c0
:104fd00085777a00009ebe000296be001c04780011
:104fe0009c0490002c059000bc059000e00f54003c
:104ff000e08f5c00e00f5d00e08f5d000200340098
:105000000d00e000e5ff3c00e80f570010003a00fb
:105010000c1090000038a3000d003200f78f5600ee
:1050200006003e0080fd2f000d004000ef4078009c
:1050300000c3b30080cf50000500320002c3b300ac
:1050400071fd2f008d8040008d06e90082f7780009
:1050500078811600120e98006c00900083fd2f00de
:105060008f8141008d804100a5f807001c08900049
:10507000dc089000810f500006003d0000805000c9
:10508000000e98000c1090000040a100001698003f
:105090000f0037000100e0000d003d008c10900073
:1050a000f4806000f08f500009003a007c09900005
:1050b000fc009000810051000c099000828050009b
:1050c000008050004240a90001003400000e98000a
:1050d0004f0778004f06be004f05be004f04be00cc
:1050e000cf01b100000006000400fa00889fbe0056
:1050f0008a9fbe008c1f78000004780001067800ab
:10510000f80d900078009000808555000808900008
:10511000808555001808900080855500280890006b
:10512000808555003808900080855500480890001b
:10513000808555000002220090bf9f0000032300dd
:10514000a0bf9f00081090000028a30015003a009f
:105150000b00e000130034000b0578008a0478008f
:10516000e20f55000100360029002000c801900020
:1051700009017800ee8057005800900003000100fc
:10518000500498000000e0008c0032006808900095
:1051900009004000600c9800090555004240a90034
:1051a000eeff3c00780190000200e0000c003400ab
:1051b000c80190008c0078005800900003000100a6
:1051c000500498008080eb000000e0007c0032007a
:1051d000e80890007800900000804000600c980083
:1051e000880c90000900e0001100340009057800e7
:1051f000e28f5400010036002a002000c801900010
:105200000a017800ec80570058009000030001006c
:10521000500498000000e000680032006808900028
:105220000a004000600c98008a845400edff3700ab
:10523000180990000200e0000c003400c801900042
:10524000e80090005800900003000100500498000e
:105250008080eb000000e00059003200e808900078
:105260001808900000804000600c9800a80c900086
:105270000900e0001100340009057800e28f5400b5
:10528000010036002a002000c80190000a017800c1
:10529000ec80570058009000030001005004980073
:1052a0000000e00045003200680890000a0040005d
:1052b000600c98008a845400edff37003809900094
:1052c0000200e0000e003400e80090001808900092
:1052d00080804000c8019000580090000300010049
:1052e000500498008080eb000000e00034003200a1
:1052f000e80890003808900000804000600c98009a
:10530000c80c90000900e000110034000905780085
:10531000e28f5400010036002a002000c8019000ee
:105320000a017800ec80570058009000030001004b
:10533000500498000000e00020003200680890004f
:105340000a004000600c98008a845400edff37008a
:10535000081090008000eb000028a3001800320025
:105360000b00e000160034008b047800090578007b
:10537000e28f5400010036002a002000c80190008e
:105380000a017800ee8057005800900003000100e9
:10539000500498000000e000080032006808900007
:1053a0000a004000600c98008a8454004240a90022
:1053b000eeff3c008000eb00010037008080eb0036
:1053c000010078004f0678004f05be004f04be0074
:1053d0000080fa00000006000108780000000600c6
:1053e000e6004000110178000500280085026100f8
:1053f0006f01610082087800020032001200200074
:1054000011003700a0019000120020000300e0000e
:105410000d003a00900190000300e0000a003a00fd
:105420001000e00008003a00360037006403400036
:105430009608780080017800530b78009009780076
:105440000408780070015100110278000400e000a7
:10545000f6ff3200130037006402400014037800a6
:105460004f33de00838141008308730080017800a0
:10547000d3037800cf3bde0014037800060343001b
:10548000068a7300130278000402420010037800b9
:105490004f33de00860972009001780003884100d6
:1054a0000201e90091017800ef8f5100eaff360018
:1054b0001000370080017800530378004f33dd007f
:1054c0001002d100040873006402400094037800c5
:1054d000cf3bdd001303d1008689730011037800f0
:1054e0004f33dd009401d100030a73009108d1000d
:1054f0000201e80091017800ff8f5100edff3e00ae
:10550000ef886100918872000200780000000600b8
:1055100000c0da000000060000c0da00000006004b
:1055200000c0da00000006008f1fd100080307004a
:105530008f87e9000000e00000000600809feb007c
:10554000030307008f87e9000000e0000000060069
:105550002800fa00889fbe008a9fbe008c9fbe0074
:1055600003866b008f0007006400e10044003200f6
:105570006408e1004a0032006100e10046003200a8
:105580006108e10049003200ec0647006000b80005
:105590003d02be003d03be00f48657006011b80016
:1055a0003d04be003d05be007d0320000b0037001a
:1055b0000000a0008d06e900130032000402420042
:1055c00085824a0006034b0087834b0000004000a1
:1055d000818048000201490083814900080252008d
:1055e00089825a000a035b008b835b00f0ff3b005b
:1055f0000802420089824a000a034b008b834b0059
:105600008d06e900edff3a00848272008682720006
:10561000f707b200878272000100320015002000f7
:105620001e0490003e0b900006035400e63fb000bd
:105630000368a300070032000000a7000500a000d7
:105640008301d1000281d3008180d3000080d30088
:105650000603e8008301d1000281d3008180d300da
:105660000080d3000002eb000482d200210007007a
:1056700003f0a1000cf0a70003f0a0005d003700cc
:10568000640247006408e100570032003400be00a5
:105690003401be00f6ff37006108e100520032001d
:1056a0006011b8006000b800f1ff370003ff270069
:1056b00002002000fbff3700839f68000100e0002c
:1056c00002003d0060001000e08018000300e000d0
:1056d00002003d0060011100e081190030f6070072
:1056e0004f00e00002003b0060001000e080180066
:1056f0000000060018002000570020000804530096
:105700000d003d000600200097fc2f000740e1003f
:105710001e00340084827200610260008301d100a7
:105720000281d3008180d3000080d3000804e80008
:10573000f8ff3a004700200061046000050474008f
:10574000040464000d00320061004000e080480065
:1057500060014900e081490003b8a500070032005c
:105760000603e8006538e10004003a008301d10037
:105770000281d3008180d3000080d300f87f200015
:105780000830e10003003500080378006000b8002d
:105790006011b8004433dd00f300b20083017300f0
:1057a00000000600680447000294be000094be009a
:1057b000fc0447008694be008494be000900780073
:1057c000ad02070008007800ab02070099007800de
:1057d000814f70000b003b000800be0085020700ef
:1057e0004f00b10003003700f3ff2700f2ff2f0046
:1057f0006110b9004f06be004f05be004f04be0049
:105800000080fa00000006008103780033f60700ec
:105810000001be006000b8000478a30013003a0045
:105820006220e10015003e000d0039008301d10027
:105830000281d3008180d3008301d1000281d30093
:105840008180d3008301d1000281d3008180d30005
:105850000538b000c42add00f300b2008381720075
:1058600007f0a70003f0a00000000600f3ff2700e8
:10587000f2ff2f006110b900fbff370003ff270084
:10588000f7ff37001400fa00889fbe008a9fbe0011
:105890008c9fbe000004be000205be0068004700e9
:1058a0000a90be000890be00730207000070a700b7
:1058b0000bf0a100304320009e0290008082520035
:1058c000b0fe2f000028e10011003d00b0fc2f00c9
:1058d0000028e100150034001e0990008e08900099
:1058e0007e0090000501b0000201d1008180d3004c
:1058f0000080d3008502e800fbff3a000b00e000c7
:10590000bcff3b0060001000e0801800b9ff3700ca
:10591000f0ff2f00f1ff27000b00e000b5ff3b0078
:105920000100280000002000b2ff37006000b8002e
:10593000b0ff37004f89de00820178007502370022
:105940002800fa00889fbe008a9fbe008c9fbe0080
:1059500003866b0093ff07000028a30064003a0051
:105960000128a30068003a000008a30062003a0082
:105970000108a30066003a001e009000be089000d7
:1059800081064000ed3fb100f4805700ee01900029
:10599000111ab8008e099000311bb8009e099000c2
:1059a000311cb800511db800f485570046000700af
:1059b000fe0190003a0007008b85e8003e000700da
:1059c0008e09900040000700ee01900034000700af
:1059d0008b85e800380007008e0990004000070022
:1059e0009e0990001b18b800890440000a854800f1
:1059f000fe019000340007008b85e80038000700a6
:105a0000ee019000300007008e0990001b18b800ce
:105a1000890440000a8548000a98a30008003a005b
:105a20000402420085824a0006034b0087834b0034
:105a300008044c0089844c000a054d008d06e900dd
:105a400084827200850273004c3add008502720088
:105a50000100320015002000443ade001400b200bc
:105a60004538de00cb45dd000b007000c540de0090
:105a7000cb4ddd008b8070004549de00cb55dd004d
:105a80000b017100c551de000d03780019ff0700fe
:105a900003f0a1000cf0a70003f0a00055ff3700b1
:105aa0001b18b8008502400006834800e0834b00c5
:105ab00060044c00070037001b18b80006034000c4
:105ac00087834800faff37001b18b800870340009f
:105ad00008844800e0844c0060054d00000006008a
:105ae0001b18b8000804400089844800faff3700fa
:105af0000108a3003cff3a005800be00000000006f
:105b00005801be00e2ff37000008a30036ff3a004c
:105b100009047800f8ff370007f0a2000e013700f3
:105b20001ff507000400be0000000600020ab900cd
:105b3000001bb9000200b800810042008100430050
:105b400000000600889fbe008a9fbe00300442000d
:105b5000b0844a0030054b0090854b006000b100d6
:105b60000898be000a90be000440e10005c8e100ac
:105b700006d0e10007d8e1000200310068004000d3
:105b80001008e8004f05be004f04be0000000600ec
:105b9000889fbe008a9fbe00100478009004900089
:105ba00020059000b00590000418540005985c0092
:105bb00006185d0007985d00110020000440e10018
:105bc00005c8e10006d0e10007d8e1000100390076
:105bd0008000eb00108810004f05be004f04be008f
:105be000000006001200fa00889fbe008a9fbe00d7
:105bf0008c9fbe00e0b79f00f1b79f0082bf9f005f
:105c000093bf9f000605be000404be000000eb0029
:105c1000d0b79f00c0b79f00b0b79f00a0b79f004c
:105c200090b79f000006eb005fb19700cfb09700e0
:105c3000820141003fb097000200e00004003d00f7
:105c4000370007007e805700beff070003003700c3
:105c5000330007007e805700cdff0700dfb69700b6
:105c60000d00e0000c0035006fb29700ffb2970006
:105c70000fbb97009fbb9700100020000100200081
:105c80006011b8000002720081827200020373008a
:105c9000838373001b0007000c06e800010420004a
:105ca000810f5600e0ff3a000d00e00004003d00c7
:105cb0000802be000a03be007e805700a1ff070055
:105cc0005fa897000000e00005003a001fb29700af
:105cd000afb297003fb39700cfb39700090007001a
:105ce0006fb09700ffb097000fb997009fb997006a
:105cf0004f06be004f05be004f04be000080fa00f4
:105d0000000006000100070000000600a4b79f0085
:105d1000b5b79f00c6b79f00d7b79f000000060029
:105d20004f09de0082817100b3b79f004f01de0092
:105d30008180400082807000a1b79f008fb09700e3
:105d40004f09de00000040000200700090b79f0085
:105d50007fa897004f01de008180400082807000a4
:105d600081b79f000d0007004f3ade0000004000a1
:105d700004007000f0af9f0008000700040242001a
:105d800085824a0006034b0087834b00dfff070034
:105d90000802be000a03be00000006002fb29700f2
:105da000bfb297004fb39700dfb397000000060023
:105db000881f780018002000881f780089ff0700de
:105dc0008f87e9004f04780000000600801feb0079
:105dd00084ff07008f87e90000000600889fbe004f
:105de0008a9fbe00e00f5000e08f5800e00f59007e
:105df000e08f59000c003d006044b8006055b800c9
:105e00000000540081805c0002015d0083815d0020
:105e1000180020001500070008003d0018000700ca
:105e20000004eb00050037000004eb000f00070042
:105e300002003d001200070018002000dcff0700f0
:105e40000800e000060032006022b8006033b800ad
:105e50000000520081805a0002015b0083815b00d8
:105e60004f05be004f04be0000000600e00f5200c8
:105e7000e08f5a00e00f5b00e08f5b00000006003f
:105e80006044b8006055b8000402540085825c008c
:105e900006035d0087835d0000000600889fbe004a
:105ea0008a9fbe008c1f7800e00f5000e08f5800e2
:105eb000e00f5900e08f59000d003d006044b8002c
:105ec0006055b8000000540081805c0002015d0054
:105ed00083815d001c0020000820e10009a8e1008a
:105ee0000ab0e1000bb8e1000d003d0008003700ea
:105ef0000006eb00e00f5200e08f5a00e00f5b005d
:105f0000e08f5b0006003d006044b8006055b800bb
:105f10000402540085825c0006035d0087835d00f7
:105f2000aaff07000c00e000060032006022b80063
:105f30006033b8000000520081805a0002015b000b
:105f400083815b004f0678004f05be004f04be0002
:105f500000000600000000002800fa00889fbe0034
:105f60008a9fbe008c9fbe00070678008786690066
:105f70000c003b00030478008704780008f0a100bf
:105f800009f0a100840f5000858f5800860f59003a
:105f9000890f5c00030033000cf0a20001003a00fe
:105fa0000cf0a100fffd07006400e1005f0032007b
:105fb000780147006408e100610032006c0147008d
:105fc000748557003200be001201be003a04be00c4
:105fd0001a05be001e039000be0a90008503530000
:105fe00006003d000004fd008104fd000205fd00e7
:105ff0008305fd008703ea00050378000df8a30080
:106000000400320060041400e0841c0060051d00e0
:10601000e0851d006022b8007d0320000d38e100fe
:106020008006eb000b0039004433dd00f300b200c2
:106030008301730039003700848272000d027800fa
:10604000e10664008b85d1000a85d3008984d300e2
:106050000884d3008703e900f7ff3b0008004000f5
:10606000898048000a0149008b81490004003b00f7
:1060700060001000e080180060011900e081190044
:106080000358a300090032008d82720084827200de
:10609000610260008301d1000281d3008180d300be
:1060a0000080d3000603e8001b0037000348a3006c
:1060b00017003a000600e000170034000603e9006c
:1060c0000d00a30000004800818048000201490043
:1060d000838149000348a3000f003a000600e00056
:1060e000090034000603e9000000400081804800f8
:1060f000020149008381490001003a000003eb00de
:106100000348a300f5ff32006022b8000200370008
:10611000848272006182660076fd070003f0a100b0
:106120000cf0a70003f0a000b2fd370064014700a7
:106130006408e10002003a000df8a300aafd3a004d
:1061400032007800b20078001201be00a9fd3700cd
:10615000889fbe008a9fbe008c9fbe000404be00c4
:106160000605be00809fbe00829fbe003000070073
:10617000040678000800be000a01be002c000700db
:10618000840678004f03be004f02be008d4f76009c
:106190007fb0970013003300f0ff2f008b8f6b0050
:1061a00006003b000d0666000c00a7000a00370041
:1061b00007f0a600100020000a003700880f5200e8
:1061c000898f5a008a0f5b008b8f5b0003003900b8
:1061d0001000200001003e000000200007f0a70092
:1061e0000000ea004f06be004f05be004f04be008f
:1061f00000000600e48240001078a300070032008f
:10620000640240001178a3003400be001401be00f7
:10621000050032000330a7000000060035007800ba
:10622000b50078001501be000330a0000000060094
:1062300005ff270005826100070032000428e10005
:1062400001003200240005000600070001003a00aa
:10625000440005000408050002000700f9ff3a00a9
:10626000140005006f8261008102700085027100d8
:1062700085027200000006005002be00e4005000db
:106280005003be004439de00f700b200f37f200067
:1062900003016100090032000218e10016003a0013
:1062a0008501720083017300838173000008200060
:1062b00015003a00400020001300370085017200ed
:1062c000830173008381730005003a0004a8be00b7
:1062d00006a8be00100020000b0037000201e900f4
:1062e0000402420085824a0006034b0087834b006c
:1062f0000748a300f9ff32000740a00004a8be0031
:1063000006a8be002000200080009800920098009f
:1063100000000600881f7800030478000300e000f6
:1063200007003d0060001000e080180060011900c7
:10633000e081190002003b0001f02d00030037004e
:106340000400070008f0a70003f0a0004f04780045
:1063500000000600889fbe000082700004027100e9
:10636000048271002400320036432000c500200062
:106370008383cf000a0039000541b1008283cf003a
:10638000070039000541b1008183cf0004003900c6
:106390000541b1008083cf00010039000541b10003
:1063a00085c353006022b800120032000a003b008f
:1063b00084827200610260008301d1000281d300f7
:1063c0008180d3000080d3000603e8008743e80003
:1063d000f7ff3a00070037000000400081804800c6
:1063e00002014900838149000603e9008743e9006f
:1063f000f9ff3a00bffc07004f04be000000060092
:020000040000fa
:10640000556e0000686100006e6400006c6500005d
:1064100064200000696e0000746500007272000064
:1064200075700000742c00002000000064730000f0
:106430005049000043330000334500005035000050
:1064400031320000475000003830000036000000b4
:10645000756e00006b6e00006f7700006e0000002c
:1064600042310000004400006576000069630000ce
:106470006520000049440000203d0000200000008d
:1064800020280000002900002c2000007265000078
:1064900076690000736900006f6e00002000000044
:1064a000290a0000000a00000a2a00002a2a000027
:1064b0002a2a00002a2a00002a2a00002a2a00008c
:1064c0002a2a00002a2a00002a2a00002a2a00007c
:1064d0002a2a00002a2a00002a2a00002a2a00006c
:1064e0002a2a00002a2a00002a2a00002a2a00005c
:1064f0002a2a00002a2a00002a2a00002a2a00004c
:106500002a2a00002a2a00002a2a00002a2a00003b
:106510002a2a00002a0a00002a2000005741000011
:10652000524e0000494e0000472000002d20000080
:10653000746800006973000020700000726f000032
:1065400067720000616d0000207700006173000039
:10655000206300006f6d0000706900006c65000032
:1065600064200000666f0000722000007468000064
:1065700065200000777200006f6e00006720000049
:10658000202a00000a2a0000206300006869000039
:10659000702e000020540000686900007320000085
:1065a000707200006f670000726100006d200000d3
:1065b0006d61000079200000707200006f640000bf
:1065c0007563000065200000756e000065780000ae
:1065d00070650000637400006564000020620000c4
:1065e00065680000766900006f72000021200000dd
:1065f0002a0a00002a200000456400006974000097
:1066000020740000686500002068000065610000db
:106610006465000072200000666900006c6500007f
:1066200073200000746f000020700000726f000083
:1066300070650000726c0000792000006465000045
:10664000666900006e650000207400006869000043
:10665000732000006368000069700000202a0000b9
:106660000a2a0000206100006e640000207400000f
:106670006f200000696e00007375000072650000f5
:10668000206300006f7200007265000063740000f8
:10669000206f0000706500007261000074690000e6
:1066a0006f6e00002e20000020200000202000003f
:1066b00020200000202000002020000020200000da
:1066c0002020000020200000202000002a0a0000d6
:1066d0002a200000202000002020000020200000b0
:1066e00020200000202000002020000020200000aa
:1066f000202000002020000020200000202000009a
:106700002020000020200000202000002020000089
:106710002020000020200000202000002020000079
:106720002020000020200000202000002020000069
:106730002020000020200000202a00000a2a00005b
:10674000204e00004f540000453a00002049000050
:106750006620000074680000697300002077000064
:1067600061730000206300006f6d0000706900001d
:106770006c65000064200000666f0000722000005d
:106780007468000065200000636f000072720000f2
:1067900065630000742000006368000069700000f9
:1067a0002c200000202000002a0a00002a200000df
:1067b000616e0000642000006f6e00006c790000c4
:1067c000206f0000636300007572000073200000fa
:1067d00061740000207000006f7700006572000097
:1067e0002d6f00006e200000286e00006f74000006
:1067f0002064000075720000696e000067200000d0
:10680000612000004d4300004c5200002020000099
:1068100020200000202a00000a2a00002072000028
:106820006573000065740000292c000020760000cc
:10683000657200006966000079200000746800003d
:106840006174000020410000564400004420000014
:10685000616e0000642000004156000053530000a8
:106860002061000072650000206300006f6e000070
:106870006e65000063740000656400002e20000057
:10688000202000002a0a00002a2000004f6e00008d
:10689000207400006865000020500000494300009b
:1068a000323400004833000032470000503200000c
:1068b000303200002c2000006e6f000074200000b9
:1068c000636f00006e6e0000656300007469000075
:1068d0006e67000020410000564400004420000084
:1068e00020200000202000002020000020200000a8
:1068f000202a00000a2a000020700000726f0000a9
:106900006475000063650000732000007468000077
:1069100069730000206d0000657300007361000062
:1069200067650000206f00006e6c00007920000099
:1069300061740000207000006f7700006572000035
:106940002d750000702e0000202000002020000087
:106950002020000020200000202000002020000037
:106960002a0a00002a2a00002a2a00002a2a0000f7
:106970002a2a00002a2a00002a2a00002a2a0000c7
:106980002a2a00002a2a00002a2a00002a2a0000b7
:106990002a2a00002a2a00002a2a00002a2a0000a7
:1069a0002a2a00002a2a00002a2a00002a2a000097
:1069b0002a2a00002a2a00002a2a00002a2a000087
:1069c0002a2a00002a2a00002a2a00002a2a000077
:1069d0000a000000466100007374000020520000ad
:1069e000432000004f730000630a000000460000cf
:1069f000617300007420000052430000204f00002b
:106a000073630000207700006974000068200000b4
:106a1000504c00004c0a0000005000007269000059
:106a20006d61000072790000204f00007363000068
:106a300020280000585400002c200000485300007b
:106a40002c20000045430000290a000000500000ef
:106a5000726900006d61000072790000204f000033
:106a60007363000020280000585400002c20000010
:106a7000485300002c20000045430000292000005e
:106a80007769000074680000205000004c4c000042
:106a90000a00000053650000636f00006e64000090
:106aa00061720000792000004f730000630a00004b
:106ab000004c00006f770000205000006f7700004e
:106ac0006572000020520000432000004f73000058
:106ad000630a00000046000061730000742000009b
:106ae00052430000204f0000736300002f3100006c
:106af000360a0000004600006173000074200000a8
:106b000052430000204f0000736300002f4e00002e
:106b10000a000000556e00006b6e00006f770000e9
:106b20006e2000006f730000636900006c6c000051
:106b3000617400006f720000207400007970000022
:106b4000652e0000000a0000446500007669000020
:106b5000636500002068000061730000206200008f
:106b6000656500006e200000696e00002073000063
:106b70006c65000065700000206d00006f6400000f
:106b8000650a0000000a0000446500007669000004
:106b9000636500002068000061730000206200004f
:106ba000656500006e200000696e0000206900002d
:106bb000646c0000652000006d6f000064650000db
:106bc0000a0000000a5200006573000065740000ae
:106bd0002063000061750000736500003a2000002a
:106be000005000006f770000657200002d6f0000fc
:106bf0006e2e00000a000000536f00006674000053
:106c0000776100007265000020520000657300008b
:106c1000657400002e0a0000005700006174000037
:106c200063680000646f0000672000005469000082
:106c30006d6500006f750000743a000020000000d0
:106c40000a0000004d4300004c520000206100008b
:106c50007373000065720000746900006f6e0000bd
:106c60002e0a000000420000726f0000776e0000e4
:106c70002d6f0000757400002e0a00000054000003
:106c80007261000070200000436f00006e6600001b
:106c90006c690000637400002e0a000000490000c7
:106ca0006c6c000065670000616c00002043000010
:106cb0006f6e000064690000746900006f6e000070
:106cc0002e0a0000004300006f6e0000666900009d
:106cd0006775000072610000746900006f6e00004b
:106ce000204d0000697300006d61000074630000b6
:106cf000682e00000a000000556e00006b6e000058
:106d00006f7700006e200000726500007365000060
:106d1000742e00000a00000045720000726f00002f
:106d20007220000074720000617000007065000045
:106d3000643a00002000000050720000696f0000fb
:106d400072690000747900003a200000002c0000f5
:106d50002056000065630000746f00007220000080
:106d60006e7500006d620000657200003a20000040
:106d7000000a00000a0000005541000052540000c3
:106d80003120000070610000726900007479000019
:106d900020650000727200006f7200000a0000009f
:106da000554100005254000031200000667200007e
:106db000616d0000696e00006720000065720000d0
:106dc000726f0000720a000000550000415200007e
:106dd00054310000206f00007665000072720000e0
:106de000756e000020650000727200006f72000076
:106df0000a000000554100005254000032200000fb
:106e00007061000072690000747900002065000064
:106e1000727200006f7200000a000000554100000d
:106e2000525400003220000066720000616d0000c4
:106e3000696e00006720000065720000726f00003c
:106e4000720a000000550000415200005432000058
:106e5000206f00007665000072720000756e000001
:106e600020650000727200006f7200000a000000ce
:106e700055410000525400003320000070610000b2
:106e800072690000747900002065000072720000d1
:106e90006f7200000a0000005541000052540000cb
:106ea0003320000066720000616d0000696e000012
:106eb0006720000065720000726f0000720a000017
:106ec000005500004152000054330000206f0000c4
:106ed0007665000072720000756e0000206500008b
:106ee000727200006f7200000a000000554100003d
:106ef00052540000342000007061000072690000ec
:106f00007479000020650000727200006f7200004a
:106f10000a000000554100005254000034200000d7
:106f200066720000616d0000696e0000672000005d
:106f300065720000726f0000720a000000550000c8
:106f40004152000054340000206f000076650000bc
:106f500072720000756e0000206500007272000001
:106f60006f7200000a000000307800000045000049
:106f7000727200006f720000206900006e20000035
:106f800062750000696c0000645c000065730000bd
:106f90006f7300005f6500006d62000065640000b3
:106fa0006465000064460000313400005f33000077
:106fb00033450000503500003132000047500000da
:106fc00038300000365c00006c690000625c000034
:106fd00073720000635c000070690000633200009f
:106fe000345f00007365000072690000616c00008e
:106ff0002e630000206c0000696e00006520000018
:1070000032390000363a0000204900006e76000058
:10701000616c0000696400002055000041520000ce
:107020005400000045720000726f000072200000e2
:10703000696e000020620000756900006c64000049
:107040005c650000736f0000735f0000656d0000f9
:107050006265000064640000656400004631000061
:10706000345f00003333000045500000353100002c
:107070003247000050380000303600005c6c0000e1
:10708000696200005c730000726300005c700000c5
:1070900069630000323400005f7300006572000015
:1070a000696100006c2e0000632000006c69000024
:1070b0006e65000020330000333500003a200000e8
:1070c000496e0000766100006c69000064200000d9
:1070d000554100005254000000050000030200006a
:1070e0000100000050c3000030750000204e000079
:1070f0001027000088130000b80b0000d007000024
:10710000e8030000f40100002c010000c8000000aa
:1071100064000000320000001e00000014000000a7
:107120000a0000000500000003000000020000004b
:10713000010000000503000002010000050300003b
:1071400002010000321e0000140a000005030000c6
:10715000020100004d53000047200000546500006c
:107160006d70000020690000733a000020300000bc
:1071700078250000305800002c2000002534000045
:107180002e3400006620000028430000292c000057
:1071900020250000342e0000346600002028000066
:1071a000462900000a0000000a620000756900001c
:1071b0006c6400005c650000736f0000735f00008a
:1071c000656d000062650000646400006564000095
:1071d00046310000345f00003333000045500000aa
:1071e00035310000324700005038000030360000d2
:1071f0005c6300006861000070310000345c0000d6
:1072000061700000705f00006473000031360000a0
:10721000333100005f6d0000736700002e630000d3
:107220002c20000062750000696c000074200000d2
:107230006f6e000020460000656200002020000004
:1072400034200000323000003230000020610000a5
:1072500074200000313400003a330000363a000058
:08726000343900000a000000af
:020000040000fa
:107268000000210041ba2100010878008000eb00ed
:1072780011009800210098000204200032009800b4
:107288008000210043be2100030878001100980007
:1072980021009800320098002f1007000000060017
:1072a8000080fb004400de00e94f50000200360079
:1072b8007043b000010037000043b0000000060032
:1072c8006f406000e94f5000020036007043b00084
:1072d800010037000043b00000000600881f780056
:1072e80000047800284090000074a0002044980012
:1072f800180178000200e000040032003105200087
:10730800810f510027003a000c00370081417800b6
:10731800b202210003497800118080008100e80052
:107328006181880002042000828f500001003a0029
:107338002c30ef0031052000010c78000028a30054
:107348000400320040c0b3002044980030c0b300ad
:10735800180037006181800022808000810f510071
:10736800030032000004a100204498000200370006
:107378000004a00020449800284190000040eb0041
:107388000208a3000b003a00000021001081400011
:10739800b302210093417800034978001100980056
:1073a800c40f070080c0b30020449800000ceb0015
:1073b80030c0b3004f04780000000600889fbe006c
:1073c8000004780081447800284090000074a000f0
:1073d80020449800180078000000e0000400320003
:1073e800a1062000810f50003f003a001900370025
:1073f80001c3b30080c521000148780081c7b300ec
:107408000000e8000148780009407800a4ff070060
:10741800a1c521008048780009407800a8ff07002e
:10742800b1c52100804878000100e8000048eb0061
:107438002a70ef000210ec0040818800010420004f
:10744800810f500001003a002830ef00a00620000c
:10745800000c7800284090000028a30004003200a7
:1074680040c0b3002044980030c0b3002200370069
:107478004181800022808000810f5100030032008a
:107488000004a10020449800020037000004a00076
:1074980020449800284190000040eb000208a30017
:1074a80015003a000000210090814000a20221004e
:1074b800124178000282fb0085c521000482420047
:1074c800944978000241e80002427800a3022100b2
:1074d8008449780011009800760f07002ad0bf0071
:1074e800e34f5000d3ff360080c0b300204498001b
:1074f800000ceb0030c0b3004f04be0000000600d3
:10750800881f780000047800284090000074a000cc
:1075180020449800180078000000e00004003200c1
:1075280041082000810f500067003a0041003700f1
:107538002670ef0030c6b30080cf50000a00360036
:107548000181fb004211de00b04721000011b800a4
:107558000301d10030c5210003c3b3000348410033
:1075680010c0b30026f0b700e9cf50001400360071
:1075780026d0bf000081fb0033c521008281410075
:107588000181fb00c212de00b4472100042ab800c2
:107598008502d1004406200084aab90004015100e4
:1075a8000281fb00d5cc2c000512b8004329de006f
:1075b80004c3b300844941000040e80026f0b70046
:1075c80062022100124178008281fb0030c521004f
:1075d800830140008180fb00d4cc2c00040ab80051
:1075e800432ade00ea22b9008480500004c3b300b5
:1075f80084c940008240e800620221000149780005
:107608008180fb00010040000048eb002770ef007c
:107618002a0037000210ec002081880001042000b5
:10762800810f500001003a002430ef00400820008c
:10763800000c7800284090000028a30004003200c5
:1076480040c0b3002044980030c0b3002200370087
:107658002181800024808000810f520003003200c5
:107668000004a10020449800020037000004a00094
:1076780020449800284190000040eb000208a30035
:1076880015003a000000210090814000720221009c
:10769800124178000282fb0035c5210004824200b5
:1076a800944978000241e800024278007302210000
:1076b8008449780011009800fe0e070027d0bf000b
:1076c8002650e300d3ff3e0080c0b300204498005a
:1076d800000ceb0030c0b3004f0478000000060037
:1076e800889fbe008a9fbe008c1f78000006780025
:1076f8000204be002c4090000074a00020469800b0
:107708001c0078000000e00004003200410a20005c
:10771800810f50005f003a003900370001c3b30001
:1077280080c421000148780081c7b3000000e80048
:1077380001487800481dde000b0020000a40780050
:10774800d7fe0700a1c42100804878000a407800cd
:10775800dbfe0700b1c4210080487800404dde0000
:107768000b0020000a407800cdfe0700c1c42100ac
:10777800804878000a407800d1fe0700d1c4210073
:1077880080487800c84dde004848dd004845de00e6
:107798000a0570000a407800c1fe0700e1c4210014
:1077a800804878000a407800c5fe0700f1c421002f
:1077b8008048780008407800b9fe070001c521001c
:1077c8008048780008407800bdfe070011c52100f8
:1077d800804878000100e8000048eb002270ef00c4
:1077e8000210ec000081880001042000810f500085
:1077f80001003a002030ef00400a2000000e780017
:107808002c4090000028a3000400320040c0b300c0
:107818002046980030c0b300220037000181800064
:1078280022808000810f5100030032000004a10073
:1078380020469800020037000004a0002046980067
:107848002c4190000040eb000208a30015003a000c
:10785800000021009081400022022100124178009e
:107868000282fb0085c4210004824200944978000a
:107878000241e8000242780023022100844978008e
:10788800110098008b0e070022d0bf00e94f50006e
:10789800d3ff360080c0b30020469800000eeb00ee
:1078a80030c0b3004f0678004f05be004f04be003d
:1078b80000000600881f7800000478002840900027
:1078c8000074a00020449800180078000000e00030
:1078d80004003200910b2000810f500033003a0061
:1078e8000e00370082417800c0012100034878006b
:1078f800d18088001d70ef002a0037000210ec00cc
:10790800f080880001042000810f500001003a0037
:107918001e30ef00900b2000000c780028409000eb
:107928000028a3000400320040c0b300204498009f
:1079380030c0b30021003700f1808000248080002f
:10794800810f5200030032000004a1002044980077
:10795800020037000004a00020449800284190004d
:107968000040eb000208a30014003a0002002100c6
:1079780012824000d3012100934178000380fb006c
