:020000040000fa
:080000000013040000000000e1
:020000040000fa
:1000080002100000061000000a1000000e10000088
:1000180012100000161000001a1000001e10000038
:1000280022100000261000002a1000002e100000e8
:1000380032100000361000003a1000003e10000098
:1000480042100000461000004a1000004e10000048
:1000580052100000561000005a1000005e100000f8
:1000680062100000661000006a1000006e100000a8
:1000780072100000761000007a1000007e10000058
:1000880082100000861000008a1000008e10000008
:1000980092100000961000009a1000009e100000b8
:1000a800a2100000a6100000aa100000ae10000068
:1000b800b2100000b6100000ba100000be10000018
:1000c800c2100000c6100000ca100000ce100000c8
:1000d800d2100000d6100000da100000de10000078
:1000e800e2100000e6100000ea100000ee10000028
:1000f800f2100000f6100000fa100000fe100000d8
:1001080002110000061100000a1100000e11000083
:1001180012110000161100001a1100001e11000033
:1001280022110000261100002a1100002e110000e3
:1001380032110000361100003a1100003e11000093
:1001480042110000461100004a1100004e11000043
:1001580052110000561100005a1100005e110000f3
:1001680062110000661100006a1100006e110000a3
:1001780072110000761100007a1100007e11000053
:1001880082110000861100008a1100008e11000003
:1001980092110000961100009a1100009e110000b3
:1001a800a2110000a6110000aa110000ae11000063
:1001b800b2110000b6110000ba110000be11000013
:1001c800c2110000c6110000ca110000ce110000c3
:1001d800d2110000d6110000da110000de11000073
:1001e800e2110000e6110000ea110000ee11000023
:1001f800f2110000f6110000fa110000fe110000d3
:1002080002120000061200000a1200000e1200007e
:1002180012120000161200001a1200001e1200002e
:1002280022120000261200002a1200002e120000de
:1002380032120000361200003a1200003e1200008e
:1002480042120000461200004a1200004e1200003e
:1002580052120000561200005a1200005e120000ee
:020000040000fa
:10200000020000000214040000000000021404009a
:10201000000000000214040000000000021404008c
:10202000000000000214040000000000021404007c
:10203000000000000214040000000000021404006c
:10204000000000000214040000000000021404005c
:1020500000000000021404000000000080140400ce
:10206000000000000214040000000000021404003c
:10207000000000000214040000000000021404002c
:10208000000000000214040000000000021404001c
:102090000000000002140400000000005e140400b0
:1020a00000000000321404000000000002140400cc
:1020b00000000000021404000000000002140400ec
:1020c00000000000021404000000000002140400dc
:1020d00000000000021404000000000002140400cc
:1020e00000000000021404000000000002140400bc
:1020f00000000000021404000000000002140400ac
:10210000000000000214040000000000021404009b
:10211000000000000214040000000000021404008b
:10212000000000000214040000000000021404007b
:10213000000000000214040000000000021404006b
:10214000000000000214040000000000021404005b
:10215000000000000214040000000000021404004b
:10216000000000000214040000000000021404003b
:10217000000000000214040000000000021404002b
:10218000000000000214040000000000021404001b
:10219000000000000214040000000000021404000b
:1021a00000000000021404000000000002140400fb
:1021b00000000000021404000000000002140400eb
:1021c00000000000021404000000000002140400db
:1021d00000000000021404000000000002140400cb
:1021e00000000000021404000000000002140400bb
:1021f00000000000021404000000000002140400ab
:10220000000000000214040000000000021404009a
:10221000000000000214040000000000021404008a
:10222000000000000214040000000000021404007a
:10223000000000000214040000000000021404006a
:10224000000000000214040000000000021404005a
:10225000000000000214040000000000021404004a
:10226000000000000214040000000000021404003a
:10227000000000000214040000000000021404002a
:10228000000000000214040000000000021404001a
:10229000000000000214040000000000021404000a
:1022a00000000000021404000000000002140400fa
:1022b00000000000021404000000000002140400ea
:1022c00000000000021404000000000002140400da
:1022d00000000000021404000000000002140400ca
:1022e00000000000021404000000000002140400ba
:1022f00000000000021404000000000002140400aa
:102300000000000002140400000000000214040099
:102310000000000002140400000000000214040089
:102320000000000002140400000000000214040079
:102330000000000002140400000000000214040069
:102340000000000002140400000000000214040059
:102350000000000002140400000000000214040049
:102360000000000002140400000000000214040039
:102370000000000002140400000000000214040029
:102380000000000002140400000000000214040019
:102390000000000002140400000000000214040009
:1023a00000000000021404000000000002140400f9
:1023b00000000000021404000000000002140400e9
:1023c00000000000021404000000000002140400d9
:1023d00000000000021404000000000002140400c9
:1023e00000000000021404000000000002140400b9
:1023f00000000000021404000000000002140400a9
:102400000000000002140400000000000214040098
:102410000000000002140400000000000214040088
:102420000000000002140400000000000214040078
:102430000000000002140400000000000214040068
:102440000000000002140400000000000214040058
:102450000000000002140400000000000214040048
:102460000000000002140400000000000214040038
:102470000000000002140400000000000214040028
:102480000000000002140400000000000214040018
:102490000000000002140400000000000214040008
:1024a00000000000021404000000000002140400f8
:1024b00000000000021404000000000002140400e8
:0424c0000000000018
:020000040000fa
:102600008fcf21000eff27000e0188000000000080
:10261000000020000000e000020032000001200065
:102620002002880014000700c80007000000e00036
:1026300003003a00608223000100200002003700fe
:102640000000200001002000810f70000100320016
:102650000f000700000020000000e0000200320030
:1026600000000200000000000c2602000000000034
:102670000040da000000fe00607020000000e00072
:1026800002003200002020009001880000000600b7
:10269000a1028800800478000000eb001f003700d2
:1026a000e284440054a0b4009905ba00e2844400d6
:1026b00054a0b4009906ba00e284440054a0b400c7
:1026c0000006eb00476fde00fd07b200ae01880098
:1026d000636ce10003003a000ad801000000eb003f
:1026e0000e003700606ce10008003a00004deb007e
:1026f0000a05e800020039003420ec000af0a000ce
:102700008b05e900f9ff3e00040037006168e10035
:10271000010032000086eb000b00070019c7ba0069
:102720000e04e0001905ba0003003a000a00e000b8
:10273000dbff3a0000000600fe07b200ae02880090
:102740008a047800f5ff37000cd0a300e20f4d009b
:102750001c00390089027800354dba000a05e800ee
:10276000020039003420ec000af0a0008b05e900db
:102770000f003200254dba000a05e80002003900ba
:102780003420ec000af0a0008b05e90008003200bc
:102790000c00e0000600320015cdba000a05e80082
:1027a000020039003420ec000af0a0008b05e9009b
:1027b0008984e80054a0b4000b00e000e2ff3a0076
:1027c000000006009902ba00055d78008b05e9005b
:1027d000f7ff3200c82ade00055d78008b05e900ae
:1027e000f3ff32000c00e000f1ff320019ddba0007
:1027f000eeff37007433040000000000663204006e
:10280000000000003600f800809fbe00829fbe00de
:10281000849fbe00869fbe003200f8003400f8009e
:1028200010002000a00188000020200090018800f6
:1028300000000000c808f8006c10f900804c290066
:10284000110c07003400f9003200f9004f03be00fc
:102850004f02be004f01be004f00be003600f9001f
:1028600000400600809fbe00000021009000900004
:1028700020009000808f500002003a002188a900bb
:102880000c0037000430ec00000420000410e300ca
:1028900001003a000430ef000188a9000000210087
:1028a0009000780020009000008040001080fb0025
:1028b000201188004f00be0000400600809fbe002f
:1028c000821f78000168a900311180000a30ec00f5
:1028d000000420000a10e30001003a000a30ef0073
:1028e00080002100100178001000900000004100dd
:1028f000014878004f0178004f00be0000400600fc
:102900003600f800809fbe00829fbe00849fbe00fc
:10291000869fbe00e0828000f1828000610040005e
:10292000e0804800e0828800f18288000068a90009
:10293000f40707004f03be004f02be004f01be0068
:102940004f00be003600f900004006000000050000
:102950006022b800060220000000d0008180d20072
:102960000482d2008582d2000000a0000202520040
:1029700083825a00030031000202420083824a002f
:102980000000a1000603e900f3ff3a000000060082
:020000040000fa
:10299000556e0000686100006e6400006c65000008
:1029a00064200000696e000074650000727200000f
:1029b00075700000742c000020000000647300009b
:1029c00050490000433300003345000050350000fb
:1029d000313200004750000038300000360000005f
:1029e000756e00006b6e00006f7700006e000000d7
:1029f0004231000000440000657600006963000079
:102a00006520000049440000203d00002000000037
:102a100020280000002900002c2000007265000022
:102a200076690000736900006f6e000020000000ee
:102a3000290a0000000a00000a2a00002a2a0000d1
:102a40002a2a00002a2a00002a2a00002a2a000036
:102a50002a2a00002a2a00002a2a00002a2a000026
:102a60002a2a00002a2a00002a2a00002a2a000016
:102a70002a2a00002a2a00002a2a00002a2a000006
:102a80002a2a00002a2a00002a2a00002a2a0000f6
:102a90002a2a00002a2a00002a2a00002a2a0000e6
:102aa0002a2a00002a0a00002a20000057410000bc
:102ab000524e0000494e0000472000002d2000002b
:102ac000746800006973000020700000726f0000dd
:102ad00067720000616d00002077000061730000e4
:102ae000206300006f6d0000706900006c650000dd
:102af00064200000666f000072200000746800000f
:102b000065200000777200006f6e000067200000f3
:102b1000202a00000a2a00002063000068690000e3
:102b2000702e00002054000068690000732000002f
:102b3000707200006f670000726100006d2000007d
:102b40006d61000079200000707200006f64000069
:102b50007563000065200000756e00006578000058
:102b6000706500006374000065640000206200006e
:102b700065680000766900006f7200002120000087
:102b80002a0a00002a200000456400006974000041
:102b90002074000068650000206800006561000086
:102ba0006465000072200000666900006c6500002a
:102bb00073200000746f000020700000726f00002e
:102bc00070650000726c00007920000064650000f0
:102bd000666900006e6500002074000068690000ee
:102be000732000006368000069700000202a000064
:102bf0000a2a0000206100006e64000020740000ba
:102c00006f200000696e000073750000726500009f
:102c1000206300006f7200007265000063740000a2
:102c2000206f000070650000726100007469000090
:102c30006f6e00002e2000002020000020200000e9
:102c40002020000020200000202000002020000084
:102c50002020000020200000202000002a0a000080
:102c60002a2000002020000020200000202000005a
:102c70002020000020200000202000002020000054
:102c80002020000020200000202000002020000044
:102c90002020000020200000202000002020000034
:102ca0002020000020200000202000002020000024
:102cb0002020000020200000202000002020000014
:102cc0002020000020200000202a00000a2a000006
:102cd000204e00004f540000453a000020490000fb
:102ce000662000007468000069730000207700000f
:102cf00061730000206300006f6d000070690000c8
:102d00006c65000064200000666f00007220000007
:102d10007468000065200000636f0000727200009c
:102d200065630000742000006368000069700000a3
:102d30002c200000202000002a0a00002a20000089
:102d4000616e0000642000006f6e00006c7900006e
:102d5000206f0000636300007572000073200000a4
:102d600061740000207000006f7700006572000041
:102d70002d6f00006e200000286e00006f740000b0
:102d80002064000075720000696e0000672000007a
:102d9000612000004d4300004c5200002020000044
:102da00020200000202a00000a2a000020720000d3
:102db0006573000065740000292c00002076000077
:102dc00065720000696600007920000074680000e8
:102dd00061740000204100005644000044200000bf
:102de000616e000064200000415600005353000053
:102df0002061000072650000206300006f6e00001b
:102e00006e65000063740000656400002e20000001
:102e1000202000002a0a00002a2000004f6e000037
:102e20002074000068650000205000004943000045
:102e300032340000483300003247000050320000b6
:102e4000303200002c2000006e6f00007420000063
:102e5000636f00006e6e000065630000746900001f
:102e60006e6700002041000056440000442000002e
:102e70002020000020200000202000002020000052
:102e8000202a00000a2a000020700000726f000053
:102e90006475000063650000732000007468000022
:102ea00069730000206d000065730000736100000d
:102eb00067650000206f00006e6c00007920000044
:102ec00061740000207000006f77000065720000e0
:102ed0002d750000702e0000202000002020000032
:102ee00020200000202000002020000020200000e2
:102ef0002a0a00002a2a00002a2a00002a2a0000a2
:102f00002a2a00002a2a00002a2a00002a2a000071
:102f10002a2a00002a2a00002a2a00002a2a000061
:102f20002a2a00002a2a00002a2a00002a2a000051
:102f30002a2a00002a2a00002a2a00002a2a000041
:102f40002a2a00002a2a00002a2a00002a2a000031
:102f50002a2a00002a2a00002a2a00002a2a000021
:102f60000a00000046610000737400002052000057
:102f7000432000004f730000630a00000046000079
:102f8000617300007420000052430000204f0000d5
:102f9000736300002077000069740000682000005f
:102fa000504c00004c0a0000005000007269000004
:102fb0006d61000072790000204f00007363000013
:102fc00020280000585400002c2000004853000026
:102fd0002c20000045430000290a0000005000009a
:102fe000726900006d61000072790000204f0000de
:102ff0007363000020280000585400002c200000bb
:10300000485300002c200000454300002920000008
:103010007769000074680000205000004c4c0000ec
:103020000a00000053650000636f00006e6400003a
:1030300061720000792000004f730000630a0000f5
:10304000004c00006f770000205000006f770000f8
:103050006572000020520000432000004f73000002
:10306000630a000000460000617300007420000045
:1030700052430000204f0000736300002f31000016
:10308000360a000000460000617300007420000052
:1030900052430000204f0000736300002f4e0000d9
:1030a0000a000000556e00006b6e00006f77000094
:1030b0006e2000006f730000636900006c6c0000fc
:1030c000617400006f7200002074000079700000cd
:1030d000652e0000000a00004465000076690000cb
:1030e000636500002068000061730000206200003a
:1030f000656500006e200000696e0000207300000e
:103100006c65000065700000206d00006f640000b9
:10311000650a0000000a00004465000076690000ae
:1031200063650000206800006173000020620000f9
:10313000656500006e200000696e000020690000d7
:10314000646c0000652000006d6f00006465000085
:103150000a0000000a520000657300006574000058
:103160002063000061750000736500003a200000d4
:10317000005000006f770000657200002d6f0000a6
:103180006e2e00000a000000536f000066740000fd
:103190007761000072650000205200006573000036
:1031a000657400002e0a00000057000061740000e2
:1031b00063680000646f000067200000546900002d
:1031c0006d6500006f750000743a0000200000007b
:1031d0000a0000004d4300004c5200002061000036
:1031e0007373000065720000746900006f6e000068
:1031f0002e0a000000420000726f0000776e00008f
:103200002d6f0000757400002e0a000000540000ad
:103210007261000070200000436f00006e660000c5
:103220006c690000637400002e0a00000049000071
:103230006c6c000065670000616c000020430000ba
:103240006f6e000064690000746900006f6e00001a
:103250002e0a0000004300006f6e00006669000047
:103260006775000072610000746900006f6e0000f5
:10327000204d0000697300006d6100007463000060
:10328000682e00000a000000556e00006b6e000002
:103290006f7700006e20000072650000736500000b
:1032a000742e00000a00000045720000726f0000da
:1032b00072200000747200006170000070650000f0
:1032c000643a00002000000050720000696f0000a6
:1032d00072690000747900003a200000002c0000a0
:1032e0002056000065630000746f0000722000002b
:1032f0006e7500006d620000657200003a200000eb
:10330000000a00000a00000055410000525400006d
:1033100031200000706100007269000074790000c3
:1033200020650000727200006f7200000a00000049
:103330005541000052540000312000006672000028
:10334000616d0000696e000067200000657200007a
:10335000726f0000720a0000005500004152000028
:1033600054310000206f000076650000727200008a
:10337000756e000020650000727200006f72000020
:103380000a000000554100005254000032200000a5
:10339000706100007269000074790000206500000f
:1033a000727200006f7200000a00000055410000b8
:1033b000525400003220000066720000616d00006f
:1033c000696e00006720000065720000726f0000e7
:1033d000720a000000550000415200005432000003
:1033e000206f00007665000072720000756e0000ac
:1033f00020650000727200006f7200000a00000079
:10340000554100005254000033200000706100005c
:10341000726900007479000020650000727200007b
:103420006f7200000a000000554100005254000075
:103430003320000066720000616d0000696e0000bc
:103440006720000065720000726f0000720a0000c1
:10345000005500004152000054330000206f00006e
:103460007665000072720000756e00002065000035
:10347000727200006f7200000a00000055410000e7
:103480005254000034200000706100007269000096
:103490007479000020650000727200006f720000f5
:1034a0000a00000055410000525400003420000082
:1034b00066720000616d0000696e00006720000008
:1034c00065720000726f0000720a00000055000073
:1034d0004152000054340000206f00007665000067
:1034e00072720000756e00002065000072720000ac
:1034f0006f7200000a0000003078000000450000f4
:10350000727200006f720000206900006e200000df
:1035100062750000696c0000645c00006573000067
:103520006f7300005f6500006d620000656400005d
:103530006465000064460000313400005f33000021
:103540003345000050350000313200004750000084
:1035500038300000365c00006c690000625c0000de
:1035600073720000635c0000706900006332000049
:10357000345f00007365000072690000616c000038
:103580002e630000206c0000696e000065200000c2
:1035900032390000363a0000204900006e76000003
:1035a000616c000069640000205500004152000079
:1035b0005400000045720000726f0000722000008d
:1035c000696e000020620000756900006c640000f4
:1035d0005c650000736f0000735f0000656d0000a4
:1035e000626500006464000065640000463100000c
:1035f000345f0000333300004550000035310000d7
:103600003247000050380000303600005c6c00008b
:10361000696200005c730000726300005c7000006f
:1036200069630000323400005f73000065720000bf
:10363000696100006c2e0000632000006c690000ce
:103640006e65000020330000333500003a20000092
:10365000496e0000766100006c6900006420000083
:103660005541000052540000000500000302000014
:103670000100000050c3000030750000204e000023
:103680001027000088130000b80b0000d0070000ce
:10369000e8030000f40100002c010000c800000055
:1036a00064000000320000001e0000001400000052
:1036b0000a000000050000000300000002000000f6
:1036c00001000000050300000201000005030000e6
:1036d00002010000321e0000140a00000503000071
:1036e000020100000a620000756900006c640000bd
:1036f0005c650000736f0000735f0000656d000083
:1037000062650000646400006564000046310000ea
:10371000345f0000333300004550000035310000b5
:103720003247000050380000303600005c63000073
:103730006861000070310000345c000061700000be
:10374000705f000065630000686f0000312e0000ac
:10375000632c000020620000756900006c7400009a
:10376000206f00006e20000046650000622000000f
:1037700020340000203200003032000030200000f1
:103780006174000020310000343a0000333600003c
:0c3790003a340000390a0000000000007c
:020000040000fa
:10379c000000210001ba2100010878008000eb0034
:1037ac0011009800210098000204200032009800bb
:1037bc008000210003be210003087800110098004e
:1037cc002100980032009800df0d07000000060071
:1037dc000080fb004400de00e94f50000200360080
:1037ec007043b000010037000043b0000000060039
:1037fc006f406000e94f5000020036007043b0008b
:10380c00010037000043b00000000600881f78005c
:10381c0000047800284090000074a0002044980018
:10382c00180178000200e00004003200310520008d
:10383c00810f510027003a000c00370081417800bd
:10384c00b202210003497800118080008100e80059
:10385c006181880002042000828f500001003a0030
:10386c002c30ef0031052000010c78000028a3005b
:10387c000400320040c0b3002044980030c0b300b4
:10388c00180037006181800022808000810f510078
:10389c00030032000004a10020449800020037000d
:1038ac000004a00020449800284190000040eb0048
:1038bc000208a3000b003a00000021001081400018
:1038cc00b30221009341780003497800110098005d
:1038dc00740d070080c0b30020449800000ceb006e
:1038ec0030c0b3004f04780000000600889fbe0073
:1038fc000004780081447800284090000074a000f7
:10390c0020449800180078000000e0000400320009
:10391c00a1062000810f50003f003a00190037002b
:10392c0001c3b30040c521000148780081c7b30032
:10393c000000e8000148780009407800a4ff070067
:10394c0061c521008048780009407800a8ff070075
:10395c0071c52100804878000100e8000048eb00a8
:10396c002a70ef000210ec00408188000104200056
:10397c00810f500001003a002830ef00a006200013
:10398c00000c7800284090000028a30004003200ae
:10399c0040c0b3002044980030c0b3002200370070
:1039ac004181800022808000810f51000300320091
:1039bc000004a10020449800020037000004a0007d
:1039cc0020449800284190000040eb000208a3001e
:1039dc0015003a000000210090814000a202210055
:1039ec00124178000282fb0045c52100048242008e
:1039fc00944978000241e80002427800a3022100b9
:103a0c008449780011009800260d07002ad0bf00c9
:103a1c00e34f5000d3ff360080c0b3002044980021
:103a2c00000ceb0030c0b3004f04be0000000600d9
:103a3c00881f780000047800284090000074a000d3
:103a4c0020449800180078000000e00004003200c8
:103a5c0041082000810f500067003a0041003700f8
:103a6c002670ef0030c6b30080cf50000a0036003d
:103a7c000181fb004211de00b04721000011b800ab
:103a8c000301d100f0c4210003c3b300034841007b
:103a9c0010c0b30026f0b700e9cf50001400360078
:103aac0026d0bf000081fb00f3c4210082814100bd
:103abc000181fb00c212de00b4472100042ab800c9
:103acc008502d1004406200084aab90004015100eb
:103adc000281fb00d5cc2c000512b8004329de0076
:103aec0004c3b300844941000040e80026f0b7004d
:103afc0062022100124178008281fb00f0c4210097
:103b0c00830140008180fb00d4cc2c00040ab80057
:103b1c00432ade00ea22b9008480500004c3b300bb
:103b2c0084c940008240e80062022100014978000b
:103b3c008180fb00010040000048eb002770ef0083
:103b4c002a0037000210ec002081880001042000bc
:103b5c00810f500001003a002430ef004008200093
:103b6c00000c7800284090000028a30004003200cc
:103b7c0040c0b3002044980030c0b300220037008e
:103b8c002181800024808000810f520003003200cc
:103b9c000004a10020449800020037000004a0009b
:103bac0020449800284190000040eb000208a3003c
:103bbc0015003a00000021009081400072022100a3
:103bcc00124178000282fb00f5c4210004824200fd
:103bdc00944978000241e800024278007302210007
:103bec008449780011009800ae0c070027d0bf0064
:103bfc002650e300d3ff3e0080c0b3002044980061
:103c0c00000ceb0030c0b3004f047800000006003d
:103c1c00889fbe008a9fbe008c1f7800000678002b
:103c2c000204be002c4090000074a00020469800b6
:103c3c001c0078000000e00004003200410a200063
:103c4c00810f50005f003a003900370001c3b30008
:103c5c0040c421000148780081c7b3000000e8008f
:103c6c0001487800481dde000b0020000a40780057
:103c7c00d7fe070061c42100804878000a40780014
:103c8c00dbfe070071c4210080487800404dde0047
:103c9c000b0020000a407800cdfe070081c42100f3
:103cac00804878000a407800d1fe070091c42100ba
:103cbc0080487800c84dde004848dd004845de00ed
:103ccc000a0570000a407800c1fe0700a1c421005b
:103cdc00804878000a407800c5fe0700b1c4210076
:103cec008048780008407800b9fe0700c1c4210064
:103cfc008048780008407800bdfe0700d1c4210040
:103d0c00804878000100e8000048eb002270ef00ca
:103d1c000210ec000081880001042000810f50008b
:103d2c0001003a002030ef00400a2000000e78001d
:103d3c002c4090000028a3000400320040c0b300c7
:103d4c002046980030c0b30022003700018180006b
:103d5c0022808000810f5100030032000004a1007a
:103d6c0020469800020037000004a000204698006e
:103d7c002c4190000040eb000208a30015003a0013
:103d8c0000002100908140002202210012417800a5
:103d9c000282fb0045c42100048242009449780051
:103dac000241e80002427800230221008449780095
:103dbc00110098003b0c070022d0bf00e94f5000c7
:103dcc00d3ff360080c0b30020469800000eeb00f5
:103ddc0030c0b3004f0678004f05be004f04be0044
:103dec0000000600881f780000047800284090002e
:103dfc000074a00020449800180078000000e00037
:103e0c0004003200910b2000810f500033003a0067
:103e1c000e00370082417800c00121000348780071
:103e2c00d18088001d70ef002a0037000210ec00d2
:103e3c00f080880001042000810f500001003a003e
:103e4c001e30ef00900b2000000c780028409000f2
:103e5c000028a3000400320040c0b30020449800a6
:103e6c0030c0b30021003700f18080002480800036
:103e7c00810f5200030032000004a100204498007e
:103e8c00020037000004a000204498002841900054
:103e9c000040eb000208a30014003a0002002100cd
:103eac0012824000d3012100934178000380fb0073
:103ebc001a10b400104a78008341e80003427800dd
:103ecc00d00121000448780011019800f50b07007f
:103edc001c70ed001c50e200d4ff3a0080c0b3000f
:103eec0020449800000ceb0030c0b3004f04780065
:103efc0000000600a04190000374a000234098002d
:103f0c00900178000300e00004003200d40c200083
:103f1c00848f510034003a00070037005301210010
:103f2c0082497800b18088001870ef002a003700b1
:103f3c00d30c200003087800a04190000328a300b4
:103f4c000400320041c0b3002140980033c0b300dc
:103f5c002900370084002100940290002402900074
:103f6c00848f5200030032000304a1002340980008
:103f7c00020037000304a000234098002042900068
:103f8c008041eb000408a3001b003a000c30ec004d
:103f9c000304200065808000838f520001003a00ea
:103fac000c30ef0083012100934178008400210044
:103fbc009402780024029000848242000382fb0069
:103fcc0004824000154a78008341e800834278005f
:103fdc0084012100054a7800830121009341780077
:103fec0082cf5100d2ff390081c0b300214098002c
:103ffc000008eb0033c0b30003407800000006005b
:10400c00204190000274a00022409800100178001a
:10401c000200e00004003200e30d2000830f510089
:10402c003a003a00030037001470ef00e20d200054
:10403c0002087800204190000228a30004003200fe
:10404c0041c0b3002140980032c0b30033003700a8
:10405c008300210013029000a3019000830f5200f3
:10406c00030032000204a100224098000200370035
:10407c000204a00022409800a04190000041eb00f7
:10408c000308a30025003a000c30ec0002042000c9
:10409c0063808000828f510001003a000c30ef00e9
:1040ac004301210093417800820021001202780024
:1040bc002201900002014200124178000382fb00b1
:1040cc0004824000024a7800ea4f51000a00320094
:1040dc00ed4f5100080032000204e00006003200ef
:1040ec008341e80044012100034a7800e2c3b30095
:1040fc0082cf5100cdff36004201210012417800e1
:10410c000281fb00828040008048eb0081c0b3003c
:10411c00214098000008eb0032c0b3000240780048
:10412c0000000600881f78000004780028409000ea
:10413c000074a00020449800180078000000e000f3
:10414c0004003200210f2000810f500029003a009a
:10415c000a00370081808800230037000210ec0031
:10416c009080880001042000810f500001003a006b
:10417c001230ef00200f2000000c78002840900037
:10418c000028a3000400320040c0b3002044980073
:10419c0030c0b3001b00370091808000228080006b
:1041ac00810f5100030032000004a100204498004c
:1041bc00020037000004a000204498002841900021
:1041cc000040eb000208a3000e003a0002002100a0
:1041dc009281400080808000b04978008080880007
:1041ec00110198002f0b0700808080001004e00064
:1041fc00daff3a0080c0b30020449800000ceb00ba
:10420c0030c0b3004f0478000000060080417800f5
:10421c000210ec0001042000810f500001003a0054
:10422c000000eb000410e300feff3200010021004f
:10423c00110140000349780090009800190b070009
:10424c0000000600889fbe008a1f7800904078000e
:10425c000104e00011003200000478000904200081
:10426c000005eb000210ec00890f500001003a0031
:10427c000a0078000410e300feff32000200210067
:10428c00920140008149780010019800050b07004d
:10429c00d84078000104e000f2ff3a004f057800a6
:1042ac004f04be000000060080002100900090002a
:1042bc0020009000808f5000fbff32000c30ec008f
:1042cc00000420000c10e30001003a000c30ef0059
:1042dc0080002100900078002000900000804000b9
:1042ec0010407800000006008000780023032100b5
:1042fc00934178000000eb00efcf510058003e00d6
:10430c00a5c18000818f520014003200648421000a
:10431c000043eb00064078000641780017c0b3005c
:10432c00040037009402780072024200818f520020
:10433c000c0032000604e00004003a000500e00026
:10434c0002003a0002407800074378000241e8007e
:10435c00f04f5100f3ff3a00420037000040eb00f1
:10436c00004178008280fb0004832100f20bb9002d
:10437c00860342008002eb00850b78008483e80002
:10438c0086834300854b780006034200060b9000a1
:10439c0016037800250398008382fb000695210004
:1043ac0085024300824a78008341e800834278000a
:1043bc0022032100054978000080fb00f201b900be
:1043cc0002024200740190000200e00007003a0073
:1043dc00a28180000201e800a2818800f200b900ed
:1043ec00e38321000300400002087800f208b900c2
:1043fc0001832100010040001900370004832100d3
:10440c0022c1b3000440bc0082024200a102980009
:10441c008000eb00810a78000483e800020343006b
:10442c00014b7800050990001201780021019800d9
:10443c008380fb00029521008100410080487800b8
:10444c008341e80083407800200321000148780074
:10445c003410ec00a0818800f00298000500780070
:10446c00000006000604e000e4ff3a000000eb0048
:10447c00fbff37000003780024032100144278006e
:10448c000040eb000404e00018003200f39421001b
:10449c008000eb00078321005340780000c1e80046
:1044ac00e14f51000d00360022c1b3000440bc00a6
:1044bc000280430020009000860f500007003a0055
:1044cc000095210081024000e0cfb300804a7800c3
:1044dc003010a80010c0b300040037008100e800c1
:1044ec00814f5200ecff3e000040eb000000060044
:1044fc000003780025032100954278000000eb00b2
:10450c000504e00011003200f39421008040eb0020
:10451c00048321005340780000c1e800e14f5100b2
:10452c000600360022c1b3000440bc000400410068
:10453c0020019000860f5100040032008140e800f9
:10454c0085cf5000f3ff39000000eb00000006009f
:10455c000003780025032100954278000000eb0051
:10456c000504e00011003200f39421008040eb00c0
:10457c00048321005340780000c1e800e14f510052
:10458c000600360022c1b3000440bc000400410008
:10459c0070019000860f5100040032008140e80049
:1045ac0085cf5000f3ff39000000eb00000006003f
:1045bc0000cb80000000e0000500320021972100b4
:1045cc00100020001100e00006003a000100370046
:1045dc000000eb00f200b900019621000100400040
:1045ec00050037000000e800f2804000f00f50009a
:1045fc00f4ff3a000000eb0000000600d0818800b8
:10460c00e181880000000600d0818000e1818000fb
:10461c0092e52b00828ab900661a24008683b900c1
:10462c00060242000201b80083014200400ade008b
:10463c0005002000711a240081abb9000120b800dc
:10464c0081004300cf0ade00410bdd004f02de008b
:10465c0004027300040141008581490000f0a100af
:10466c008000eb00c002dd000400200002004200cc
:10467c0083804a0004003b00120020000300280045
:10468c000000410081804900d0818800e1818800d0
:10469c0000000600889fbe008100400052dc29000b
:1046ac00c3112800810f500020003100c812dd001a
:1046bc00040020000204410083844900441bdd00f7
:1046cc00cc13de00870373004413dd0008044300a1
:1046dc0089844b000804410089844900471bdd0094
:1046ec00c913de00870373004713dd000804430081
:1046fc0089844b00481bdd00c813de008703730060
:10470c004813dd000801430089814b00020142007f
:10471c0083814a003082fb008002eb0004016900b7
:10472c0085816900808f5000e0ff3e0002816900a6
:10473c00020078004f04be0000000600810040001b
:10474c00810f5000260031001283800023838000eb
:10475c000203410083834900441add00cc12de00c1
:10476c00850272004412dd000602420087824a0074
:10477c000402410085824900471bdd00c913de009d
:10478c00870373004713dd000402430085824b004e
:10479c00481bdd00c813de00870373004813dd00df
:1047ac000402430085824b00c811dd00020020008a
:1047bc00040141008581490012838800238388000d
:1047cc003082fb008002eb000401690085816900e6
:1047dc001283880023838800808f5000daff3e000c
:1047ec001083800021838000000006001004e0008c
:1047fc0026003200128380002383800002034100d4
:10480c0083834900441add00cc12de00850272005d
:10481c004412dd000602420087824a000402410075
:10482c0085824900471bdd00c913de008703730036
:10483c004713dd000402430085824b00481bdd005a
:10484c00c813de00870373004813dd000402430025
:10485c0085824b00c811dd000200200004014100dc
:10486c008581490012838800238388001082fb0015
:10487c008002eb00040169008581690012838800c5
:10488c00238388005004e000daff3a001083800094
:10489c0021838000000006000080680000000600f4
:1048ac0000c1b30000000600889fbe008a9fbe00b6
:1048bc000004be000205be003a0a070008015000c1
:1048cc0089815800880f5000898f580002003100f0
:1048dc0061015100e0815900100020008a0f510045
:1048ec008b8f590001003e000000eb004f05be000d
:1048fc004f04be0000000600889fbe008a9fbe00c9
:10490c0069032100994478000904e0002100320079
:10491c000044eb001b0020000aa821000880fb00cb
:10492c008058dd00c28180008100610015003200da
:10493c00ea02b900e6004200810045000083eb006a
:10494c008083eb0031014300a1814b000402450040
:10495c003202980043029800e00f5100e08f59009a
:10496c0007003a008400780011019000a10190002a
:10497c00b2009800c30098001100780000000100fc
:10498c008944e9000904e000020032000844e80010
:10499c00e2ff37004f05be004f04be0000000600ca
:1049ac00889fbe008a9fbe000205be0069032100dd
:1049bc009944780080c2eb00efcf540021003e00f8
:1049cc00c68180000608a300090032008000eb00bd
:1049dc00170020008142e8008100e8000104780003
:1049ec008139dd000682610013003a0003003700b4
:1049fc00130020000004eb008042eb00ea44b900f5
:104a0c0001a82100088440008800780080187800f4
:104a1c008a88be003a0498004b0498008944e80048
:104a2c00894078006003210001487800030373007b
:104a3c00c681880003003700ef8f5000e5ff3a0075
:104a4c0080c2eb00054078004f05be004f04be004d
:104a5c00000006008081fb00120020000311dd0025
:104a6c00c1818000010261000040eb0009003200ae
:104a7c00ea18b90003a82100808141008009eb00ed
:104a8c003670ed000281ea0001006100c0818800ef
:104a9c0010c0b3000000060000037800630321007f
:104aac009341780000c0eb000304e00012003200d8
:104abc00c58180000040eb001400200007a82100f5
:104acc008080fb000121dd00050161000500320042
:104adc00ea09b90082804300910f130006003200ee
:104aec008341e9000304e000020032000040e800ca
:104afc00f3ff370000c0eb00000006000202be000e
:104b0c008080fb00130020008119dd00c081800033
:104b1c00830160000040eb0005003200ea08b90098
:104b2c0022a82100820040008488be0010c0b3007f
:104b3c0000000600889fbe008a9fbe008c9fbe00ae
:104b4c008e1f780049832100fd9421004a96210094
:104b5c000b0721000c0b21000004eb000b07780065
:104b6c000000eb00800c780080eeeb00000d78006c
:104b7c004240dd000e004000e0049800c340dd0020
:104b8c0002b22100828d40008c0078001b070700c8
:104b9c000804e800f284440072054500e4854500f1
:104bac008c07b000f00f5400edff3a003830ef00e6
:104bbc0000a82100020a2000000141008000eb0047
:104bcc00010878006a004000820f5000fcff3a0098
:104bdc003270ef003370ef003670ef0000012000f0
:104bec00d08188003c30ef00620907003f090700c4
:104bfc00e7fa0700f60607004f0778004f06be00dd
:104c0c004f05be004f04be0000000600889fbe008a
:104c1c008a9fbe008c9fbe008e1f7800c5ff0700c8
:104c2c003430ef00fe942100098321008e06e80049
:104c3c002c0321001c4678000c04e000110032000b
:104c4c008e0578000044eb005b85fb00f250b90048
:104c5c008080440001007800a10090000100010058
:104c6c00e34f500004003a00f255b9000a854400a5
:104c7c002a009000fffd07000844e800884f56000a
:104c8c00f1ff3e00838180000308a300e8ff32009f
:104c9c0022032100124178000280fb0000804600b4
:104cac00e1cfb30090cf10000f003a000240e800b3
:104cbc00804f5600070036008080fb008180460044
:104ccc0011427800f4f89f000040e800804f560035
:104cdc00f9ff3e000c80fb000080460080c0eb001a
:104cec0071f89f000c46e9000204e000020032005b
:104cfc000241e900e8ff37000c40780032f0b700c1
:104d0c000300a10083818800c9ff370000017800ef
:104d1c008001eb00909e2e000100200009f7070097
:104d2c0066015000e08158002210880007e2a800bc
:104d3c0000000600204290000474a000244098005b
:104d4c009001780025052000858f51002800320045
:104d5c0006003e000300e0000b00320002052000bc
:104d6c00828f510068003a000c003700510520007a
:104d7c00818f510034003200e3804000818f51005c
:104d8c0061003a004e00370082427800d3042100c3
:104d9c008549780002052000020878000428a30049
:104dac000400320041c0b3002140980032c0b3006f
:104dbc0059003700321080007f01610003003a0077
:104dcc000404a10024409800020037000404a00051
:104ddc0024409800a04190000041eb000308a30080
:104dec004d003a000662a800220520000208780057
:104dfc00204190000228a3000400320041c0b300ff
:104e0c002140980032c0b300430037000822ab00a9
:104e1c00030032000204a100224098000200370077
:104e2c000204a00022409800a04190000041eb0039
:104e3c000308a30038003a00021080008248780072
:104e4c005105200001087800a04090000128a30023
:104e5c000400320041c0b3002140980032c0b300be
:104e6c002d003700321080007f01610003003a00f2
:104e7c000104a10021409800020037000104a000a9
:104e8c0021409800a04090000041eb000108a300d5
:104e9c0021003a00d104210091407800e1806000ab
:104eac00c508dd00321080000250a10002817000a4
:104ebc00321088000682a8008105200001087800c5
:104ecc00a04090000128a3000400320041c0b300b0
:104edc002140980032c0b3000f0037000682ab00af
:104eec0003003a000104a1002140980002003700a1
:104efc000104a00021409800a04090000041eb006c
:104f0c000108a30004003a0081c0b30021409800be
:104f1c000008eb0032c0b30002407800000006002d
:104f2c00a04290000574a000254098001002780063
:104f3c00c6062000860f52002d00320006003e00ef
:104f4c000400e0000b003200b1062000810f52007b
:104f5c006d003a000f003700e1062000810f52006f
:104f6c003c003200e3804000810f520066003a00a2
:104f7c005300370001437800c4042100064a78002e
:104f8c0052828800438288000602a800b1062000e5
:104f9c00010878000528a3000400320041c0b300ca
:104fac002140980031c0b3005b0037000602ab0013
:104fbc0003003a000504a1002540980002003700c8
:104fcc000504a00025409800204190008040eb0093
:104fdc000208a30050003a00c1042100914078005f
:104fec00e10fb20011108800c10620000108780002
:104ffc00a04090000128a3000400320041c0b3007f
:10500c002140980031c0b3004300370009c2ab0007
:10501c0003003a000104a10021409800020037006f
:10502c000104a00021409800204190008040eb003a
:10503c000208a30038003a004630ef001900370090
:10504c00518280009180fb0011108800e106200045
:10505c0001087800a04090000128a3000400320051
:10506c0041c0b3002140980031c0b3002a00370082
:10507c0009c2ab0003003a000104a10021409800d2
:10508c00020037000104a00021409800204190004c
:10509c008040eb000208a3001f003a004a30ec00ed
:1050ac004630ec004182800032828000810f51003a
:1050bc00e3ff39000642a800110720000108780020
:1050cc00a04090000128a3000400320041c0b300ae
:1050dc002140980031c0b3000f0037000642ab00ee
:1050ec0003003a000104a10021409800020037009f
:1050fc000104a00021409800204190008040eb006a
:10510c000208a30004003a0081c0b30021409800bb
:10511c000008eb0031c0b30001407800000006002d
:10512c00889fbe0000047800284290000474a00000
:10513c00244498001800780065082000850f500062
:10514c003000320006003e000000e0000e0032008d
:10515c0051082000810f500092003a0012003700d5
:10516c00b1082000810f5000610032008100e8007e
:10517c00810f500079003200e4805000810f500004
:10518c0088003a0037003700814278004004210043
:10519c000548780012828800038288000602a80065
:1051ac0050082000000c78000428a30004003200f2
:1051bc0040c0b3002044980030c0b3007d003700dd
:1051cc000602ab0003003a000404a100244498003a
:1051dc00020037000404a00024449800a84090006a
:1051ec000040eb000108a30072003a0044d0bf005d
:1051fc000004a0000080fb00101088006008200054
:10520c00000c7800284090000028a3000400320015
:10521c0040c0b3002044980030c0b3006500370094
:10522c0009c2ab0003003a000004a100204498001e
:10523c00020037000004a00020449800a840900011
:10524c000040eb000108a3005a003a003e30ef008a
:10525c0020003700c0c621000008eb0080082000a9
:10526c00000c7800284090000028a30004003200b5
:10527c0040c0b3002044980030c0b3004d0037004c
:10528c00198280000041eb0089007800c0c6210023
:10529c00a8fe0700e24f50000400360028409000a2
:1052ac000004a1002044980003003700284090001f
:1052bc000004a00020449800a84090000040eb009f
:1052cc000108a3003b003a008904e8001982880019
:1052dc003e30ec004010ed003e10e300ddff3900e5
:1052ec00c0c621000008eb00b0082000000c7800bc
:1052fc00284090000028a3000400320040c0b300f6
:10530c002044980030c0b3002a00370012c0b3000c
:10531c0011828000c0c6210086fe0700e24f5000bb
:10532c0004003600284090000004a100204498009e
:10533c0003003700284090000004a000204498008f
:10534c00a84090000040eb000108a30019003a00af
:10535c000642a800c0082000000c780028409000ed
:10536c000028a3000400320040c0b3002044980081
:10537c0030c0b3000f0037000642ab0003003a0008
:10538c000004a10020449800020037000004a00093
:10539c0020449800a84090000040eb000108a300b6
:1053ac0004003a0080c0b30020449800000ceb00cd
:1053bc0030c0b3004f04be00000006008001eb00bb
:1053cc001300980023009800020878003100980020
:1053dc00000006008002780001437800a5019000cf
:1053ec0015017800828f51000b00310015029000de
:1053fc0084814100110009008281d80001017800ec
:10540c00b50190008281410086497800a50090008a
:10541c008100e800a102980000000600000278005c
:10542c0081427800a4019000140190008281410017
:10543c0014017800110009008281d8000101780064
:10544c00b4019000028141000549780024019000cc
:10545c00940f510006003a00940090008100e8007f
:10546c00110009008280d800110298000200370058
:10547c000201e80022029800000006008002780079
:10548c0001037800a501900015017800828f51006e
:10549c001a003100150290008481410011000900ae
:1054ac008281d80001017800b50190008281410011
:1054bc0086497800a50190008301e800a3029800ba
:1054cc0015017800828f51000c00310015029000fc
:1054dc0084814100110009008281d800010178000b
:1054ec00b501900082814100c830de00814978000e
:1054fc00a50090008100e800a102980000000600c1
:10550c0000037800a600900016027800848f5000eb
:10551c00380031009602900085804000110009008f
:10552c008480d800360290008100420082487800c6
:10553c00a60090008100e800210398001602780074
:10554c00848f50002b003100960290008580400023
:10555c00110009008480d8003602900081004200be
:10556c00c81ade004818dd004812de000402700084
:10557c0084487800a60090008100e8002103980080
:10558c0016027800848f50001a00310096029000a9
:10559c0085804000110009008480d80036029000fc
:1055ac0081004200401ade0005002000844878008b
:1055bc00a60090008100e8002103980016027800f4
:1055cc00848f50000b0031009602900085804000c3
:1055dc00110009008480d80036029000810042003e
:1055ec004819de0082487800a60090008100e8008f
:1055fc002103980000000600881f780080037800c3
:10560c00010478000200e000140032008001eb007d
:10561c00a702900017027800848f52000c00310012
:10562c001703900086824200110009008482d80082
:10563c0001027800b7029000848242000302440009
:10564c00944a7800270290000402e800a403980012
:10565c008301e800830f5100edff3e004f047800fa
:10566c0000000600000278009400900034019000c5
:10567c0001014100924178008100e800140178009a
:10568c00110009008280d80011029800a40090003b
:10569c008100e90021029800034078000000060018
:1056ac000003780036029000960090000101420041
:1056bc0092427800160178008100e8001100090080
:1056cc008280d80011039800a60190008301e900a4
:1056dc00230398008582fb000102420014427800eb
:1056ec008100e800110009008280d80011039800a5
:1056fc008301e900230398004820dd0005004000e9
:10570c0000000600889fbe008a9fbe008c9fbe00d2
:10571c0000067800bc0690009c01900003814600b6
:10572c00124378001c0178008301e8001100090085
:10573c008281d80081017800130698002c02900019
:10574c000402e900240698000683fb008003eb00aa
:10575c0083824600154578008301e800110009009a
:10576c008281d80081017800130698000402e900b8
:10577c00240698000a85fb008005eb00485cdd00e0
:10578c00c854de00890474004854dd00080343004b
:10579c0089834b0083824600154478008301e8001e
:1057ac00110009008281d80081017800130698004d
:1057bc000402e900240698008884fb0008002000fd
:1057cc000603440087834c00838046009142780096
:1057dc008301e800110009008281d80001017800e2
:1057ec00120698000402e90024069800c829dd007e
:1057fc000200200006004100878049004f06be00d1
:10580c004f05be004f04be000000060000037800e8
:10581c000200e00013003200810378008001eb00ed
:10582c00b60290001602900004824200945b78004d
:10583c00960290008502e80016027800110009001b
:10584c008482d8000102780014039800260290008c
:10585c000402e900240398008301e800830f51003f
:10586c00efff3e0000000600da040700000006000f
:10587c000000060000000600000006006a10e200ae
:10588c0002003a00508388000000fe000000060071
:10589c000001be0080007800a30288001080ba00ce
:1058ac001101ba008000eb00c000dd0000002000f8
:1058bc008001eb0002007000838070000000060085
:1058cc00889fbe008a9fbe008c9fbe008e1f7800f2
:1058dc0000002000f10f2000edff07000006be00c5
:1058ec0020002000f10f2000e9ff07000005be009a
:1058fc00d0872100800f5600e08f5e0003003a0035
:10590c00e94d29001ec0b30002003700094f2900e1
:10591c000047eb00884f290020002400800f550021
:10592c00e08f5d0001003200084f2900b04f2900c4
:10593c00ea0107000c00be001c0207008050290081
:10594c00e601070009007800e4010700b0502900c7
:10595c00e20107000a00be00140207008050290073
:10596c00de01070008007800dc01070080512900e7
:10597c00da0107000e04e00002003a00b0512900e1
:10598c00d60107004f0778004f06be004f05be003a
:10599c004f04be0000000600103a80004c00de00f0
:1059ac0067006000e30f50001800320006003c0056
:1059bc00e10f50000f00320011003c000000e0002d
:1059cc000900320020003700e50f500015003200ae
:1059dc0011003500e60f500015003200e70f5000a3
:1059ec0019003a0015003700207b2900bb01070085
:1059fc0017003700f07b2900b801070014003700ae
:105a0c00507d2900b501070011003700f07e2900f8
:105a1c00b20107000e00370020812900af010700fa
:105a2c000b00370010822900ac010700080037007a
:105a3c0030832900a90107000500370030842900b4
:105a4c00a601070002003700208529008bff070004
:105a5c00000006004067ab0003003200b08629004e
:105a6c009e0107004067a9004047ab0003003200cd
:105a7c00b0882900990107004047a900a08a290095
:105a8c00960107004007ab0008003200908b2900fc
:105a9c00920107004007a9004027a9006a30ef00d7
:105aac006830ef006c30ef00370037000040eb003f
:105abc0040c7ab0005003200408c2900870107006d
:105acc0040c7a90040e7a90010c0b3004087ab0055
:105adc000b003200508d29008001070040838000ac
:105aec000000e000010032007c010700808e2900dc
:105afc007a0107004087a90040e7a90010c0b30055
:105b0c0040e7ab0004003200a08e290073010700af
:105b1c0040e7a90010c0b3004027ab0004003200de
:105b2c00b08f29006d0107004027a90010c0b300f9
:105b3c004007e20004003d00709029006701070057
:105b4c0041e7a90010c0b30041c7ab00040032000c
:105b5c00709129006101070041c7a90010c0b30072
:105b6c004127ab0004003200b09229005b01070012
:105b7c004127a900040037000004e00002003a00ad
:105b8c0040942900550107006a10e200140032000d
:105b9c004095290051010700508380004f010700f8
:105bac006c10e2000a003200409629004b010700fd
:105bbc00608380004800de006f40600069010700d0
:105bcc00f0962900450107006cd0bf006501070065
:105bdc0010982900410107006a30ef006c30ef008b
:105bec0037ff07006cff070000000600881f7800d5
:105bfc00000478001cff0700004028003100200042
:105c0c002b02070093ff0700080078003301070000
:105c1c004f04780000000600881f7800020478000a
:105c2c000401be0047f307000800e0000f003a0033
:105c3c006f016000e70f5100050036004c09dd00d4
:105c4c004400de0000007100c408de0015003700bf
:105c5c004c09dd004400de0000007100c408de00c9
:105c6c0061005000e08058000e00370063016000b6
:105c7c00e10f5100050036004e09dd004200de0048
:105c8c0000007100c208de00060037004e09dd007e
:105c9c004200de0000007100c208de00610050000e
:105cac00e08058004f047800000006004005070013
:105cbc00000006002262ab000300320030118000ad
:105ccc0040982900edfe07002242ab000300320091
:105cdc003011800080992900e8fe07002222ab00d9
:105cec00030032002222a900d09a2900e3fe07000b
:105cfc0000000600889fbe00804478002322ab0081
:105d0c000500320008202000dafe07001111800087
:105d1c0001006400fcff3a008984fb002911880013
:105d2c004f04be00000006001011800061406000ae
:105d3c00000006002202ab0003003a00cdfe070073
:105d4c002202ab00fdff3200daff070030118000a9
:105d5c00000006001f4ea900114ea8001b4ea90002
:105d6c001d4ea90002f82f002336800003016100ac
:105d7c00a202b30022368800500ea900560ea900cc
:105d8c005a0ea9005c0ea90002fc2f00733480008f
:105d9c00030161000200a000723488002022ef0091
:105dac000002be000001eb0020722b001139200014
:105dbc0099ff07004011880000002800001188009e
:105dcc000040210010118800909e2e000100200040
:105ddc00b6ff07002222a900010037003011800015
:105dec002262ab00fdff3a002242ab00fbff3a00ff
:105dfc00000006003262ab0003003200b0118000dc
:105e0c00209c29009dfe07003242ab0003003200ab
:105e1c00b0118000609d290098fe07003222ab0073
:105e2c00030032003222a900b09e290093fe070025
:105e3c0000000600889fbe00804478003322ab002f
:105e4c0005003200082020008afe07009111800016
:105e5c0001006400fcff3a008984fb00a911880052
:105e6c004f04be00000006009011800061406000ed
:105e7c00000006003202ab0003003a007dfe070072
:105e8c003202ab00fdff3200daff0700b0118000d8
:105e9c00000006003022ef000002be000001eb0003
:105eac0020722b00113920005bff0700c011880005
:105ebc00000028008011880000402100901188000b
:105ecc00909e2e000100200078ff07003222a900ce
:105edc0001003700b01180003262ab00fdff3a00c8
:105eec003242ab00fbff3a00000006005262ab00ee
:105efc0003003200b012800000a029005ffe0700f2
:105f0c005242ab0003003200b012800040a12900c5
:105f1c005afe07005222ab00030032005222a900a5
:105f2c0090a2290055fe070000000600889fbe00c5
:105f3c00804478005322ab0005003200082020007a
:105f4c004cfe07009112800001006400fcff3a0037
:105f5c008984fb00a91288004f04be0000000600d3
:105f6c009012800061406000000006005202ab00fd
:105f7c0003003a003ffe07005202ab00fdff320067
:105f8c00daff0700b0128000000006005022ef007c
:105f9c000002be000001eb0020722b001139200022
:105fac001dff0700c0128800000028008012880026
:105fbc000040210090128800909e2e0001002000cd
:105fcc003aff07005222a90001003700b0128000ee
:105fdc005262ab00fdff3a005242ab00fbff3a00ad
:105fec0000000600b262ab0003003200b015800066
:105ffc00e0a3290021fe0700b242ab0003003200ef
:10600c00b015800020a529001cfe0700b222ab00b1
:10601c0003003200b222a90070a6290017fe070067
:10602c0000000600889fbe0080447800b322ab00bd
:10603c0005003200082020000efe0700911580009c
:10604c0001006400fcff3a008984fb00a91588005c
:10605c004f04be00000006009015800061406000f7
:10606c0000000600b202ab0003003a0001fe07007c
:10607c00b202ab00fdff3200daff0700b015800062
:10608c0000000600b022ef000002be000001eb0091
:10609c0020722b0011392000dffe0700c01588008c
:1060ac000000280080158800004021009015880011
:1060bc00909e2e0001002000fcfe0700b222a900d9
:1060cc0001003700b0158000b262ab00fdff3a0052
:1060dc00b242ab00fbff3a0000000600881f7800bc
:1060ec0000047800184078000004e000040032003e
:1060fc0046f80700584078000004e000fcff3a0026
:10610c004f04780000000600881f780000447800d7
:10611c000880fb004400de00e94f5000030036000d
:10612c007043b00039f80700020037000043b0009c
:10613c0036f807006f446400e94f54000400360041
:10614c0071c3b3000140440030f80700030037006e
:10615c0001c3b300014044002cf807004f04780041
:10616c0000000600881f780000447800c0a72900b2
:10617c00daff070008407800e3ff07004f047800bf
:10618c0000000600881f780000047800c0a72900d2
:10619c00d2ff07004840de00dbff07000840780014
:1061ac00d9ff07004f04780000000600889fbe004e
:1061bc000004be00c0a72900c8ff07004848de0045
:1061cc0001002000d0ff07004048de000100200045
:1061dc00cdff07004849dd004840de00000071009b
:1061ec00c848de00c8ff070008407800c6ff07005b
:1061fc004f04be00000006000600fa0001c3b30005
:10620c00a1ff9f00b1ff9f00c1ff9f008040eb00ea
:10621c00d1ff9f0071ccb300814f500003003600ba
:10622c0021c3b300a1ff9f008043b00031c6b3006f
:10623c00814f500005003600aff897008140e80010
:10624c00a1ff9f00c1c9b3000140400094b62900d2
:10625c0022b629008040eb00d4417800834f5000d7
:10626c00090039008182fb00c22ade00e58352005e
:10627c006fc37b001243430086437800e5825200d3
:10628c0087f77a00034050008140e8000201e800e3
:10629c00e8cf5000f0ff3a000040eb00d0ff9f0029
:1062ac00668057008dff07000080fa000000060092
:1062bc000600fa00881f780001c3b30081ff9f001d
:1062cc0091ff9f00a1ff9f00b1ff9f00c1ff9f00a6
:1062dc0083b329008000eb0057b3290081027800ba
:1062ec0053017800800f51000b003e000182fb002f
:1062fc004222de00e3826200058343006804520000
:10630c00ef427c0096c242000543780008027800f8
:10631c0086777a00020050008100e800f48f50006c
:10632c00eeff3a000040eb00d0ff9f006880570062
:10633c006aff07004f0478000080fa000000060096
:10634c0090e48000e20f50000b00320003003c0090
:10635c00e10f50000e003a0005003700e30f50002b
:10636c0007003200e40f500009003a000600370025
:10637c0070fe070009003700befe0700070037005b
:10638c00fafe07000500370036ff07000300370050
:10639c00f0a7290039fd07000040eb0000000600c3
:1063ac00881f7800e6ff070000447800084078005a
:1063bc0096f70700084078004f04780000000600ac
:1063cc00889fbe008a9fbe008c1f780081057800d4
:1063dc00024678008004eb000b00e0001100320054
:1063ec0000047800080578000c04e000020032007c
:1063fc00ebff070001003700d1ff0700ea4f500008
:10640c0007003200ed4f500005003200005c7800b0
:10641c00080578008904e800898f5500f1ff3e00db
:10642c00004deb00090078004f0678004f05be00c8
:10643c004f04be000000060012c0b300e0ff0700ce
:10644c00000006000041eb00ddff07000000060025
:10645c0090e48000e20f50000b00320003003c007f
:10646c00e10f50000e003a0005003700e30f50001a
:10647c0007003200e40f500009003a000600370014
:10648c0029fe07000900370077fe070007003700d8
:10649c00b3fe070005003700effe070003003700ce
:1064ac00a0ad2900f5fc07000040eb000000060041
:1064bc001200200092e4880026fe0700000006006f
:1064cc00881f780000047800284090000074a00019
:1064dc002044980018007800d1082000810f50004b
:1064ec002900320006003e000000e0000b003200e4
:1064fc008100e900810f500072003a00090037005a
:10650c0001092000810f50003b0032008100e8009f
:10651c00810f50006b003a0050003700c00820007b
:10652c00000c7800284090000028a30004003200e2
:10653c0040c0b3002044980030c0b3006500370061
:10654c00818180000138a30003003a000004a100ff
:10655c0020449800020037000004a000204498005a
:10656c00284190000040eb000208a30059003a00bb
:10657c000130a0008181880020c321000008eb00bd
:10658c00d0082000000c7800284090000028a300c0
:10659c000400320040c0b3002044980030c0b30067
:1065ac004c00370012c0b3006106210020c321004b
:1065bc0050f60700e24f50000400360028409000cf
:1065cc000004a100204498000300370028409000ec
:1065dc000004a00020449800a84090000040eb006c
:1065ec000108a3003b003a003070a9006670ec0073
:1065fc0000092000000c7800284090000028a3001f
:10660c000400320040c0b3002044980030c0b300f6
:10661c0030003700818180000128a30003003a007c
:10662c000004a10020449800020037000004a000e0
:10663c0020449800284190000040eb000208a30081
:10664c0024003a000120a0008181880000c22100b2
:10665c000008eb0010092000000c78002840900086
:10666c000028a3000400320040c0b300204498006e
:10667c0030c0b3001700370061062100914078004c
:10668c0000c2210061f40700e24f50000400360004
:10669c00284090000004a10020449800030037001b
:1066ac00284090000004a00020449800a8409000ce
:1066bc000040eb000108a30006003a003050a9008e
:1066cc0096ff370080c0b30020449800000ceb000c
:1066dc0030c0b3004f04780000000600881f78001b
:1066ec0000047800284090000074a000204498001a
:1066fc00180078000000e00004003200e1072000e0
:10670c00810f50002c003a0011003700a07080005f
:10671c000080ea004f00de004f00dd00a170800019
:10672c0001f0a10081007000a17088009d0207009b
:10673c003004980041049800401f20000100200004
:10674c005004980061049800e0072000000c7800c9
:10675c00284090000028a3000400320040c0b30081
:10676c002044980030c0b300170037005801900047
:10677c00e801900038009000c80090004af807002b
:10678c000000e00004003200284090000004a1004a
:10679c002044980003003700284090000004a0001b
:1067ac0020449800a84090000040eb000108a30092
:1067bc00d6ff32000400370080c0b300204498009c
:1067cc00000ceb0030c0b3004f0478000000060052
:1067dc001feea90011eea9001beea9001deea900e9
:1067ec0040372300c0f6070060262300bef60700e2
:1067fc0020b7290093f6070000000600820720004e
:10680c0010007800edfa070000000600889fbe001b
:10681c008a1f7800800478000104780048409000ba
:10682c006f40600018417800410020008110dd00ad
:10683c00814040000908900010007800e5fa07003c
:10684c009800900009089000100078000bfb0700de
:10685c00540207000001be00890890001100780066
:10686c0027fb07001880fb000008a3000f00320074
:10687c00484090000004e000310032000045eb007d
:10688c008a80fb008100440009089000a148900018
:10689c0010007800cffa07000a45e8004840900045
:1068ac008a4f5000f6ff3e00250037000018a30069
:1068bc0011003200484090000004e000200032003b
:1068cc000045eb000a80fb00650040000000400022
:1068dc0080004400090890009100780010007800b6
:1068ec00e6fa07000a45e800484090008a4f50003d
:1068fc00f4ff3e00120037000028a3001000320005
:10690c00484090000004e0000d0032000045eb0010
:10691c008a80fb00c208dd00810044000908900059
:10692c0051019000e101900010007800f4fa07008a
:10693c000a45e800484090008a4f5000f4ff3e00a2
:10694c004f0578004f04be0000000600889fbe0073
:10695c008a1f7800800478000104780009089000f0
:10696c00100078003ffb07008080fb00c408de00ad
:10697c00014c78006f40600040449800090890007a
:10698c001000780046fb07001004980009089000de
:10699c00100078005bfb070030049800410498005d
:1069ac001880fb000008a3000f0032004840900044
:1069bc000004e000320032000045eb0009089000b2
:1069cc001000780027fb07008a80fb008100440040
:1069dc00a04898000a45e800484090008a4f5000b3
:1069ec00f6ff3e00260037000018a300110032000d
:1069fc00484090000004e000210032000045eb000c
:106a0c00090890001000780025fb07008a80fb0025
:106a1c00e5804000818040008100440080087800bf
:106a2c000a45e800484090008a4f5000f4ff3e00b1
:106a3c00130037000028a3001100320048409000da
:106a4c000004e0000e0032000045eb000908900045
:106a5c00100078002bfb07000001be008a80fb00b1
:106a6c00c208dd0081004400d2009800e3009800c9
:106a7c000a45e800484090008a4f5000f3ff3e0062
:106a8c001880fb000038a3000700320018009000ab
:106a9c00aff607000000e00003003200a0409000b9
:106aac000154a100214098004f0578004f04be000e
:106abc0000000600000006000200fa00ff3ffc0088
:106acc00113a8000f1bf9f00670160004811dd00a2
:106adc00f18f2f00ffb99700818061008100710058
:106aec000170a1000100a000f1bf9f00fff9970009
:106afc008381fb00a2092000810720003474200050
:106b0c00014a7800024a7800034a7800eff89700af
:106b1c008181fb0072052000610420002474200098
:106b2c00014a7800024a7800034a78000000fc0011
:106b3c004207ab00feff3a00e14f5000020032006a
:106b4c00e34f500004003a0001022000133a800089
:106b5c0003816000fdff32008080fb00103a800052
:106b6c004c00de0067006000810f5000fbff3a0014
:106b7c000080fa0000000600000006000040eb0058
:106b8c00cdff070000fc2f004827b60000000600d0
:106b9c000040eb00c8ff070000fc2f004827b600a0
:106bac0000fe2f004407b6007000b300203a8800a6
:106bbc0000e02f004607b600100cb300303a8800f6
:106bcc00f0f32f004427b60010c0b300baff070043
:106bdc00000006000040eb00b7ff070000fc2f0090
:106bec004827b60000fe2f004427b60000e02f0017
:106bfc004607b600f003b300303a8800f0f32f00dc
:106c0c004427b60010c0b300abff0700000006001d
:106c1c000040eb00a8ff070000fc2f004827b6003f
:106c2c0000fe2f004427b60000e02f004607b600f8
:106c3c00a004b300303a8800f0f32f004427b600cc
:106c4c0010c0b3009cff0700000006000040eb00e2
:106c5c0099ff070000fe2f004427b60000e02f002c
:106c6c004607b6006002b300303a8800f0f32f00fc
:106c7c004427b60030c0b3008fff070000000600a9
:106c8c0020c0b3008cff07000000060020429000db
:106c9c000474a0002440980010027800e50620003f
:106cac00850f5200270032008582e800850f5200c4
:106cbc00380032000400e00053003a00c182880022
:106ccc00d2828800b38288000100e00002003a0002
:106cdc005270ef000300370014c0b30023052100ed
:106cec00844978000200e00002003a005370ef0083
:106cfc000300370013c0b3003205210003497800ac
:106d0c0040c2ab000100320040c2a9000148a900fa
:106d1c00411280005430ef00370037005250e2002f
:106d2c0005003200c18280003102780044128800d4
:106d3c00c1828800010037004822ef00e1062000e4
:106d4c0001087800a04090000128a3000400320044
:106d5c0041c0b3002140980031c0b3002e00370071
:106d6c004022ab0003003a000104a100214098002e
:106d7c00020037000104a00021409800204190003f
:106d8c008040eb000208a30023003a00010720001a
:106d9c0001087800a04090000128a30004003200f4
:106dac0041c0b3002140980031c0b3001a00370035
:106dbc004002ab00030032000104a1002140980006
:106dcc00020037000104a0002140980020419000ef
:106ddc008040eb000208a3000f003a004212800032
:106dec005350e20003003200d182800082187800f8
:106dfc00d18288005430ec00b1828000a2828000e5
:106e0c00810f5100c5ff390081c0b30021409800ab
:106e1c000008eb0031c0b300014078000000060010
:106e2c000001be002062a90020722b001139200045
:106e3c00c4ee0700c409de004c0add004401de008c
:106e4c000201720061015100e08159004211880079
:106e5c0000000600630060000000400091ff2f005e
:106e6c000211800082806000810070000111880096
:106e7c00000006000040e900610060000111800084
:106e8c000100a100810070000111880000000600c3
:106e9c00f0cf2f002022b60021e2a8002342a80048
:106eac00000006002188a800000006002188a90027
:106ebc00000006001f4ea900114ea8001b4ea90091
:106ecc001d4ea90002f82f0023368000030161003b
:106edc00a202b30022368800500ea900560ea9005b
:106eec005a0ea9005c0ea90002fc2f00733480001e
:106efc00030161000200a00072348800c8ff070083
:106f0c000040eb00d3ff070010c0b300d9ff07000f
:106f1c000168a900f1ff2800204280000081600078
:106f2c000000250002017000224288002168a800a0
:106f3c002242800082806000810070002142880023
:106f4c00d3ff07000000060000402800310020009d
:106f5c00d8ff07000000060000c4b30000000600c4
:106f6c0000c4b3000000060010c0b300000006000f
:106f7c000800fa0011002000c1bf9f008100200012
:106f8c00d1bf9f0001042000e1bf9f000110200031
:106f9c00f1bf9f000080fb00000040006800500023
:106fac006f0078000080fa0000000600889fbe0089
:106fbc008a9fbe00000278000300e00003003a0044
:106fcc00048050008000eb001200370061001200ba
:106fdc0002004000610bb80006004000e0804b004e
:106fec00611db80061055500e0855d008001eb0076
:106ffc0061044100e084490088dbb9008ac9b9000a
:10700c00020343000851b800830143000000410013
:10701c00818049004f05be004f04be0000000600f1
:10702c00808f5000020039000080500003003700b0
:10703c00008050000000e800020040000000060044
:020000040000fa
:10704c0066100000020000008000000070100000bc
:10705c00300b0000800000006210000004000000f3
:10706c0082000000c59d1c00810000002e10000055
:10707c001000000080000000a01b0000ba000000ff
:10708c0080000000001000002e00000080000000b6
:10709c006e10000002000000800000005a1c00006e
:1070ac0026000000800000003e10000010000000d0
:1070bc0080000000801c0000120000008000000016
:1070cc004e1000000e000000800000005c1000005c
:1070dc000600000080000000921c0000020000006e
:0c70ec0082000000010000000000000015
:020000040000fa
:1070f80005428000cc2ade00e7c2620024428000fc
:107108004c22de006742620033428000e7c1610022
:1071180042862000008420008000eb0001187800df
:10712800820f5000fdff3a00cc28dd00f0ff280058
:10713800054280000501600002817000024288005b
:10714800cc20dd004408b600008070002042880092
:107158006780610081ff2f003242800082806000da
:10716800810070003142880000000600000006001f
:1071780099fe070000000600fdff0700000220003e
:1071880020088800703a2000100888000021ef00cd
:107198000068a900000027004028b7002068a80060
:1071a80005e1a80000000600e0828000f18280006e
:0471b80000000600cd
:020000040000fa
:1071bc00f03fb1000180b10006003500ee0309007c
:1071cc0000000000403fb1000180b100fbff3d001a
:1071dc001000b000203fb000020035000080090014
:0871ec00000000000000060095
:020000040000fa
:0200000401f009
:04000800cfff000026
:020000040000fa
:0200000401f009
:04000c0078ffff007a
:020000040000fa
:0200000401f009
:040010005bffff0093
:020000040000fa
:0200000401f009
:0400140079ffff0071
:020000040000fa
:0200000401f009
:04001800f8ffff00ee
:020000040000fa
:0200000401f009
:04001c00dfffff0003
:00000001FF
