:020000040000fa
:080000000013040000000000e1
:020000040000fa
:1000080002100000061000000a1000000e10000088
:1000180012100000161000001a1000001e10000038
:1000280022100000261000002a1000002e100000e8
:1000380032100000361000003a1000003e10000098
:1000480042100000461000004a1000004e10000048
:1000580052100000561000005a1000005e100000f8
:1000680062100000661000006a1000006e100000a8
:1000780072100000761000007a1000007e10000058
:1000880082100000861000008a1000008e10000008
:1000980092100000961000009a1000009e100000b8
:1000a800a2100000a6100000aa100000ae10000068
:1000b800b2100000b6100000ba100000be10000018
:1000c800c2100000c6100000ca100000ce100000c8
:1000d800d2100000d6100000da100000de10000078
:1000e800e2100000e6100000ea100000ee10000028
:1000f800f2100000f6100000fa100000fe100000d8
:1001080002110000061100000a1100000e11000083
:1001180012110000161100001a1100001e11000033
:1001280022110000261100002a1100002e110000e3
:1001380032110000361100003a1100003e11000093
:1001480042110000461100004a1100004e11000043
:1001580052110000561100005a1100005e110000f3
:1001680062110000661100006a1100006e110000a3
:1001780072110000761100007a1100007e11000053
:1001880082110000861100008a1100008e11000003
:1001980092110000961100009a1100009e110000b3
:1001a800a2110000a6110000aa110000ae11000063
:1001b800b2110000b6110000ba110000be11000013
:1001c800c2110000c6110000ca110000ce110000c3
:1001d800d2110000d6110000da110000de11000073
:1001e800e2110000e6110000ea110000ee11000023
:1001f800f2110000f6110000fa110000fe110000d3
:1002080002120000061200000a1200000e1200007e
:1002180012120000161200001a1200001e1200002e
:1002280022120000261200002a1200002e120000de
:1002380032120000361200003a1200003e1200008e
:1002480042120000461200004a1200004e1200003e
:1002580052120000561200005a1200005e120000ee
:020000040000fa
:102000000200000016140400000000001614040072
:102010000000000016140400000000001614040064
:102020000000000016140400000000001614040054
:102030000000000016140400000000001614040044
:102040000000000016140400000000001614040034
:1020500000000000161404000000000094140400a6
:102060000000000016140400000000001614040014
:102070000000000016140400000000001614040004
:1020800000000000161404000000000016140400f4
:102090000000000016140400000000007214040088
:1020a00000000000461404000000000016140400a4
:1020b00000000000161404000000000016140400c4
:1020c00000000000161404000000000016140400b4
:1020d00000000000161404000000000016140400a4
:1020e0000000000016140400000000001614040094
:1020f0000000000016140400000000001614040084
:102100000000000016140400000000001614040073
:102110000000000016140400000000001614040063
:102120000000000016140400000000001614040053
:102130000000000016140400000000001614040043
:102140000000000016140400000000001614040033
:102150000000000016140400000000001614040023
:102160000000000016140400000000001614040013
:102170000000000016140400000000001614040003
:1021800000000000161404000000000016140400f3
:1021900000000000161404000000000016140400e3
:1021a00000000000161404000000000016140400d3
:1021b00000000000161404000000000016140400c3
:1021c00000000000161404000000000016140400b3
:1021d00000000000161404000000000016140400a3
:1021e0000000000016140400000000001614040093
:1021f0000000000016140400000000001614040083
:102200000000000016140400000000001614040072
:102210000000000016140400000000001614040062
:102220000000000016140400000000001614040052
:102230000000000016140400000000001614040042
:102240000000000016140400000000001614040032
:102250000000000016140400000000001614040022
:102260000000000016140400000000001614040012
:102270000000000016140400000000001614040002
:1022800000000000161404000000000016140400f2
:1022900000000000161404000000000016140400e2
:1022a00000000000161404000000000016140400d2
:1022b00000000000161404000000000016140400c2
:1022c00000000000161404000000000016140400b2
:1022d00000000000161404000000000016140400a2
:1022e0000000000016140400000000001614040092
:1022f0000000000016140400000000001614040082
:102300000000000016140400000000001614040071
:102310000000000016140400000000001614040061
:102320000000000016140400000000001614040051
:102330000000000016140400000000001614040041
:102340000000000016140400000000001614040031
:102350000000000016140400000000001614040021
:102360000000000016140400000000001614040011
:102370000000000016140400000000001614040001
:1023800000000000161404000000000016140400f1
:1023900000000000161404000000000016140400e1
:1023a00000000000161404000000000016140400d1
:1023b00000000000161404000000000016140400c1
:1023c00000000000161404000000000016140400b1
:1023d00000000000161404000000000016140400a1
:1023e0000000000016140400000000001614040091
:1023f0000000000016140400000000001614040081
:102400000000000016140400000000001614040070
:102410000000000016140400000000001614040060
:102420000000000016140400000000001614040050
:102430000000000016140400000000001614040040
:102440000000000016140400000000001614040030
:102450000000000016140400000000001614040020
:102460000000000016140400000000001614040010
:102470000000000016140400000000001614040000
:1024800000000000161404000000000016140400f0
:1024900000000000161404000000000016140400e0
:1024a00000000000161404000000000016140400d0
:1024b00000000000161404000000000016140400c0
:0424c0000000000018
:020000040000fa
:10260000afe021000eff27000e018800000000004f
:10261000000020000000e000020032000001200065
:102620002002880014000700470107000000e000b6
:1026300003003a00405d2400010020000200370042
:102640000000200001002000810f70000100320016
:102650000f000700000020000000e0000200320030
:1026600000000200000000008e35020000000000a3
:102670000040da000000fe00207820000000e000aa
:1026800002003200002020009001880000000600b7
:10269000a1028800800478000000eb001f003700d2
:1026a000e284440054a0b4009905ba00e2844400d6
:1026b00054a0b4009906ba00e284440054a0b400c7
:1026c0000006eb00476fde00fd07b200ae01880098
:1026d000636ce10003003a000ad801000000eb003f
:1026e0000e003700606ce10008003a00004deb007e
:1026f0000a05e800020039003420ec000af0a000ce
:102700008b05e900f9ff3e00040037006168e10035
:10271000010032000086eb000b00070019c7ba0069
:102720000e04e0001905ba0003003a000a00e000b8
:10273000dbff3a0000000600fe07b200ae02880090
:102740008a047800f5ff37000cd0a300e20f4d009b
:102750001c00390089027800354dba000a05e800ee
:10276000020039003420ec000af0a0008b05e900db
:102770000f003200254dba000a05e80002003900ba
:102780003420ec000af0a0008b05e90008003200bc
:102790000c00e0000600320015cdba000a05e80082
:1027a000020039003420ec000af0a0008b05e9009b
:1027b0008984e80054a0b4000b00e000e2ff3a0076
:1027c000000006009902ba00055d78008b05e9005b
:1027d000f7ff3200c82ade00055d78008b05e900ae
:1027e000f3ff32000c00e000f1ff320019ddba0007
:1027f000eeff37002c3a040000000000723904009c
:1028000000000000203b04000000000066390400c6
:1028100000000000c615040000000000f0170400ce
:102820000000000000000400000000003600f80076
:10283000809fbe00829fbe00849fbe00869fbe0018
:102840003200f8003400f80010002000a0018800d9
:10285000002020009001880000000000c808f80057
:102860007610f900e03c2a00101507003400f9004a
:102870003200f9004f03be004f02be004f01be0000
:102880004f00be003600f90000400600809fbe00e9
:10289000000021009000900020009000808f5000e8
:1028a00002003a002188a9000c0037000430ec0037
:1028b000000420000410e30001003a000430ef009f
:1028c0000188a900000021009000780020009000fd
:1028d000008040001080fb00201188004f00be00e7
:1028e00000400600809fbe00821f78000168a9009a
:1028f000311180000a30ec00000420000a10e300cf
:1029000001003a000a30ef00800021001001780039
:102910001000900000004100014878004f0178004d
:102920004f00be00004006003600f800809fbe0049
:10293000829fbe00849fbe00869fbe0030838000c1
:102940004183800061004000e080480030838800bf
:10295000418388000068a900ab0f07004f03be0049
:102960004f02be004f01be004f00be003600f9000e
:10297000004006000a00fa0011002000b1bf9f00cd
:10298000c0bf9f006a805700620607004fb89700db
:102990000080fa00000006000a00fa00e20f500072
:1029a00034003e00f0ec8000e10f500003003200e4
:1029b000e20f500011003a000c0037000322200003
:1029c0000300e00001003a000040da002002e200cb
:1029d000020035002822ef0021e2a8002342ab00cc
:1029e0000d003a002342a8000b003700032320000b
:1029f0000300e00001003a000040da003002e2008b
:102a0000020035003822ef0031e2a8003342ab006b
:102a100001003a003342a800820178000b00370021
:102a20003102fb00e10f500004003a002322ab000a
:102a3000feff3a0024118800030037003322ab0068
:102a4000feff3a00a41188008301e9000300e000c2
:102a5000f3ff3a00e10f500003003a002302ab00fd
:102a6000feff32000b0037003302ab00feff3200e6
:102a70000800370033002000b3bf9f00c0bf9f0095
:102a8000d1bf9f00e2bf9f006a8057002306070066
:102a90006fb99700020078000080fa00000006007d
:102aa0000a00fa0051002000b1bf9f00c0bf9f0084
:102ab0006a8057001b0607005fb897000080fa0085
:102ac00000000600889fbe008004780020ed800092
:102ad0000000e00004003a000e0007000084eb0054
:102ae0000000e0000800350028ed80000900e0004b
:102af0000500320009004400060007000000e00065
:102b000001003d000084eb00080078004f04be0087
:102b100000000600800078000100e00003003a0099
:102b200060da210020ed8800000005000080eb0045
:102b3000a2e02100828f500002003e0021ed8800bb
:102b40000000eb0000000600000005006022b80055
:102b5000060220000000d0008180d2000482d20052
:102b60008582d2000000a0000202520083825a0037
:102b7000030031000202420083824a000000a100eb
:102b80000603e900f3ff3a0000000600889fbe003c
:102b90000004780001007800820478008801780041
:102ba00009017800110020000e000700890f500075
:102bb000010032000004eb00080078004f04be0062
:102bc000000006000000fa00e88157004fb99700a6
:102bd000c1c82100605c21005a0107000080fa0092
:102be00000000600889fbe008a9fbe008c9fbe002a
:102bf0008e1f78000006780001047800020078003b
:102c0000830478008881b900020778000e00e00094
:102c1000420032000800e000410032008e057800da
:102c2000c900900069009000808f500004003900b6
:102c300009007800500007000000e000290035007e
:102c400000402000190060000a0032000b017800eb
:102c5000a10020000c0078003600070080067800f4
:102c60000d00e00006003200610516000a854600ee
:102c7000040037000b0578008006eb0001003700e8
:102c80000b05780049009000e9009000808050001a
:102c90008a8f500002003100010578008006eb00a9
:102ca0000a0178008c0078002c0007008a85550006
:102cb000490090000a004000c00498000d00e000a8
:102cc0000400320009007800d60007000000e00090
:102cd00004003a000b00e000020032000a06460041
:102ce000cfff370000802000190060000200320092
:102cf00009007800cb00070000c020001900600028
:102d00000200320049009000e00498008b05570053
:102d1000110009008885d800010037000000eb0091
:102d20004f0778004f06be004f05be004f04be009f
:102d30000000060003003700b0cf1000050032008d
:102d40000201e900800178000200e000faff3a0089
:102d500000000500030078000000060080017800f4
:102d600002003700b15978000201e9000200e000da
:102d7000fcff3a0000000600889fbe008a1f780012
:102d800000047800c8009000680190000000eb008b
:102d9000828f50003c003900180078002200290082
:102da00002016000e20f5100070032000120240000
:102db0000000e00001003d0001202000008c7000b8
:102dc0000080eb00300037000200260002006000a7
:102dd000820f500009003a0038009000808f5000a8
:102de00006003900080078008e0007008000780097
:102df0000080eb000100e00023003a001805780095
:102e000000c020000000650018003a00a8049000ef
:102e10006002200008004000808f540013003a0038
:102e20000020200000030700200498000000e000bc
:102e300005003a0029049800490498008904e80034
:102e400039049800080037000a60a0000a0c7800d6
:102e50004004980001202000808040003104980048
:102e6000400c9800500c98000c00070028009000bf
:102e7000500498003800900060049800000026007c
:102e8000180c70000000eb004f0578004f04be00e6
:102e900000000600007f21009d003700881f780099
:102ea00008da21001804e00003003a00f9ff0700e7
:102eb00020c0b300004c78004f04780000000600ea
:102ec000889fbe00000478000800780055000700c5
:102ed0008004780000042000180060000200320026
:102ee000280090006b0207000000eb00200498000f
:102ef000384090000004e000050035000000fb00b1
:102f00009cfe07000000e000010032008084eb001e
:102f1000181090000000e00008003200e0fe0700fa
:102f20000000e000010032008084eb0018109000e7
:102f3000580207000000eb00101498000008200061
:102f400018006000150032000001eb006000b800be
:102f50000202d000c3cd210003024200940f1400ee
:102f600005003a00000040008180480000804100d8
:102f70000008eb000600370061004000e0804800d8
:102f80000201e800e80f5000e08f5800f0ff3a001f
:102f9000080078003f0207000e003700000c7800a0
:102fa00000c0eb00304498006002200008004000a0
:102fb000200498004004980050049800400c9800a9
:102fc00060049800500c980070049800760044004b
:102fd000000c9800090078004f04be0000000600b5
:102fe000881f78000004eb006140b800e2ff2f006a
:102ff000f3ff2f00df040700a2ce21008000410074
:10300000110078000000e00001003200acff070072
:103010000804e800e80f5400f3ff3a004f0478007a
:1030200000000600889fbe00000478000800e00051
:103030000f003a008004eb008800d000c0cd2100d2
:1030400000804000100078000000e0000400320022
:10305000f4ff07000000e00001003d008084eb0069
:103060000804e800e80f5400f3ff3a002500370099
:1030700000002200180060008004eb0021003200f4
:10308000a80490000f00370009015100384090005b
:103090000000fb00890078003ffe07000000e00010
:1030a00007003c002800900040049800600498004d
:1030b000500c98001890a0008084eb00110037009d
:1030c0008084440048019000828f5400eeff390054
:1030d00028009000400498009800780002c020006a
:1030e0000281600001003a003800900001e8a3006e
:1030f000020032006004980001003700500c980074
:103100008004eb00090078004f04be0000000600b8
:10311000010020000100e0000900320001008000f1
:103120000100e000060032008100e9000100880093
:103130008100d0000200800082804000800878007a
:10314000000006006200fa00889fbe008a1f780017
:10315000000578008104780002047800830078007c
:1031600080f92f000f004000680407009a979f0025
:10317000a9979f000000eb00b09f9f001885fb00ff
:103180008a04fb000a05ea004f55de0050022000c9
:10319000808f54000d003200e10f55000b003a0003
:1031a0000a017800880078002f9097009f9197007f
:1031b00003000100a0979f000000e0008e00320095
:1031c0003f9897000000e800b09f9f000a04440069
:1031d00050022000808f5400040032000900e000fb
:1031e000e6ff3a003f989700840037000000eb00ac
:1031f000909f9f00809f9f00f0979f00e0979f0007
:10320000d0979f00c0979f000700370021d821006a
:10321000010050000000400061d721008080400084
:103220005f98970011007000d09f9f00880478007d
:1032300009047800384578008a00fb0020d8210076
:10324000230207000000e000f0ff3a00a1c2b30033
:10325000814f55000e003a00cf8897000180e900a9
:10326000c08f9f0010007800c09f9f000000e0000a
:1032700005003d000000ea00c09f9f005f98970096
:103280000020a000d09f9f000904e8000f00370035
:10329000c09f9f000000eb0005003700f2ff2700f1
:1032a000820f500002003200ea00b90000804000a6
:1032b0000904780088047800b900fb000103b1001c
:1032c000e98f5000f5ff3600c09f9f00e0c2b300b9
:1032d000984f1000020032000080eb001900370008
:1032e000a0c2b300d84f100007003a00cf88970063
:1032f0000180e900c08f9f0010007800a09f9f0010
:103300000804e800100037000000eb00a09f9f00b9
:103310008800780005003700f3ff2700830f500076
:1033200002003200ea00b900000041000104780008
:10333000880078003101fb000203b100e90f510061
:10334000f5ff3600a09f9f00984478008900fb009d
:10335000e0d62100de0107000000e000020032009c
:103360000804e800010037008044eb00c97f9f009b
:1033700080c6b30080cf540004003a0098cf1400f8
:103380000a003a006640500006003700c0c6b3008d
:1033900080cf540005003a0098cf140003003a0093
:1033a00065404000c07f9f000804e8001801fb0052
:1033b000e3fb2f008f81410081f92f008f804000b7
:1033c000a0f92f000f004000100007000000e000ef
:1033d00009003a00e1fb2f008f804000a0f92f0088
:1033e0000f0040000d0307000000e0000200350060
:1033f0000804e80061ff37000080eb004f0578000b
:103400004f04be000080fa0000000600889fbe0046
:103410008a9fbe00e4c6b300844f5100ce00320044
:1034200010003c006b425200844f510018003200e3
:1034300005003c0054c2b300844f51000601320025
:1034400084c5b3000f00370044c6b300844f510059
:103450001500320065424200844f510001013a00dc
:103460001100370004c7b300844f5100ed00320053
:103470005f00350065424200844f51005c0032001d
:1034800063424200844f5100f6003a005800370072
:103490001181e90082087800f000900081814100ec
:1034a00092497800f500370020629000c5c6b3004d
:1034b000854f520008003a00910278006482520061
:1034c0008408780094029000140278004fabde006c
:1034d000860378001600370015c7b300854f5200e9
:1034e00003003a0011047800680254000500370018
:1034f000a5c6b300854f520008003a009104780039
:10350000688254008408780094029000240390009c
:10351000b403900014027800050037001182e9001e
:103520008408780014027800cfa2de00612bb90075
:103530000498be000690be00a060900088c6b3004c
:1035400088cf50000d00320028c6b30088cf50004d
:1035500004003a000402fb00cfa2de00612bb90098
:103560000800370048c7b30088cf5000030032007e
:103570006644440088cf500004003a00cfa2de0029
:10358000612bb9000498be000690be0010027800be
:103590009002900020039000b0039000f000900093
:1035a000e00f5200e08f5a00e00f5b00e08f5b00fd
:1035b00003003d0001824100d5c2b3000a0037007c
:1035c000001290000418a3000300320001824100a1
:1035d000b5c2b300040037000408a300590032004c
:1035e0000182410005c2b300054a7800530037004c
:1035f00020629000c5c6b300854f520009003a0012
:1036000011057800640255008408780014047800dd
:10361000940490006055b8000802be000a03be0082
:103620001600370015c7b300854f520003003a005b
:10363000910478006882540005003700a5c6b300e5
:10364000854f520008003a001105780068025500c5
:10365000840878009402900024039000b403900042
:1036600014027800050037001182e9008408780010
:10367000140278008002eb006033b8000498be00aa
:103680000690be00a060900088c6b30088cf5000ae
:103690000d00320028c6b30088cf500004003a0065
:1036a0000482fb008002eb006033b80008003700a2
:1036b00048c7b30088cf500003003200664444007e
:1036c00088cf500004003a008002eb006033b8005d
:1036d0000498be000690be00801090000138a30040
:1036e0001800320010027800900290002003900031
:1036f000b0039000e00f5200e08f5a00e00f5b0033
:10370000e08f5b000f00320081c7b300814f510092
:103710000300320081c5b300814f510009003a0017
:10372000f00090000182410005c3b300054a780013
:103730008100e80001824100024a78008100e8002f
:1037400071009800f00090008181410063009800b2
:10375000824078003e003700a0619000c4c6b300ec
:103760001181e90084cf5100220032000a003c00a0
:103770006442520084cf51002500320004c2e800a8
:1037800084cf5100130032006842520084cf5100b0
:103790001e003a000a00370044c7b30084cf51002e
:1037a0001b0032006642420084cf510018003200f4
:1037b0006942520084cf510014003a0005003700de
:1037c0008208780092007800405890008048780085
:1037d0002c0037008208780092007800600a900080
:1037e000cfa2de00612bb9008498be008690be0097
:1037f0002400370082087800920078006009900069
:10380000cf91de008288be001e0037001181e900e2
:1038100082087800920078006008900080087800a4
:10382000180037001181e900820878001202780040
:10383000cfa2de00612bb9000498be000690be0046
:10384000f0009000818141006300980081c7b300bf
:10385000b50007000b003700f000900081814100a7
:1038600005003700f0009000818141000204e00073
:1038700001003a0052c2b300824978008100e8009a
:10388000710098000000eb004f05be004f04be0021
:10389000000006000000e0002f003200c0017800a8
:1038a000e38f51002c0036000308a3002a003a00e1
:1038b000e1ec80000100e00002003200810f5000c6
:1038c0000400310011009800e0ec88001600370079
:1038d00082007800110190000200e0000200320036
:1038e000800f5100faff39001102780084824000f5
:1038f000850f500018003900808f520003003a00f5
:103900008308420001007800070037000200e00051
:103910000300320083014000830f51000e00390084
:103920001200980090009800900090000100e000c4
:103930000900320010014000828f500006003a005a
:10394000a2d921000009eb00100178001108410004
:10395000910090001100980000000600889fbe00b2
:1039600000047800d1ec80000100e0000200320089
:10397000010078000d003700e1ec8000c0d9210083
:1039800004003700910f5400250036000180e80044
:10399000910090000100e000faff3a0010003700ab
:1039a000920f54001e0036000280e80010017800db
:1039b0000200e000faff3a0011017800e1ec80001b
:1039c000c0d9210004003700910f540014003600c4
:1039d0000180e80091009000828f5000faff3a00c9
:1039e00019ed8000888f54000100310088047800b0
:1039f00009007800420007000000e00004003a00df
:103a0000888f5400050032008904d100f5ff37008b
:103a1000091878009fff0700d2ff37000000eb0075
:103a20004f04be0000000600881f780063044000b9
:103a30000800a1008000eb00800f54002100360038
:103a4000e30f540001003e00480020000800780009
:103a5000c2ff07008000eb000000e0001900320008
:103a6000900078009101780064815100880f510026
:103a700003003100110190000208780007003700b0
:103a8000088140000208780091019000130198001d
:103a900010017800110914008808780010017800de
:103aa0000000eb000200e0000400320092019000f0
:103ab0000300e000010032000280e800d0ec880042
:103ac0008180e800010078004f04780000000600c3
:103ad000020037000304e000060032000001780015
:103ae00002007800b041780081cf5100f9ff3a0020
:103af000010037000001eb00020078000000060022
:103b0000800078000000eb000100e00005003400b8
:103b100001007800ebfb0700e10f400001003a00d4
:103b20000000eb0000000600fc874700889fbe00f5
:103b30008a9fbe008c9fbe008e1f78000006780012
:103b400080c5b30080cf50000a00320077404000ab
:103b500080cf50000a0032006940400080cf500002
:103b60000b003200d0d5210080bf9f00ae002000a6
:103b70000a003700c2d4210082bf9f000600370030
:103b8000d3d5210083bf9f008e00200003003700a3
:103b9000d4d5210084bf9f000e0120001c027800b4
:103ba0009c0290002c039000bc0390000605be0010
:103bb0000404be0040c6b30080cf500003003200b2
:103bc0006540400080cf50000b003a00e00f5200eb
:103bd000e08f5a00e00f5b00e08f5b0006003d00c5
:103be0006000b8006011b8000404500085845800db
:103bf0000605590087855900e80f57000400320078
:103c000040002000f00f57003c003a000100370050
:103c100030002000e00f5400e08f5c00e00f5d00fa
:103c2000e08f5d0004003a00dc0890008d01200068
:103c30000100e000070032008e00e900888060008b
:103c40008fba97008180420091407800f1ef9f0089
:103c50007d012000800078008100e900050033002c
:103c60008b05d1000a85d3008984d3000884d30052
:103c7000f9ff3700089ebe000a96be001300370009
:103c80008d06e9008e00e900848060000fb997007e
:103c9000810041001141780083fd2f008d8141009a
:103ca00082f77900800178008301e9000500330084
:103cb0008783d1000683d3008582d3000482d3009a
:103cc000f9ff3700049ebe000696be001c02780075
:103cd0009c0290002c039000bc039000e00f520067
:103ce000e08f5a00e00f5b00e08f5b009300340030
:103cf0000d00e000e2ff3c00900037002c609000d7
:103d000081c6b300814f50000b00320006003c001a
:103d10000004e00008003200e6c05000814f50006f
:103d200052003a0004003700c1c6b300814f500072
:103d30004e003a00230037000800e00004003a007b
:103d40005c0890008d0120000000e00007003200b8
:103d5000110009000e84d8000fba9700010042003c
:103d600010407800f0ef9f007d0120001100090055
:103d70000e84d8000b003700110009000e04d80093
:103d80008d06e9008e81b900020454008fb89700b7
:103d9000088440009841780082fd2f000d01410009
:103da00083777900000478000800e0000200320008
:103db0000d00e000f0ff3c00cfc4de00614db90013
:103dc00027003700e00f5400e08f5c0004003a0049
:103dd0005c0890008d0120000000e0000800320027
:103de0006171b9000800be005f0107000fba9700bb
:103df0008000420091407800f1ef9f007d0120009b
:103e00006171b9000800be0050fb07000c003700cc
:103e10006171b9000800be00440107008d06e90089
:103e200080f1b900020454008fba97000884420060
:103e30009841780082fd2f000d01410083777900c1
:103e40000004be00e00f5000e08f58000200320076
:103e50000d00e000eeff3c004fcdde008a0578004b
:103e6000089ebe000a96be0034003700e00f5400e2
:103e7000e08f5c00e00f5d00e08f5d0004003a0021
:103e80005c0890008d0120000000e0000a00320074
:103e90006172b900612bb9000800be000a01be00c2
:103ea000dc0107000fba97008000420091407800c3
:103eb000f1ef9f007d0120006172b900612bb90014
:103ec0000800be000a01be00cb0107000e0037004b
:103ed0006172b900612bb9000800be000a01be0082
:103ee000d00107008d06e90080f2b90004045400f7
:103ef0008fba9700088442009842780084fd2f0012
:103f00000d02420085777a00009ebe000296be0038
:103f10001c0478009c0490002c059000bc059000c7
:103f2000e00f5400e08f5c00e00f5d00e08f5d006b
:103f3000020034000d00e000e5ff3c00e80f5700f0
:103f400010003a000c1090000038a3000d00320061
:103f5000f78f560006003e0080fd2f000d00400048
:103f6000ef40780000c3b30080cf5000050032005e
:103f700002c3b30071fd2f008d8040008d06e90063
:103f800082f7780078811600120e98006c0090007d
:103f900083fd2f008f8141008d8041006ffb070062
:103fa0001c089000dc089000810f500006003d00c6
:103fb00000805000000e98000c1090000040a100fe
:103fc000001698000f0037000100e0000d003d00d2
:103fd0008c109000f4806000f08f500009003a00cf
:103fe0007c099000fc009000810051000c099000b9
:103ff00082805000008050004240a900010034003f
:10400000000e98004f0778004f06be004f05be0017
:104010004f04be00cf01b100000006000400fa000a
:10402000889fbe008a9fbe008c1f78000004780025
:1040300001067800f80d900078009000808555000a
:10404000080890008085550018089000808555006c
:10405000280890008085550038089000808555001c
:1040600048089000808555000002220090bf9f0004
:1040700000032300a0bf9f00081090000028a300a9
:1040800015003a000b00e000130034000b05780027
:104090008a047800e20f5500010036002900200054
:1040a000c801900009017800ee8057005800900088
:1040b00003000100500498000000e0008c00320072
:1040c0006808900009004000600c98000905550040
:1040d0004240a900eeff3c00780190000200e000a1
:1040e0000c003400c80190008c007800580090004b
:1040f00003000100500498008080eb000000e00005
:104100007c003200e80890007800900000804000b9
:10411000600c9800880c90000900e0001100340049
:1041200009057800e28f5400010036002a002000c3
:10413000c80190000a017800ec80570058009000f8
:1041400003000100500498000000e0006800320005
:10415000680890000a004000600c98008a845400af
:10416000edff3700180990000200e0000c00340059
:10417000c8019000e8009000580090000300010082
:10418000500498008080eb000000e00059003200ed
:10419000e80890001808900000804000600c98002b
:1041a000a80c90000900e000110034000905780017
:1041b000e28f5400010036002a002000c801900060
:1041c0000a017800ec8057005800900003000100bd
:1041d000500498000000e00045003200680890009c
:1041e0000a004000600c98008a845400edff3700fc
:1041f000380990000200e0000e003400e800900052
:104200001808900080804000c8019000580090007d
:1042100003000100500498008080eb000000e000e3
:1042200034003200e8089000380890000080400018
:10423000600c9800c80c90000900e00011003400e8
:1042400009057800e28f5400010036002a002000a2
:10425000c80190000a017800ec80570058009000d7
:1042600003000100500498000000e000200032002c
:10427000680890000a004000600c98008a8454008e
:10428000edff3700081090008000eb000028a3002d
:10429000180032000b00e000160034008b04780098
:1042a00009057800e28f5400010036002a00200042
:1042b000c80190000a017800ee8057005800900075
:1042c00003000100500498000000e00008003200e4
:1042d000680890000a004000600c98008a8454002e
:1042e0004240a900eeff3c008000eb0001003700d7
:1042f0008080eb00010078004f0678004f05be007b
:104300004f04be000080fa0000000600010878009b
:104310000000060000c0da000000060000c0da005d
:104320000000060000c0da0000000600839f68005d
:104330000100e00002003d0060001000e080180075
:104340000300e00002003d0060011100e08119005f
:10435000fef907004f00e00002003b006000100083
:10436000e080180000000600f8f907000400be0015
:1043700000000600020ab900001bb9000200b800e4
:10438000810042008100430000000600889fbe00bb
:104390008a9fbe0030044200b0844a0030054b00c2
:1043a00090854b006000b1000898be000a90be00e6
:1043b0000440e10005c8e10006d0e10007d8e100b3
:1043c00002003100680040001008e8004f05be0000
:1043d0004f04be0000000600889fbe008a9fbe00fa
:1043e000100478009004900020059000b005900023
:1043f0000418540005985c0006185d0007985d00dd
:10440000110020000440e10005c8e10006d0e100f1
:1044100007d8e100010039008000eb00108810008f
:104420004f05be004f04be00000006001200fa0057
:10443000889fbe008a9fbe008c9fbe00e0b79f0091
:10444000f1b79f0082bf9f0093bf9f000605be008b
:104450000404be000000eb00d0b79f00c0b79f006f
:10446000b0b79f00a0b79f0090b79f000006eb0079
:104470005fb19700cfb09700820141003fb0970035
:104480000200e00004003d00370007007e80570076
:10449000beff070003003700330007007e8057008f
:1044a000cdff0700dfb697000d00e0000c003500df
:1044b0006fb29700ffb297000fbb97009fbb9700aa
:1044c00010002000010020006011b80000027200fe
:1044d0008182720002037300838373001b00070054
:1044e0000c06e80001042000810f5600e0ff3a00ae
:1044f0000d00e00004003d000802be000a03be00fb
:104500007e805700a1ff07005fa897000000e00031
:1045100005003a001fb29700afb297003fb3970073
:10452000cfb39700090007006fb09700ffb0970066
:104530000fb997009fb997004f06be004f05be0008
:104540004f04be000080fa000000060001000700d2
:1045500000000600a4b79f00b5b79f00c6b79f0034
:10456000d7b79f00000006004f09de00828171006e
:10457000b3b79f004f01de00818040008280700051
:10458000a1b79f008fb097004f09de0000004000e8
:104590000200700090b79f007fa897004f01de00d7
:1045a000818040008280700081b79f000d0007006d
:1045b0004f3ade000000400004007000f0af9f00a2
:1045c000080007000402420085824a0006034b00ef
:1045d00087834b00dfff07000802be000a03be000e
:1045e000000006002fb29700bfb297004fb39700ac
:1045f000dfb3970000000600881f78001800200035
:10460000881f780089ff07008f87e9004f04780032
:1046100000000600801feb0084ff07008f87e90081
:1046200000000600889fbe008a9fbe00e00f500079
:10463000e08f5800e00f5900e08f59000c003d005a
:104640006044b8006055b8000000540081805c00f0
:1046500002015d0083815d00180020001500070045
:1046600008003d00180007000004eb0005003700bb
:104670000004eb000f00070002003d0012000700dd
:1046800018002000dcff07000800e00006003200f0
:104690006022b8006033b8000000520081805a00e8
:1046a00002015b0083815b004f05be004f04be002a
:1046b00000000600e00f5200e08f5a00e00f5b00a0
:1046c000e08f5b00000006006044b8006055b80051
:1046d0000402540085825c0006035d0087835d0050
:1046e00000000600889fbe008a9fbe008c1f7800d5
:1046f000e00f5000e08f5800e00f5900e08f5900a4
:104700000d003d006044b8006055b8000000540042
:1047100081805c0002015d0083815d001c0020003f
:104720000820e10009a8e1000ab0e1000bb8e100af
:104730000d003d00080037000006eb00e00f5200be
:10474000e08f5a00e00f5b00e08f5b0006003d0049
:104750006044b8006055b8000402540085825c00d3
:1047600006035d0087835d00aaff07000c00e000e0
:10477000060032006022b8006033b800000052002a
:1047800081805a0002015b0083815b004f06780044
:0c4790004f05be004f04be0000000600f4
:020000040000fa
:10479c00556e0000686100006e6400006c650000de
:1047ac0064200000696e00007465000072720000e5
:1047bc0075700000742c0000200000006473000071
:1047cc0050490000433300003345000050350000d1
:1047dc003132000047500000383000003600000035
:1047ec00756e00006b6e00006f7700006e000000ad
:1047fc00423100000044000065760000696300004f
:10480c006520000049440000203d0000200000000d
:10481c0020280000002900002c20000072650000f8
:10482c0076690000736900006f6e000020000000c4
:10483c00290a0000000a00000a2a00002a2a0000a7
:10484c002a2a00002a2a00002a2a00002a2a00000c
:10485c002a2a00002a2a00002a2a00002a2a0000fc
:10486c002a2a00002a2a00002a2a00002a2a0000ec
:10487c002a2a00002a2a00002a2a00002a2a0000dc
:10488c002a2a00002a2a00002a2a00002a2a0000cc
:10489c002a2a00002a2a00002a2a00002a2a0000bc
:1048ac002a2a00002a0a00002a2000005741000092
:1048bc00524e0000494e0000472000002d20000001
:1048cc00746800006973000020700000726f0000b3
:1048dc0067720000616d00002077000061730000ba
:1048ec00206300006f6d0000706900006c650000b3
:1048fc0064200000666f00007220000074680000e5
:10490c0065200000777200006f6e000067200000c9
:10491c00202a00000a2a00002063000068690000b9
:10492c00702e000020540000686900007320000005
:10493c00707200006f670000726100006d20000053
:10494c006d61000079200000707200006f6400003f
:10495c007563000065200000756e0000657800002e
:10496c007065000063740000656400002062000044
:10497c0065680000766900006f720000212000005d
:10498c002a0a00002a200000456400006974000017
:10499c00207400006865000020680000656100005c
:1049ac006465000072200000666900006c65000000
:1049bc0073200000746f000020700000726f000004
:1049cc0070650000726c00007920000064650000c6
:1049dc00666900006e6500002074000068690000c4
:1049ec00732000006368000069700000202a00003a
:1049fc000a2a0000206100006e6400002074000090
:104a0c006f200000696e0000737500007265000075
:104a1c00206300006f720000726500006374000078
:104a2c00206f000070650000726100007469000066
:104a3c006f6e00002e2000002020000020200000bf
:104a4c00202000002020000020200000202000005a
:104a5c002020000020200000202000002a0a000056
:104a6c002a20000020200000202000002020000030
:104a7c00202000002020000020200000202000002a
:104a8c00202000002020000020200000202000001a
:104a9c00202000002020000020200000202000000a
:104aac0020200000202000002020000020200000fa
:104abc0020200000202000002020000020200000ea
:104acc002020000020200000202a00000a2a0000dc
:104adc00204e00004f540000453a000020490000d1
:104aec0066200000746800006973000020770000e5
:104afc0061730000206300006f6d0000706900009e
:104b0c006c65000064200000666f000072200000dd
:104b1c007468000065200000636f00007272000072
:104b2c006563000074200000636800006970000079
:104b3c002c200000202000002a0a00002a2000005f
:104b4c00616e0000642000006f6e00006c79000044
:104b5c00206f00006363000075720000732000007a
:104b6c0061740000207000006f7700006572000017
:104b7c002d6f00006e200000286e00006f74000086
:104b8c002064000075720000696e00006720000050
:104b9c00612000004d4300004c520000202000001a
:104bac0020200000202a00000a2a000020720000a9
:104bbc006573000065740000292c0000207600004d
:104bcc0065720000696600007920000074680000be
:104bdc006174000020410000564400004420000095
:104bec00616e000064200000415600005353000029
:104bfc002061000072650000206300006f6e0000f1
:104c0c006e65000063740000656400002e200000d7
:104c1c00202000002a0a00002a2000004f6e00000d
:104c2c00207400006865000020500000494300001b
:104c3c00323400004833000032470000503200008c
:104c4c00303200002c2000006e6f00007420000039
:104c5c00636f00006e6e00006563000074690000f5
:104c6c006e67000020410000564400004420000004
:104c7c002020000020200000202000002020000028
:104c8c00202a00000a2a000020700000726f000029
:104c9c0064750000636500007320000074680000f8
:104cac0069730000206d00006573000073610000e3
:104cbc0067650000206f00006e6c0000792000001a
:104ccc0061740000207000006f77000065720000b6
:104cdc002d750000702e0000202000002020000008
:104cec0020200000202000002020000020200000b8
:104cfc002a0a00002a2a00002a2a00002a2a000078
:104d0c002a2a00002a2a00002a2a00002a2a000047
:104d1c002a2a00002a2a00002a2a00002a2a000037
:104d2c002a2a00002a2a00002a2a00002a2a000027
:104d3c002a2a00002a2a00002a2a00002a2a000017
:104d4c002a2a00002a2a00002a2a00002a2a000007
:104d5c002a2a00002a2a00002a2a00002a2a0000f7
:104d6c000a0000004661000073740000205200002d
:104d7c00432000004f730000630a0000004600004f
:104d8c00617300007420000052430000204f0000ab
:104d9c007363000020770000697400006820000035
:104dac00504c00004c0a00000050000072690000da
:104dbc006d61000072790000204f000073630000e9
:104dcc0020280000585400002c20000048530000fc
:104ddc002c20000045430000290a00000050000070
:104dec00726900006d61000072790000204f0000b4
:104dfc007363000020280000585400002c20000091
:104e0c00485300002c2000004543000029200000de
:104e1c007769000074680000205000004c4c0000c2
:104e2c000a00000053650000636f00006e64000010
:104e3c0061720000792000004f730000630a0000cb
:104e4c00004c00006f770000205000006f770000ce
:104e5c006572000020520000432000004f730000d8
:104e6c00630a00000046000061730000742000001b
:104e7c0052430000204f0000736300002f310000ec
:104e8c00360a000000460000617300007420000028
:104e9c0052430000204f0000736300002f4e0000af
:104eac000a000000556e00006b6e00006f7700006a
:104ebc006e2000006f730000636900006c6c0000d2
:104ecc00617400006f7200002074000079700000a3
:104edc00652e0000000a00004465000076690000a1
:104eec006365000020680000617300002062000010
:104efc00656500006e200000696e000020730000e4
:104f0c006c65000065700000206d00006f6400008f
:104f1c00650a0000000a0000446500007669000084
:104f2c0063650000206800006173000020620000cf
:104f3c00656500006e200000696e000020690000ad
:104f4c00646c0000652000006d6f0000646500005b
:104f5c000a0000000a52000065730000657400002e
:104f6c002063000061750000736500003a200000aa
:104f7c00005000006f770000657200002d6f00007c
:104f8c006e2e00000a000000536f000066740000d3
:104f9c00776100007265000020520000657300000c
:104fac00657400002e0a00000057000061740000b8
:104fbc0063680000646f0000672000005469000003
:104fcc006d6500006f750000743a00002000000051
:104fdc000a0000004d4300004c520000206100000c
:104fec007373000065720000746900006f6e00003e
:104ffc002e0a000000420000726f0000776e000065
:10500c002d6f0000757400002e0a00000054000083
:10501c007261000070200000436f00006e6600009b
:10502c006c690000637400002e0a00000049000047
:10503c006c6c000065670000616c00002043000090
:10504c006f6e000064690000746900006f6e0000f0
:10505c002e0a0000004300006f6e0000666900001d
:10506c006775000072610000746900006f6e0000cb
:10507c00204d0000697300006d6100007463000036
:10508c00682e00000a000000556e00006b6e0000d8
:10509c006f7700006e2000007265000073650000e1
:1050ac00742e00000a00000045720000726f0000b0
:1050bc0072200000747200006170000070650000c6
:1050cc00643a00002000000050720000696f00007c
:1050dc0072690000747900003a200000002c000076
:1050ec002056000065630000746f00007220000001
:1050fc006e7500006d620000657200003a200000c1
:10510c00000a00000a000000554100005254000043
:10511c003120000070610000726900007479000099
:10512c0020650000727200006f7200000a0000001f
:10513c0055410000525400003120000066720000fe
:10514c00616d0000696e0000672000006572000050
:10515c00726f0000720a00000055000041520000fe
:10516c0054310000206f0000766500007272000060
:10517c00756e000020650000727200006f720000f6
:10518c000a0000005541000052540000322000007b
:10519c0070610000726900007479000020650000e5
:1051ac00727200006f7200000a000000554100008e
:1051bc00525400003220000066720000616d000045
:1051cc00696e00006720000065720000726f0000bd
:1051dc00720a0000005500004152000054320000d9
:1051ec00206f00007665000072720000756e000082
:1051fc0020650000727200006f7200000a0000004f
:10520c005541000052540000332000007061000032
:10521c007269000074790000206500007272000051
:10522c006f7200000a00000055410000525400004b
:10523c003320000066720000616d0000696e000092
:10524c006720000065720000726f0000720a000097
:10525c00005500004152000054330000206f000044
:10526c007665000072720000756e0000206500000b
:10527c00727200006f7200000a00000055410000bd
:10528c00525400003420000070610000726900006c
:10529c007479000020650000727200006f720000cb
:1052ac000a00000055410000525400003420000058
:1052bc0066720000616d0000696e000067200000de
:1052cc0065720000726f0000720a00000055000049
:1052dc004152000054340000206f0000766500003d
:1052ec0072720000756e0000206500007272000082
:1052fc006f7200000a0000003078000000450000ca
:10530c00727200006f720000206900006e200000b5
:10531c0062750000696c0000645c0000657300003d
:10532c006f7300005f6500006d6200006564000033
:10533c006465000064460000313400005f330000f7
:10534c00334500005035000031320000475000005a
:10535c0038300000365c00006c690000625c0000b4
:10536c0073720000635c000070690000633200001f
:10537c00345f00007365000072690000616c00000e
:10538c002e630000206c0000696e00006520000098
:10539c0032390000363a0000204900006e760000d9
:1053ac00616c00006964000020550000415200004f
:1053bc005400000045720000726f00007220000063
:1053cc00696e000020620000756900006c640000ca
:1053dc005c650000736f0000735f0000656d00007a
:1053ec0062650000646400006564000046310000e2
:1053fc00345f0000333300004550000035310000ad
:10540c003247000050380000303600005c6c000061
:10541c00696200005c730000726300005c70000045
:10542c0069630000323400005f7300006572000095
:10543c00696100006c2e0000632000006c690000a4
:10544c006e65000020330000333500003a20000068
:10545c00496e0000766100006c6900006420000059
:10546c0055410000525400000005000003020000ea
:10547c000100000050c3000030750000204e0000f9
:10548c001027000088130000b80b0000d0070000a4
:10549c00e8030000f40100002c010000c80000002b
:1054ac0064000000320000001e0000001400000028
:1054bc000a000000050000000300000002000000cc
:1054cc0001000000050300000201000005030000bc
:1054dc0002010000321e0000140a00000503000047
:1054ec0002010000476f00007420000061200000e2
:1054fc006d6500007373000061670000652000009b
:10550c00667200006f6d00002000000073650000e3
:10551c006e640000657200005f41000000550000e1
:10552c004e4b00004e4f0000574e00002074000000
:10553c00617300006b3a0000202000002825000059
:10554c006429000000200000636f00006e740000ee
:10555c00616900006e6900006e6700002025000084
:10556c0064200000202000002020000020200000eb
:10557c0020200000206500006e7200006f75000096
:10558c007465000020740000696d00006520000047
:10559c003d200000256c0000642000006d730000ad
:1055ac000a000000736500006e6400006572000064
:1055bc005f41000020730000656e0000646900000c
:1055cc006e670000204d0000455300005341000061
:1055dc004745000020250000640a0000000a000076
:1055ec0062750000696c0000645c0000657300006b
:1055fc006f7300005f6500006d6200006564000061
:10560c006465000064460000313400005f33000024
:10561c003345000050350000313200004750000087
:10562c0038300000365c00006368000061700000d8
:10563c00313400005c610000707000005f6d000090
:10564c00616900006c4100002e6300002c200000fa
:10565c0062750000696c0000742000006f6e000021
:10566c00204600006562000020200000342000006d
:10567c003230000032300000206100007420000045
:10568c00313400003a330000363a00003531000066
:04569c000a00000000
:020000040000fa
:1056a00000002100a1ba2100010878008000eb0071
:1056b0001100980021009800020420003200980098
:1056c00080002100a3be210003087800110098008b
:1056d0002100980032009800e30e07000000060049
:1056e0000080fb004400de00e94f5000020036005d
:1056f0007043b000010037000043b0000000060016
:105700006f406000e94f5000020036007043b00067
:10571000010037000043b00000000600881f780039
:1057200000047800284090000074a00020449800f5
:10573000180178000200e00004003200310520006a
:10574000810f510027003a000c003700814178009a
:10575000b202210003497800118080008100e80036
:105760006181880002042000828f500001003a000d
:105770002c30ef0031052000010c78000028a30038
:105780000400320040c0b3002044980030c0b30091
:10579000180037006181800022808000810f510055
:1057a000030032000004a1002044980002003700ea
:1057b0000004a00020449800284190000040eb0025
:1057c0000208a3000b003a000000210010814000f5
:1057d000b30221009341780003497800110098003a
:1057e000780e070080c0b30020449800000ceb0046
:1057f00030c0b3004f04780000000600889fbe0050
:105800000004780081447800284090000074a000d3
:1058100020449800180078000000e00004003200e6
:10582000a1062000810f50003f003a001900370008
:1058300001c3b300e0c521000148780081c7b3006f
:105840000000e8000148780009407800a4ff070044
:1058500001c621008048780009407800a8ff0700b1
:1058600011c62100804878000100e8000048eb00e4
:105870002a70ef000210ec00408188000104200033
:10588000810f500001003a002830ef00a0062000f0
:10589000000c7800284090000028a300040032008b
:1058a00040c0b3002044980030c0b300220037004d
:1058b0004181800022808000810f5100030032006e
:1058c0000004a10020449800020037000004a0005a
:1058d00020449800284190000040eb000208a300fb
:1058e00015003a000000210090814000a202210032
:1058f000124178000282fb00e5c5210004824200cb
:10590000944978000241e80002427800a302210095
:1059100084497800110098002a0e07002ad0bf00a1
:10592000e34f5000d3ff360080c0b30020449800fe
:10593000000ceb0030c0b3004f04be0000000600b6
:10594000881f780000047800284090000074a000b0
:1059500020449800180078000000e00004003200a5
:1059600041082000810f500067003a0041003700d5
:105970002670ef0030c6b30080cf50000a0036001a
:105980000181fb004211de00b04721000011b80088
:105990000301d10090c5210003c3b30003484100b7
:1059a00010c0b30026f0b700e9cf50001400360055
:1059b00026d0bf000081fb0093c5210082814100f9
:1059c0000181fb00c212de00b4472100042ab800a6
:1059d0008502d1004406200084aab90004015100c8
:1059e0000281fb00d5cc2c000512b8004329de0053
:1059f00004c3b300844941000040e80026f0b7002a
:105a000062022100124178008281fb0090c52100d2
:105a1000830140008180fb00d4cc2c00040ab80034
:105a2000432ade00ea22b9008480500004c3b30098
:105a300084c940008240e8006202210001497800e8
:105a40008180fb00010040000048eb002770ef0060
:105a50002a0037000210ec00208188000104200099
:105a6000810f500001003a002430ef004008200070
:105a7000000c7800284090000028a30004003200a9
:105a800040c0b3002044980030c0b300220037006b
:105a90002181800024808000810f520003003200a9
:105aa0000004a10020449800020037000004a00078
:105ab00020449800284190000040eb000208a30019
:105ac00015003a0000002100908140007202210080
:105ad000124178000282fb0095c521000482420039
:105ae000944978000241e8000242780073022100e4
:105af0008449780011009800b20d070027d0bf003c
:105b00002650e300d3ff3e0080c0b300204498003d
:105b1000000ceb0030c0b3004f047800000006001a
:105b2000889fbe008a9fbe008c1f78000006780008
:105b30000204be002c4090000074a0002046980093
:105b40001c0078000000e00004003200410a200040
:105b5000810f50005f003a003900370001c3b300e5
:105b6000e0c421000148780081c7b3000000e800cc
:105b700001487800481dde000b0020000a40780034
:105b8000d7fe070001c52100804878000a40780050
:105b9000dbfe070011c5210080487800404dde0083
:105ba0000b0020000a407800cdfe070021c521002f
:105bb000804878000a407800d1fe070031c52100f6
:105bc00080487800c84dde004848dd004845de00ca
:105bd0000a0570000a407800c1fe070041c5210097
:105be000804878000a407800c5fe070051c52100b2
:105bf0008048780008407800b9fe070061c52100a0
:105c00008048780008407800bdfe070071c521007b
:105c1000804878000100e8000048eb002270ef00a7
:105c20000210ec000081880001042000810f500068
:105c300001003a002030ef00400a2000000e7800fa
:105c40002c4090000028a3000400320040c0b300a4
:105c50002046980030c0b300220037000181800048
:105c600022808000810f5100030032000004a10057
:105c700020469800020037000004a000204698004b
:105c80002c4190000040eb000208a30015003a00f0
:105c90000000210090814000220221001241780082
:105ca0000282fb00e5c4210004824200944978008e
:105cb0000241e80002427800230221008449780072
:105cc000110098003f0d070022d0bf00e94f50009f
:105cd000d3ff360080c0b30020469800000eeb00d2
:105ce00030c0b3004f0678004f05be004f04be0021
:105cf00000000600881f780000047800284090000b
:105d00000074a00020449800180078000000e00013
:105d100004003200910b2000810f500033003a0044
:105d20000e00370082417800c0012100034878004e
:105d3000d18088001d70ef002a0037000210ec00af
:105d4000f080880001042000810f500001003a001b
:105d50001e30ef00900b2000000c780028409000cf
:105d60000028a3000400320040c0b3002044980083
:105d700030c0b30021003700f18080002480800013
:105d8000810f5200030032000004a100204498005b
:105d9000020037000004a000204498002841900031
:105da0000040eb000208a30014003a0002002100aa
:105db00012824000d3012100934178000380fb0050
:105dc0001a10b400104a78008341e80003427800ba
:105dd000d00121000448780011019800f90c070057
:105de0001c70ed001c50e200d4ff3a0080c0b300ec
:105df00020449800000ceb0030c0b3004f04780042
:105e000000000600a04190000374a0002340980009
:105e1000900178000300e00004003200d40c200060
:105e2000848f510034003a000700370053012100ed
:105e300082497800b18088001870ef002a0037008e
:105e4000d30c200003087800a04190000328a30091
:105e50000400320041c0b3002140980033c0b300b9
:105e60002900370084002100940290002402900051
:105e7000848f5200030032000304a10023409800e5
:105e8000020037000304a000234098002042900045
:105e90008041eb000408a3001b003a000c30ec002a
:105ea0000304200065808000838f520001003a00c7
:105eb0000c30ef0083012100934178008400210021
:105ec0009402780024029000848242000382fb0046
:105ed00004824000154a78008341e800834278003c
:105ee00084012100054a7800830121009341780054
:105ef00082cf5100d2ff390081c0b3002140980009
:105f00000008eb0033c0b300034078000000060037
:105f1000204190000274a0002240980010017800f7
:105f20000200e00004003200e30d2000830f510066
:105f30003a003a00030037001470ef00e20d200031
:105f400002087800204190000228a30004003200db
:105f500041c0b3002140980032c0b3003300370085
:105f60008300210013029000a3019000830f5200d0
:105f7000030032000204a100224098000200370012
:105f80000204a00022409800a04190000041eb00d4
:105f90000308a30025003a000c30ec0002042000a6
:105fa00063808000828f510001003a000c30ef00c6
:105fb0004301210093417800820021001202780001
:105fc0002201900002014200124178000382fb008e
:105fd00004824000024a7800ea4f51000a00320071
:105fe000ed4f5100080032000204e00006003200cc
:105ff0008341e80044012100034a7800e2c3b30072
:1060000082cf5100cdff36004201210012417800bd
:106010000281fb00828040008048eb0081c0b30019
:10602000214098000008eb0032c0b3000240780025
:1060300000000600881f78000004780028409000c7
:106040000074a00020449800180078000000e000d0
:1060500004003200210f2000810f500029003a0077
:106060000a00370081808800230037000210ec000e
:106070009080880001042000810f500001003a0048
:106080001230ef00200f2000000c78002840900014
:106090000028a3000400320040c0b3002044980050
:1060a00030c0b3001b003700918080002280800048
:1060b000810f5100030032000004a1002044980029
:1060c000020037000004a0002044980028419000fe
:1060d0000040eb000208a3000e003a00020021007d
:1060e0009281400080808000b049780080808800e4
:1060f00011019800330c0700808080001004e0003c
:10610000daff3a0080c0b30020449800000ceb0096
:1061100030c0b3004f0478000000060080417800d2
:106120000210ec0001042000810f500001003a0031
:106130000000eb000410e300feff3200010021002c
:106140001101400003497800900098001d0c0700e1
:1061500000000600889fbe008a1f780090407800eb
:106160000104e0001100320000047800090420005e
:106170000005eb000210ec00890f500001003a000e
:106180000a0078000410e300feff32000200210044
:10619000920140008149780010019800090c070025
:1061a000d84078000104e000f2ff3a004f05780083
:1061b0004f04be0000000600800021009000900007
:1061c00020009000808f5000fbff32000c30ec006c
:1061d000000420000c10e30001003a000c30ef0036
:1061e0008000210090007800200090000080400096
:1061f0001040780000000600800078002303210092
:10620000934178000000eb00efcf510058003e00b2
:10621000f5c18000818f52001400320004852100f6
:106220000043eb00064078000641780017c0b30039
:10623000040037009402780072024200818f5200fd
:106240000c0032000604e00004003a000500e00003
:1062500002003a0002407800074378000241e8005b
:10626000f04f5100f3ff3a00420037000040eb00ce
:10627000004178008280fb00a4832100f20bb9006a
:10628000860342008002eb00850b78008483e800df
:1062900086834300854b780006034200060b90007e
:1062a00016037800250398008382fb00a695210041
:1062b00085024300824a78008341e80083427800e7
:1062c00022032100054978000080fb00f201b9009b
:1062d00002024200740190000200e00007003a0050
:1062e000a28180000201e800a2818800f200b900ca
:1062f000838421000300400002087800f208b900fe
:10630000a18321000100400019003700a48321006f
:1063100022c1b3000440bc0082024200a1029800e6
:106320008000eb00810a78000483e8000203430048
:10633000014b7800050990001201780021019800b6
:106340008380fb00a29521008100410080487800f5
:106350008341e80083407800200321000148780051
:106360003410ec00a0818800f0029800050078004d
:10637000000006000604e000e4ff3a000000eb0025
:10638000fbff37000003780024032100144278004b
:106390000040eb000404e000180032009395210057
:1063a0008000eb00a78321005340780000c1e80083
:1063b000e14f51000d00360022c1b3000440bc0083
:1063c0000280430020009000860f500007003a0032
:1063d000a095210081024000e0cfb300804a780000
:1063e0003010a80010c0b300040037008100e8009e
:1063f000814f5200ecff3e000040eb000000060021
:106400000003780025032100954278000000eb008e
:106410000504e00011003200939521008040eb005c
:10642000a48321005340780000c1e800e14f5100ef
:106430000600360022c1b3000440bc000400410045
:1064400020019000860f5100040032008140e800d6
:1064500085cf5000f3ff39000000eb00000006007c
:106460000003780025032100954278000000eb002e
:106470000504e00011003200939521008040eb00fc
:10648000a48321005340780000c1e800e14f51008f
:106490000600360022c1b3000440bc0004004100e5
:1064a00070019000860f5100040032008140e80026
:1064b00085cf5000f3ff39000000eb00000006001c
:1064c00050cb80000000e00005003200c1972100a1
:1064d000100020001100e00006003a000100370023
:1064e0000000eb00f200b900a1962100010040007d
:1064f000050037000000e800f2804000f00f500077
:10650000f4ff3a000000eb0000000600d081880094
:10651000e181880000000600d0818000e1818000d8
:1065200092e52b00828ab900661a24008683b9009e
:10653000060242000201b80083014200400ade0068
:1065400005002000711a240081abb9000120b800b9
:1065500081004300cf0ade00410bdd004f02de0068
:1065600004027300040141008581490000f0a1008c
:106570008000eb00c002dd000400200002004200a9
:1065800083804a0004003b00120020000300280022
:106590000000410081804900d0818800e1818800ad
:1065a00000000600889fbe008100400052dc2900e8
:1065b000c3112800810f500020003100c812dd00f7
:1065c000040020000204410083844900441bdd00d4
:1065d000cc13de00870373004413dd00080443007e
:1065e00089844b000804410089844900471bdd0071
:1065f000c913de00870373004713dd00080443005e
:1066000089844b00481bdd00c813de00870373003c
:106610004813dd000801430089814b00020142005c
:1066200083814a003082fb008002eb000401690094
:1066300085816900808f5000e0ff3e000281690083
:10664000020078004f04be000000060081004000f8
:10665000810f500026003100628380007383800028
:106660000203410083834900441add00cc12de009e
:10667000850272004412dd000602420087824a0051
:106680000402410085824900471bdd00c913de007a
:10669000870373004713dd000402430085824b002b
:1066a000481bdd00c813de00870373004813dd00bc
:1066b0000402430085824b00c811dd000200200067
:1066c000040141008581490062838800738388004a
:1066d0003082fb008002eb000401690085816900c3
:1066e0006283880073838800808f5000daff3e0049
:1066f0006083800071838000000006001004e000c9
:106700002600320062838000738380000203410010
:1067100083834900441add00cc12de00850272003a
:106720004412dd000602420087824a000402410052
:1067300085824900471bdd00c913de008703730013
:106740004713dd000402430085824b00481bdd0037
:10675000c813de00870373004813dd000402430002
:1067600085824b00c811dd000200200004014100b9
:106770008581490062838800738388001082fb0052
:106780008002eb0004016900858169006283880052
:10679000738388005004e000daff3a0060838000d1
:1067a0007183800000000600008068000000060081
:1067b00000c1b30000000600889fbe008a9fbe0093
:1067c0000004be000205be00130b070008015000c4
:1067d00089815800880f5000898f580002003100cd
:1067e00061015100e0815900100020008a0f510022
:1067f0008b8f590001003e000000eb004f05be00ea
:106800004f04be0000000600889fbe008a9fbe00a5
:1068100069032100994478000904e0002100320056
:106820000044eb001b002000aaa821000880fb0008
:106830008058dd00c28180008100610015003200b7
:10684000ea02b900e6004200810045000083eb0047
:106850008083eb0031014300a1814b00040245001d
:106860003202980043029800e00f5100e08f590077
:1068700007003a008400780011019000a101900007
:10688000b2009800c30098001100780000000100d9
:106890008944e9000904e000020032000844e800ed
:1068a000e2ff37004f05be004f04be0000000600a7
:1068b000889fbe008a9fbe000205be0069032100ba
:1068c0009944780080c2eb00efcf540021003e00d5
:1068d000c68180000608a300090032008000eb009a
:1068e000170020008142e8008100e80001047800e0
:1068f0008139dd000682610013003a000300370091
:10690000130020000004eb008042eb00ea44b900d1
:10691000a1a8210008844000880078008018780031
:106920008a88be003a0498004b0498008944e80025
:106930008940780060032100014878000303730058
:10694000c681880003003700ef8f5000e5ff3a0052
:1069500080c2eb00054078004f05be004f04be002a
:10696000000006008081fb00120020000311dd0002
:10697000c1818000010261000040eb00090032008b
:10698000ea18b900a3a82100808141008009eb002a
:106990003670ed000281ea0001006100c0818800cc
:1069a00010c0b3000000060000037800630321005c
:1069b0009341780000c0eb000304e00012003200b5
:1069c000c58180000040eb0014002000a7a8210032
:1069d0008080fb000121dd0005016100050032001f
:1069e000ea09b90082804300910f130006003200cb
:1069f0008341e9000304e000020032000040e800a7
:106a0000f3ff370000c0eb00000006000202be00ea
:106a10008080fb00130020008119dd00c081800010
:106a2000830160000040eb0005003200ea08b90075
:106a3000c2a82100820040008488be0010c0b300bc
:106a400000000600889fbe008a9fbe008c9fbe008b
:106a50008e1f7800e98321009d952100ea96210090
:106a6000ab072100ac0b21000004eb000b07780002
:106a70000000eb00800c780080eeeb00000d780049
:106a80004240dd000e004000e0049800c340dd00fd
:106a9000a2b22100828d40008c007800940707008c
:106aa0000804e800f284440072054500e4854500ce
:106ab0008c07b000f00f5400edff3a003830ef00c3
:106ac000a0a82100020a2000000141008000eb0084
:106ad000010878006a004000820f5000fcff3a0075
:106ae0003270ef003370ef003670ef0000012000cd
:106af000d08188003c30ef003b0a0700180a0700ed
:106b0000e7fa07002c0307004f0778004f06be0086
:106b10004f05be004f04be0000000600889fbe0067
:106b20008a9fbe008c9fbe008e1f7800c5ff0700a5
:106b30003430ef009e952100a98321008e06e800e5
:106b40002c0321001c4678000c04e00011003200e8
:106b50008e0578000044eb005b85fb00f250b90025
:106b60008080440001007800a10090000100010035
:106b7000e34f500004003a00f255b9000a85440082
:106b80002a009000fffd07000844e800884f5600e7
:106b9000f1ff3e00838180000308a300e8ff32007c
:106ba00022032100124178000280fb000080460091
:106bb000e1cfb30090cf10000f003a000240e80090
:106bc000804f5600070036008080fb008180460021
:106bd00011427800f4f89f000040e800804f560012
:106be000f9ff3e000c80fb000080460080c0eb00f7
:106bf00071f89f000c46e9000204e0000200320038
:106c00000241e900e8ff37000c40780032f0b7009d
:106c10000300a10083818800c9ff370000017800cc
:106c20008001eb00909e2e0001002000c7ef0700be
:106c300066015000e08158002210880007e2a80099
:106c400000000600204290000474a0002440980038
:106c50009001780025052000858f51002800320022
:106c600006003e000300e0000b0032000205200099
:106c7000828f510068003a000c0037005105200057
:106c8000818f510034003200e3804000818f510039
:106c900061003a004e00370082427800d3042100a0
:106ca0008549780002052000020878000428a30026
:106cb0000400320041c0b3002140980032c0b3004c
:106cc00059003700321080007f01610003003a0054
:106cd0000404a10024409800020037000404a0002e
:106ce00024409800a04190000041eb000308a3005d
:106cf0004d003a000662a800220520000208780034
:106d0000204190000228a3000400320041c0b300db
:106d10002140980032c0b300430037000822ab0086
:106d2000030032000204a100224098000200370054
:106d30000204a00022409800a04190000041eb0016
:106d40000308a30038003a0002108000824878004f
:106d50005105200001087800a04090000128a30000
:106d60000400320041c0b3002140980032c0b3009b
:106d70002d003700321080007f01610003003a00cf
:106d80000104a10021409800020037000104a00086
:106d900021409800a04090000041eb000108a300b2
:106da00021003a00d104210091407800e180600088
:106db000c508dd00321080000250a1000281700081
:106dc000321088000682a8008105200001087800a2
:106dd000a04090000128a3000400320041c0b3008d
:106de0002140980032c0b3000f0037000682ab008c
:106df00003003a000104a10021409800020037007e
:106e00000104a00021409800a04090000041eb0048
:106e10000108a30004003a0081c0b300214098009b
:106e20000008eb0032c0b30002407800000006000a
:106e3000a04290000574a000254098001002780040
:106e4000c6062000860f52002d00320006003e00cc
:106e50000400e0000b003200b1062000810f520058
:106e60006d003a000f003700e1062000810f52004c
:106e70003c003200e3804000810f520066003a007f
:106e80005300370001437800c4042100064a78000b
:106e900052828800438288000602a800b1062000c2
:106ea000010878000528a3000400320041c0b300a7
:106eb0002140980031c0b3005b0037000602ab00f0
:106ec00003003a000504a1002540980002003700a5
:106ed0000504a00025409800204190008040eb0070
:106ee0000208a30050003a00c1042100914078003c
:106ef000e10fb20011108800c106200001087800df
:106f0000a04090000128a3000400320041c0b3005b
:106f10002140980031c0b3004300370009c2ab00e4
:106f200003003a000104a10021409800020037004c
:106f30000104a00021409800204190008040eb0017
:106f40000208a30038003a004630ef00190037006d
:106f5000518280009180fb0011108800e106200022
:106f600001087800a04090000128a300040032002e
:106f700041c0b3002140980031c0b3002a0037005f
:106f800009c2ab0003003a000104a10021409800af
:106f9000020037000104a000214098002041900029
:106fa0008040eb000208a3001f003a004a30ec00ca
:106fb0004630ec004182800032828000810f510017
:106fc000e3ff39000642a8001107200001087800fd
:106fd000a04090000128a3000400320041c0b3008b
:106fe0002140980031c0b3000f0037000642ab00cb
:106ff00003003a000104a10021409800020037007c
:107000000104a00021409800204190008040eb0046
:107010000208a30004003a0081c0b3002140980098
:107020000008eb0031c0b30001407800000006000a
:10703000889fbe0000047800284290000474a000dd
:10704000244498001800780065082000850f50003f
:107050003000320006003e000000e0000e0032006a
:1070600051082000810f500092003a0012003700b2
:10707000b1082000810f5000610032008100e8005b
:10708000810f500079003200e4805000810f5000e1
:1070900088003a0037003700814278004004210020
:1070a0000548780012828800038288000602a80042
:1070b00050082000000c78000428a30004003200cf
:1070c00040c0b3002044980030c0b3007d003700ba
:1070d0000602ab0003003a000404a1002444980017
:1070e000020037000404a00024449800a840900047
:1070f0000040eb000108a30072003a0044d0bf003a
:107100000004a0000080fb00101088006008200030
:10711000000c7800284090000028a30004003200f2
:1071200040c0b3002044980030c0b3006500370071
:1071300009c2ab0003003a000004a10020449800fb
:10714000020037000004a00020449800a8409000ee
:107150000040eb000108a3005a003a003e30ef0067
:107160002000370080d321000008eb0080082000b9
:10717000000c7800284090000028a3000400320092
:1071800040c0b3002044980030c0b3004d00370029
:10719000198280000041eb008900780080d3210033
:1071a000a8fe0700e24f500004003600284090007f
:1071b0000004a100204498000300370028409000fc
:1071c0000004a00020449800a84090000040eb007c
:1071d0000108a3003b003a008904e80019828800f6
:1071e0003e30ec004010ed003e10e300ddff3900c2
:1071f00080d321000008eb00b0082000000c7800cc
:10720000284090000028a3000400320040c0b300d2
:107210002044980030c0b3002a00370012c0b300e9
:107220001182800080d3210086fe0700e24f5000cb
:1072300004003600284090000004a100204498007b
:1072400003003700284090000004a000204498006c
:10725000a84090000040eb000108a30019003a008c
:107260000642a800c0082000000c780028409000ca
:107270000028a3000400320040c0b300204498005e
:1072800030c0b3000f0037000642ab0003003a00e5
:107290000004a10020449800020037000004a00070
:1072a00020449800a84090000040eb000108a30093
:1072b00004003a0080c0b30020449800000ceb00aa
:1072c00030c0b3004f04be000000060071d0bf0004
:1072d0000080fb000000e9004f00de0071f0b70005
:1072e00000000600889fbe008a9fbe008c9fbe00e3
:1072f00000047800284090000074a000204498000a
:10730000180078000000e00004003200c10b2000eb
:10731000810f500048003a0005003700c0a223004a
:1073200037fc070000838800c00b2000000c7800a9
:10733000284090000028a3000400320040c0b300a1
:107340002044980030c0b3003f0037008808900008
:1073500011017800220190000200e00003003200d9
:107360000004a10020449800020037000004a0009f
:1073700020449800284190000040eb000208a30040
:1073800031003a0011007800200090000000e00079
:10739000e5ff320089a72a004acf2100cda82a00a4
:1073a0005ca92a00e405450021cf210008007800ef
:1073b000a3050700891f780002ee07001a00780075
:1073c0008f87e90001838000f1009000808f5000da
:1073d00004003a008d1f7800faed07008f87e9005e
:1073e00004003700801f78008c1f7800f5ed07003f
:1073f000e4875700080807003b015000ab815800a4
:10740000829fbe00c0cf21001080fb00801f78004b
:1074100090aa2a00801f7800eaed07000808900073
:1074200010007800e8875700200090000000e0007e
:10743000ddff3a00bcff370080c0b3002044980055
:10744000000ceb0030c0b3004f06be004f05be007d
:107450004f04be0000000600881f78008a9fbe000f
:1074600000047800284090000074a0002044980098
:1074700018007800210a2000810f50001600320009
:10748000e9804000810f5000460032000000e0001b
:1074900064003a006470ef0020972300d8fb0700d7
:1074a0001083880010c0b300c1d02100804878004c
:1074b000f800900071e8880001d121008048780030
:1074c000668040004306210093417800034878001d
:1074d000200a2000000c7800284090000028a3001b
:1074e0000400320040c0b3002044980030c0b30014
:1074f00050003700118380008108900091007800cf
:107500009101780068815100a10090008100510034
:10751000f08f5000030036000004a10020449800c2
:10752000020037000004a00020449800a84090000a
:107530000040eb000108a3003e003a0064d0bf0009
:107540000080fb00801f780080ad2a00801f78003b
:107550009ced0700c1d0210010838000e8040700e3
:10756000edfb07006f0060006105b8006105450094
:10757000e0854d00a80707003004980041049800fa
:107580004858dd00c850de00810070004850dd0022
:107590005004980061049800b00a2000000c7800a4
:1075a000e4875700284090000028a3000400320020
:1075b00040c0b3002044980030c0b3001d00370025
:1075c00058019000e801900038009000c800900039
:1075d00079fc07000000e000040032002840900021
:1075e0000004a100204498000300370028409000c8
:1075f0000004a00020449800a84090000040eb0048
:107600000108a3000b003a006450ec0064f0b700de
:1076100021c3b300814f5000a2ff36006470ef0019
:10762000a0ff370080c0b30020449800000ceb009e
:1076300030c0b3004f05be004f04780000000600c4
:10764000881f780000047800284090000074a00093
:1076500020449800180078000000e0000400320088
:1076600021052000810f500025003a000a00370054
:1076700065fc070068070700300498004104980083
:1076800010002000010020005004980061049800c0
:1076900020052000000c7800284090000028a3005e
:1076a0000400320040c0b3002044980030c0b30052
:1076b0001700370058019000e80190003800900052
:1076c000c80090003cfc07000000e000040032000d
:1076d000284090000004a1002044980003003700d7
:1076e000284090000004a00020449800a84090008a
:1076f0000040eb000108a300ddff3200040037006a
:1077000080c0b30020449800000ceb0030c0b300f0
:107710004f04780000000600889fbe008a9fbe00cc
:107720000004be000205be007bfb0700000244000f
:1077300081824c008a0f52008b8f5a001300360052
:107740000001be000082690008024200e0824c0095
:10775000840f5500858f5d000c0031004802de006b
:1077600000426a0003426a004818de0000426a00d4
:107770000482fb008002eb000402440085824c007e
:10778000840f5500858f5d00e7ff39000400be00bf
:107790004f05be004f04be0000000600e0828000de
:1077a000f182800061004000e0804800e0828800b3
:1077b000f18288000000060000b223008efa070064
:1077c000421f2000030020006096230038fc0700c1
:1077d000c0a2230088fa07002097230086fa07003a
:1077e00050af2a005bfa0700000006008001eb00a2
:1077f00013009800230098000208780031009800d8
:10780000000006008002780001437800a501900086
:1078100015017800828f51000b0031001502900095
:1078200084814100110009008281d80001017800a3
:10783000b50190008281410086497800a500900042
:107840008100e800a1029800000006000002780014
:1078500081427800a40190001401900082814100cf
:1078600014017800110009008281d800010178001c
:10787000b401900002814100054978002401900084
:10788000940f510006003a00940090008100e80037
:10789000110009008280d800110298000200370010
:1078a0000201e80022029800000006008002780031
:1078b00001037800a501900015017800828f510026
:1078c0001a00310015029000848141001100090066
:1078d0008281d80001017800b501900082814100c9
:1078e00086497800a50190008301e800a302980072
:1078f00015017800828f51000c00310015029000b4
:1079000084814100110009008281d80001017800c2
:10791000b501900082814100c830de0081497800c5
:10792000a50090008100e800a10298000000060078
:1079300000037800a600900016027800848f5000a3
:107940003800310096029000858040001100090047
:107950008480d8003602900081004200824878007e
:10796000a60090008100e80021039800160278002c
:10797000848f50002b0031009602900085804000db
:10798000110009008480d800360290008100420076
